{
  "contractName": "ConceptAuction",
  "abi": [
    {
      "constant": true,
      "inputs": [],
      "name": "auctionCount",
      "outputs": [
        {
          "name": "",
          "type": "uint256"
        }
      ],
      "payable": false,
      "stateMutability": "view",
      "type": "function"
    },
    {
      "constant": true,
      "inputs": [
        {
          "name": "",
          "type": "uint256"
        }
      ],
      "name": "auctions",
      "outputs": [
        {
          "name": "seller",
          "type": "address"
        },
        {
          "name": "currentBidBidder",
          "type": "address"
        },
        {
          "name": "name",
          "type": "string"
        },
        {
          "name": "description",
          "type": "string"
        },
        {
          "name": "startTime",
          "type": "uint256"
        },
        {
          "name": "expirationTime",
          "type": "uint256"
        },
        {
          "name": "startPrice",
          "type": "uint256"
        },
        {
          "name": "currentBidAmount",
          "type": "uint256"
        },
        {
          "name": "currentBidTimestamp",
          "type": "uint256"
        },
        {
          "name": "bidCount",
          "type": "uint256"
        },
        {
          "name": "assetIdentifier",
          "type": "uint256"
        },
        {
          "name": "status",
          "type": "bool"
        }
      ],
      "payable": false,
      "stateMutability": "view",
      "type": "function"
    },
    {
      "constant": true,
      "inputs": [],
      "name": "owner",
      "outputs": [
        {
          "name": "",
          "type": "address"
        }
      ],
      "payable": false,
      "stateMutability": "view",
      "type": "function"
    },
    {
      "constant": true,
      "inputs": [
        {
          "name": "",
          "type": "address"
        },
        {
          "name": "",
          "type": "uint256"
        }
      ],
      "name": "auctionsBidByUser",
      "outputs": [
        {
          "name": "",
          "type": "uint256"
        }
      ],
      "payable": false,
      "stateMutability": "view",
      "type": "function"
    },
    {
      "constant": true,
      "inputs": [
        {
          "name": "",
          "type": "address"
        }
      ],
      "name": "refunds",
      "outputs": [
        {
          "name": "",
          "type": "uint256"
        }
      ],
      "payable": false,
      "stateMutability": "view",
      "type": "function"
    },
    {
      "constant": true,
      "inputs": [
        {
          "name": "",
          "type": "address"
        },
        {
          "name": "",
          "type": "uint256"
        }
      ],
      "name": "assetsAddedByUser",
      "outputs": [
        {
          "name": "",
          "type": "uint256"
        }
      ],
      "payable": false,
      "stateMutability": "view",
      "type": "function"
    },
    {
      "constant": true,
      "inputs": [
        {
          "name": "",
          "type": "address"
        },
        {
          "name": "",
          "type": "uint256"
        }
      ],
      "name": "auctionsOpenedByUser",
      "outputs": [
        {
          "name": "",
          "type": "uint256"
        }
      ],
      "payable": false,
      "stateMutability": "view",
      "type": "function"
    },
    {
      "constant": true,
      "inputs": [
        {
          "name": "",
          "type": "uint256"
        }
      ],
      "name": "assets",
      "outputs": [
        {
          "name": "ownerIdentifier",
          "type": "uint256"
        },
        {
          "name": "timestamp",
          "type": "uint256"
        },
        {
          "name": "owner",
          "type": "address"
        },
        {
          "name": "ownerFirstName",
          "type": "string"
        },
        {
          "name": "ownerLastName",
          "type": "string"
        },
        {
          "name": "name",
          "type": "string"
        },
        {
          "name": "status",
          "type": "bool"
        }
      ],
      "payable": false,
      "stateMutability": "view",
      "type": "function"
    },
    {
      "constant": true,
      "inputs": [],
      "name": "assetCount",
      "outputs": [
        {
          "name": "",
          "type": "uint256"
        }
      ],
      "payable": false,
      "stateMutability": "view",
      "type": "function"
    },
    {
      "inputs": [],
      "payable": false,
      "stateMutability": "nonpayable",
      "type": "constructor"
    },
    {
      "anonymous": false,
      "inputs": [
        {
          "indexed": false,
          "name": "id",
          "type": "uint256"
        },
        {
          "indexed": false,
          "name": "owner",
          "type": "address"
        },
        {
          "indexed": false,
          "name": "assetName",
          "type": "string"
        }
      ],
      "name": "AssetCreation",
      "type": "event"
    },
    {
      "anonymous": false,
      "inputs": [
        {
          "indexed": false,
          "name": "id",
          "type": "uint256"
        },
        {
          "indexed": false,
          "name": "name",
          "type": "string"
        },
        {
          "indexed": false,
          "name": "startPrice",
          "type": "uint256"
        }
      ],
      "name": "AuctionCreation",
      "type": "event"
    },
    {
      "anonymous": false,
      "inputs": [
        {
          "indexed": false,
          "name": "id",
          "type": "uint256"
        }
      ],
      "name": "AuctionCancelation",
      "type": "event"
    },
    {
      "anonymous": false,
      "inputs": [
        {
          "indexed": false,
          "name": "auctionId",
          "type": "uint256"
        },
        {
          "indexed": false,
          "name": "winner",
          "type": "address"
        },
        {
          "indexed": false,
          "name": "amount",
          "type": "uint256"
        }
      ],
      "name": "AuctionFinish",
      "type": "event"
    },
    {
      "anonymous": false,
      "inputs": [
        {
          "indexed": false,
          "name": "auctionId",
          "type": "uint256"
        },
        {
          "indexed": false,
          "name": "bidder",
          "type": "address"
        },
        {
          "indexed": false,
          "name": "amount",
          "type": "uint256"
        }
      ],
      "name": "BidPlacement",
      "type": "event"
    },
    {
      "constant": false,
      "inputs": [
        {
          "name": "_ownerIdentifier",
          "type": "uint256"
        },
        {
          "name": "_timestamp",
          "type": "uint256"
        },
        {
          "name": "_ownerFirstName",
          "type": "string"
        },
        {
          "name": "_ownerLastName",
          "type": "string"
        },
        {
          "name": "_assetName",
          "type": "string"
        }
      ],
      "name": "createAsset",
      "outputs": [
        {
          "name": "_assetId",
          "type": "uint256"
        }
      ],
      "payable": false,
      "stateMutability": "nonpayable",
      "type": "function"
    },
    {
      "constant": false,
      "inputs": [
        {
          "name": "_name",
          "type": "string"
        },
        {
          "name": "_description",
          "type": "string"
        },
        {
          "name": "_startTime",
          "type": "uint256"
        },
        {
          "name": "_expirationTime",
          "type": "uint256"
        },
        {
          "name": "_startPrice",
          "type": "uint256"
        },
        {
          "name": "_assetId",
          "type": "uint256"
        }
      ],
      "name": "createAuction",
      "outputs": [
        {
          "name": "_auctionId",
          "type": "uint256"
        }
      ],
      "payable": true,
      "stateMutability": "payable",
      "type": "function"
    },
    {
      "constant": true,
      "inputs": [
        {
          "name": "_assetId",
          "type": "uint256"
        }
      ],
      "name": "getAsset",
      "outputs": [
        {
          "name": "",
          "type": "uint256"
        },
        {
          "name": "",
          "type": "uint256"
        },
        {
          "name": "",
          "type": "address"
        },
        {
          "name": "",
          "type": "string"
        },
        {
          "name": "",
          "type": "string"
        },
        {
          "name": "",
          "type": "string"
        },
        {
          "name": "",
          "type": "bool"
        }
      ],
      "payable": false,
      "stateMutability": "view",
      "type": "function"
    },
    {
      "constant": true,
      "inputs": [],
      "name": "getAssetCount",
      "outputs": [
        {
          "name": "",
          "type": "uint256"
        }
      ],
      "payable": false,
      "stateMutability": "view",
      "type": "function"
    },
    {
      "constant": true,
      "inputs": [
        {
          "name": "_assetId",
          "type": "uint256"
        }
      ],
      "name": "getAssetOwnerIdentifier",
      "outputs": [
        {
          "name": "",
          "type": "uint256"
        }
      ],
      "payable": false,
      "stateMutability": "view",
      "type": "function"
    },
    {
      "constant": true,
      "inputs": [
        {
          "name": "_assetId",
          "type": "uint256"
        }
      ],
      "name": "getAssetTimestamp",
      "outputs": [
        {
          "name": "",
          "type": "uint256"
        }
      ],
      "payable": false,
      "stateMutability": "view",
      "type": "function"
    },
    {
      "constant": true,
      "inputs": [
        {
          "name": "_assetId",
          "type": "uint256"
        }
      ],
      "name": "getAssetOwner",
      "outputs": [
        {
          "name": "",
          "type": "address"
        }
      ],
      "payable": false,
      "stateMutability": "view",
      "type": "function"
    },
    {
      "constant": true,
      "inputs": [
        {
          "name": "_assetId",
          "type": "uint256"
        }
      ],
      "name": "getAssetOwnerFirstName",
      "outputs": [
        {
          "name": "",
          "type": "string"
        }
      ],
      "payable": false,
      "stateMutability": "view",
      "type": "function"
    },
    {
      "constant": true,
      "inputs": [
        {
          "name": "_assetId",
          "type": "uint256"
        }
      ],
      "name": "getAssetOwnerLastName",
      "outputs": [
        {
          "name": "",
          "type": "string"
        }
      ],
      "payable": false,
      "stateMutability": "view",
      "type": "function"
    },
    {
      "constant": true,
      "inputs": [
        {
          "name": "_assetId",
          "type": "uint256"
        }
      ],
      "name": "getAssetName",
      "outputs": [
        {
          "name": "",
          "type": "string"
        }
      ],
      "payable": false,
      "stateMutability": "view",
      "type": "function"
    },
    {
      "constant": true,
      "inputs": [
        {
          "name": "_assetId",
          "type": "uint256"
        }
      ],
      "name": "getAssetStatus",
      "outputs": [
        {
          "name": "",
          "type": "bool"
        }
      ],
      "payable": false,
      "stateMutability": "view",
      "type": "function"
    },
    {
      "constant": true,
      "inputs": [
        {
          "name": "_user",
          "type": "address"
        }
      ],
      "name": "getAssetCountForUser",
      "outputs": [
        {
          "name": "",
          "type": "uint256"
        }
      ],
      "payable": false,
      "stateMutability": "view",
      "type": "function"
    },
    {
      "constant": true,
      "inputs": [],
      "name": "getAuctionCount",
      "outputs": [
        {
          "name": "",
          "type": "uint256"
        }
      ],
      "payable": false,
      "stateMutability": "view",
      "type": "function"
    },
    {
      "constant": true,
      "inputs": [
        {
          "name": "_auctionId",
          "type": "uint256"
        }
      ],
      "name": "getAuction",
      "outputs": [
        {
          "name": "",
          "type": "string"
        },
        {
          "name": "",
          "type": "string"
        },
        {
          "name": "",
          "type": "uint256"
        },
        {
          "name": "",
          "type": "uint256"
        },
        {
          "name": "",
          "type": "uint256"
        },
        {
          "name": "",
          "type": "bool"
        },
        {
          "name": "",
          "type": "address"
        },
        {
          "name": "",
          "type": "address"
        },
        {
          "name": "",
          "type": "uint256"
        },
        {
          "name": "",
          "type": "uint256"
        },
        {
          "name": "",
          "type": "uint256"
        },
        {
          "name": "",
          "type": "uint256"
        }
      ],
      "payable": false,
      "stateMutability": "view",
      "type": "function"
    },
    {
      "constant": true,
      "inputs": [
        {
          "name": "_auctionId",
          "type": "uint256"
        }
      ],
      "name": "getAuctionName",
      "outputs": [
        {
          "name": "",
          "type": "string"
        }
      ],
      "payable": false,
      "stateMutability": "view",
      "type": "function"
    },
    {
      "constant": true,
      "inputs": [
        {
          "name": "_auctionId",
          "type": "uint256"
        }
      ],
      "name": "getAuctionDescription",
      "outputs": [
        {
          "name": "",
          "type": "string"
        }
      ],
      "payable": false,
      "stateMutability": "view",
      "type": "function"
    },
    {
      "constant": true,
      "inputs": [
        {
          "name": "_auctionId",
          "type": "uint256"
        }
      ],
      "name": "getAuctionStartTime",
      "outputs": [
        {
          "name": "",
          "type": "uint256"
        }
      ],
      "payable": false,
      "stateMutability": "view",
      "type": "function"
    },
    {
      "constant": true,
      "inputs": [
        {
          "name": "_auctionId",
          "type": "uint256"
        }
      ],
      "name": "getAuctionExpirationTime",
      "outputs": [
        {
          "name": "",
          "type": "uint256"
        }
      ],
      "payable": false,
      "stateMutability": "view",
      "type": "function"
    },
    {
      "constant": true,
      "inputs": [
        {
          "name": "_auctionId",
          "type": "uint256"
        }
      ],
      "name": "getAuctionStartPrice",
      "outputs": [
        {
          "name": "",
          "type": "uint256"
        }
      ],
      "payable": false,
      "stateMutability": "view",
      "type": "function"
    },
    {
      "constant": true,
      "inputs": [
        {
          "name": "_auctionId",
          "type": "uint256"
        }
      ],
      "name": "getAuctionStatus",
      "outputs": [
        {
          "name": "",
          "type": "bool"
        }
      ],
      "payable": false,
      "stateMutability": "view",
      "type": "function"
    },
    {
      "constant": true,
      "inputs": [
        {
          "name": "_auctionId",
          "type": "uint256"
        }
      ],
      "name": "getAuctionCurrentBidder",
      "outputs": [
        {
          "name": "",
          "type": "address"
        }
      ],
      "payable": false,
      "stateMutability": "view",
      "type": "function"
    },
    {
      "constant": true,
      "inputs": [
        {
          "name": "_auctionId",
          "type": "uint256"
        }
      ],
      "name": "getAuctionCurrentBidAmount",
      "outputs": [
        {
          "name": "",
          "type": "uint256"
        }
      ],
      "payable": false,
      "stateMutability": "view",
      "type": "function"
    },
    {
      "constant": true,
      "inputs": [
        {
          "name": "_auctionId",
          "type": "uint256"
        }
      ],
      "name": "getAuctionCurrentBidTimestamp",
      "outputs": [
        {
          "name": "",
          "type": "uint256"
        }
      ],
      "payable": false,
      "stateMutability": "view",
      "type": "function"
    },
    {
      "constant": true,
      "inputs": [
        {
          "name": "_auctionId",
          "type": "uint256"
        }
      ],
      "name": "getAuctionSeller",
      "outputs": [
        {
          "name": "",
          "type": "address"
        }
      ],
      "payable": false,
      "stateMutability": "view",
      "type": "function"
    },
    {
      "constant": true,
      "inputs": [
        {
          "name": "_auctionId",
          "type": "uint256"
        }
      ],
      "name": "getAuctionBidCount",
      "outputs": [
        {
          "name": "",
          "type": "uint256"
        }
      ],
      "payable": false,
      "stateMutability": "view",
      "type": "function"
    },
    {
      "constant": true,
      "inputs": [
        {
          "name": "_user",
          "type": "address"
        }
      ],
      "name": "getAuctionCountForUser",
      "outputs": [
        {
          "name": "",
          "type": "uint256"
        }
      ],
      "payable": false,
      "stateMutability": "view",
      "type": "function"
    },
    {
      "constant": false,
      "inputs": [
        {
          "name": "_auctionId",
          "type": "uint256"
        },
        {
          "name": "_currentBidTimestamp",
          "type": "uint256"
        },
        {
          "name": "_ownerIdentifier",
          "type": "uint256"
        },
        {
          "name": "_ownerFirstName",
          "type": "string"
        },
        {
          "name": "_ownerLastName",
          "type": "string"
        }
      ],
      "name": "placeBid",
      "outputs": [
        {
          "name": "",
          "type": "bool"
        }
      ],
      "payable": true,
      "stateMutability": "payable",
      "type": "function"
    },
    {
      "constant": false,
      "inputs": [
        {
          "name": "_auctionId",
          "type": "uint256"
        },
        {
          "name": "_expirationTime",
          "type": "uint256"
        }
      ],
      "name": "cancelAuction",
      "outputs": [
        {
          "name": "",
          "type": "bool"
        }
      ],
      "payable": false,
      "stateMutability": "nonpayable",
      "type": "function"
    },
    {
      "constant": false,
      "inputs": [
        {
          "name": "_auctionId",
          "type": "uint256"
        },
        {
          "name": "_timestamp",
          "type": "uint256"
        }
      ],
      "name": "finishAuction",
      "outputs": [
        {
          "name": "",
          "type": "bool"
        }
      ],
      "payable": false,
      "stateMutability": "nonpayable",
      "type": "function"
    },
    {
      "constant": true,
      "inputs": [],
      "name": "getRefundValue",
      "outputs": [
        {
          "name": "",
          "type": "uint256"
        }
      ],
      "payable": false,
      "stateMutability": "view",
      "type": "function"
    },
    {
      "constant": false,
      "inputs": [],
      "name": "transferRefund",
      "outputs": [],
      "payable": false,
      "stateMutability": "nonpayable",
      "type": "function"
    },
    {
      "constant": false,
      "inputs": [
        {
          "name": "_highestBidder",
          "type": "address"
        }
      ],
      "name": "transferRefundNow",
      "outputs": [],
      "payable": false,
      "stateMutability": "nonpayable",
      "type": "function"
    }
  ],
  "bytecode": "0x608060405234801561001057600080fd5b5033600860006101000a81548173ffffffffffffffffffffffffffffffffffffffff021916908373ffffffffffffffffffffffffffffffffffffffff1602179055506149af806100616000396000f3006080604052600436106101f9576000357c0100000000000000000000000000000000000000000000000000000000900463ffffffff1680630ed0b8ca146101fe578063113d3f61146102555780631491420c146102965780632158d95a1461033c57806324fc099b1461037d5780632ad71573146104235780632bff3ed81461044e5780632d2295ad146104a557806330b1bdce146104bc578063429825f61461050b578063571a26a01461054c57806359e54095146107005780635b38ae001461072b5780636fcf01111461076c5780637232d8b3146108125780637765c52c1461085357806378bd793514610898578063823a65f514610a4c57806383575dd314610a915780638d1fb81814610b6f5780638d5802e214610c8c5780638da5cb5b14610cf95780638ff80e9d14610d50578063919e84f514610db157806392ba907514610df25780639aea5a2914610e41578063a0aead4d14610eae578063aa7ac8ab14610ed9578063b107272514610f7f578063bc3da53514611025578063c44e66401461107c578063c4ab2de0146110a7578063c50c44cf14611108578063c512a81914611175578063cf35bdd0146111d6578063eac8f5b8146113a0578063eafe7a741461156a578063f5ddbb1614611595578063f8fac9b7146115d8578063fafeba4614611619578063fda09dd81461165a575b600080fd5b34801561020a57600080fd5b5061023f600480360381019080803573ffffffffffffffffffffffffffffffffffffffff169060200190929190505050611732565b6040518082815260200191505060405180910390f35b34801561026157600080fd5b506102806004803603810190808035906020019092919050505061177e565b6040518082815260200191505060405180910390f35b3480156102a257600080fd5b506102c16004803603810190808035906020019092919050505061179e565b6040518080602001828103825283818151815260200191508051906020019080838360005b838110156103015780820151818401526020810190506102e6565b50505050905090810190601f16801561032e5780820380516001836020036101000a031916815260200191505b509250505060405180910390f35b34801561034857600080fd5b5061036760048036038101908080359060200190929190505050611856565b6040518082815260200191505060405180910390f35b34801561038957600080fd5b506103a860048036038101908080359060200190929190505050611876565b6040518080602001828103825283818151815260200191508051906020019080838360005b838110156103e85780820151818401526020810190506103cd565b50505050905090810190601f1680156104155780820380516001836020036101000a031916815260200191505b509250505060405180910390f35b34801561042f57600080fd5b5061043861192e565b6040518082815260200191505060405180910390f35b34801561045a57600080fd5b5061048f600480360381019080803573ffffffffffffffffffffffffffffffffffffffff169060200190929190505050611934565b6040518082815260200191505060405180910390f35b3480156104b157600080fd5b506104ba611980565b005b3480156104c857600080fd5b506104f16004803603810190808035906020019092919080359060200190929190505050611a5d565b604051808215151515815260200191505060405180910390f35b34801561051757600080fd5b5061053660048036038101908080359060200190929190505050611fbe565b6040518082815260200191505060405180910390f35b34801561055857600080fd5b5061057760048036038101908080359060200190929190505050611fde565b604051808d73ffffffffffffffffffffffffffffffffffffffff1673ffffffffffffffffffffffffffffffffffffffff1681526020018c73ffffffffffffffffffffffffffffffffffffffff1673ffffffffffffffffffffffffffffffffffffffff16815260200180602001806020018b81526020018a81526020018981526020018881526020018781526020018681526020018581526020018415151515815260200183810383528d818151815260200191508051906020019080838360005b83811015610653578082015181840152602081019050610638565b50505050905090810190601f1680156106805780820380516001836020036101000a031916815260200191505b5083810382528c818151815260200191508051906020019080838360005b838110156106b957808201518184015260208101905061069e565b50505050905090810190601f1680156106e65780820380516001836020036101000a031916815260200191505b509e50505050505050505050505050505060405180910390f35b34801561070c57600080fd5b506107156121bb565b6040518082815260200191505060405180910390f35b34801561073757600080fd5b5061075660048036038101908080359060200190929190505050612202565b6040518082815260200191505060405180910390f35b34801561077857600080fd5b5061079760048036038101908080359060200190929190505050612222565b6040518080602001828103825283818151815260200191508051906020019080838360005b838110156107d75780820151818401526020810190506107bc565b50505050905090810190601f1680156108045780820380516001836020036101000a031916815260200191505b509250505060405180910390f35b34801561081e57600080fd5b5061083d600480360381019080803590602001909291905050506122da565b6040518082815260200191505060405180910390f35b34801561085f57600080fd5b5061087e600480360381019080803590602001909291905050506122fa565b604051808215151515815260200191505060405180910390f35b3480156108a457600080fd5b506108c360048036038101908080359060200190929190505050612327565b6040518080602001806020018d81526020018c81526020018b81526020018a1515151581526020018973ffffffffffffffffffffffffffffffffffffffff1673ffffffffffffffffffffffffffffffffffffffff1681526020018873ffffffffffffffffffffffffffffffffffffffff1673ffffffffffffffffffffffffffffffffffffffff16815260200187815260200186815260200185815260200184815260200183810383528f818151815260200191508051906020019080838360005b8381101561099f578082015181840152602081019050610984565b50505050905090810190601f1680156109cc5780820380516001836020036101000a031916815260200191505b5083810382528e818151815260200191508051906020019080838360005b83811015610a055780820151818401526020810190506109ea565b50505050905090810190601f168015610a325780820380516001836020036101000a031916815260200191505b509e50505050505050505050505050505060405180910390f35b348015610a5857600080fd5b50610a7760048036038101908080359060200190929190505050612622565b604051808215151515815260200191505060405180910390f35b610b59600480360381019080803590602001908201803590602001908080601f0160208091040260200160405190810160405280939291908181526020018383808284378201915050505050509192919290803590602001908201803590602001908080601f01602080910402602001604051908101604052809392919081815260200183838082843782019150505050505091929192908035906020019092919080359060200190929190803590602001909291908035906020019092919050505061264f565b6040518082815260200191505060405180910390f35b348015610b7b57600080fd5b50610c766004803603810190808035906020019092919080359060200190929190803590602001908201803590602001908080601f0160208091040260200160405190810160405280939291908181526020018383808284378201915050505050509192919290803590602001908201803590602001908080601f0160208091040260200160405190810160405280939291908181526020018383808284378201915050505050509192919290803590602001908201803590602001908080601f0160208091040260200160405190810160405280939291908181526020018383808284378201915050505050509192919290505050612ba5565b6040518082815260200191505060405180910390f35b348015610c9857600080fd5b50610cb760048036038101908080359060200190929190505050612e3e565b604051808273ffffffffffffffffffffffffffffffffffffffff1673ffffffffffffffffffffffffffffffffffffffff16815260200191505060405180910390f35b348015610d0557600080fd5b50610d0e612e7e565b604051808273ffffffffffffffffffffffffffffffffffffffff1673ffffffffffffffffffffffffffffffffffffffff16815260200191505060405180910390f35b348015610d5c57600080fd5b50610d9b600480360381019080803573ffffffffffffffffffffffffffffffffffffffff16906020019092919080359060200190929190505050612ea4565b6040518082815260200191505060405180910390f35b348015610dbd57600080fd5b50610ddc60048036038101908080359060200190929190505050612ed4565b6040518082815260200191505060405180910390f35b348015610dfe57600080fd5b50610e276004803603810190808035906020019092919080359060200190929190505050612ef4565b604051808215151515815260200191505060405180910390f35b348015610e4d57600080fd5b50610e6c6004803603810190808035906020019092919050505061330a565b604051808273ffffffffffffffffffffffffffffffffffffffff1673ffffffffffffffffffffffffffffffffffffffff16815260200191505060405180910390f35b348015610eba57600080fd5b50610ec361334a565b6040518082815260200191505060405180910390f35b348015610ee557600080fd5b50610f0460048036038101908080359060200190929190505050613353565b6040518080602001828103825283818151815260200191508051906020019080838360005b83811015610f44578082015181840152602081019050610f29565b50505050905090810190601f168015610f715780820380516001836020036101000a031916815260200191505b509250505060405180910390f35b348015610f8b57600080fd5b50610faa6004803603810190808035906020019092919050505061340b565b6040518080602001828103825283818151815260200191508051906020019080838360005b83811015610fea578082015181840152602081019050610fcf565b50505050905090810190601f1680156110175780820380516001836020036101000a031916815260200191505b509250505060405180910390f35b34801561103157600080fd5b50611066600480360381019080803573ffffffffffffffffffffffffffffffffffffffff1690602001909291905050506134c3565b6040518082815260200191505060405180910390f35b34801561108857600080fd5b506110916134db565b6040518082815260200191505060405180910390f35b3480156110b357600080fd5b506110f2600480360381019080803573ffffffffffffffffffffffffffffffffffffffff169060200190929190803590602001909291905050506134e5565b6040518082815260200191505060405180910390f35b34801561111457600080fd5b5061113360048036038101908080359060200190929190505050613515565b604051808273ffffffffffffffffffffffffffffffffffffffff1673ffffffffffffffffffffffffffffffffffffffff16815260200191505060405180910390f35b34801561118157600080fd5b506111c0600480360381019080803573ffffffffffffffffffffffffffffffffffffffff16906020019092919080359060200190929190505050613555565b6040518082815260200191505060405180910390f35b3480156111e257600080fd5b5061120160048036038101908080359060200190929190505050613585565b604051808881526020018781526020018673ffffffffffffffffffffffffffffffffffffffff1673ffffffffffffffffffffffffffffffffffffffff16815260200180602001806020018060200185151515158152602001848103845288818151815260200191508051906020019080838360005b83811015611291578082015181840152602081019050611276565b50505050905090810190601f1680156112be5780820380516001836020036101000a031916815260200191505b50848103835287818151815260200191508051906020019080838360005b838110156112f75780820151818401526020810190506112dc565b50505050905090810190601f1680156113245780820380516001836020036101000a031916815260200191505b50848103825286818151815260200191508051906020019080838360005b8381101561135d578082015181840152602081019050611342565b50505050905090810190601f16801561138a5780820380516001836020036101000a031916815260200191505b509a505050505050505050505060405180910390f35b3480156113ac57600080fd5b506113cb600480360381019080803590602001909291905050506137bc565b604051808881526020018781526020018673ffffffffffffffffffffffffffffffffffffffff1673ffffffffffffffffffffffffffffffffffffffff16815260200180602001806020018060200185151515158152602001848103845288818151815260200191508051906020019080838360005b8381101561145b578082015181840152602081019050611440565b50505050905090810190601f1680156114885780820380516001836020036101000a031916815260200191505b50848103835287818151815260200191508051906020019080838360005b838110156114c15780820151818401526020810190506114a6565b50505050905090810190601f1680156114ee5780820380516001836020036101000a031916815260200191505b50848103825286818151815260200191508051906020019080838360005b8381101561152757808201518184015260208101905061150c565b50505050905090810190601f1680156115545780820380516001836020036101000a031916815260200191505b509a505050505050505050505060405180910390f35b34801561157657600080fd5b5061157f613aa2565b6040518082815260200191505060405180910390f35b3480156115a157600080fd5b506115d6600480360381019080803573ffffffffffffffffffffffffffffffffffffffff169060200190929190505050613aa8565b005b3480156115e457600080fd5b5061160360048036038101908080359060200190929190505050613b86565b6040518082815260200191505060405180910390f35b34801561162557600080fd5b5061164460048036038101908080359060200190929190505050613ba6565b6040518082815260200191505060405180910390f35b611718600480360381019080803590602001909291908035906020019092919080359060200190929190803590602001908201803590602001908080601f0160208091040260200160405190810160405280939291908181526020018383808284378201915050505050509192919290803590602001908201803590602001908080601f0160208091040260200160405190810160405280939291908181526020018383808284378201915050505050509192919290505050613bc6565b604051808215151515815260200191505060405180910390f35b6000600560008373ffffffffffffffffffffffffffffffffffffffff1673ffffffffffffffffffffffffffffffffffffffff168152602001908152602001600020805490509050919050565b600060036000838152602001908152602001600020600501549050919050565b6060600360008381526020019081526020016000206002018054600181600116156101000203166002900480601f01602080910402602001604051908101604052809291908181526020018280546001816001161561010002031660029004801561184a5780601f1061181f5761010080835404028352916020019161184a565b820191906000526020600020905b81548152906001019060200180831161182d57829003601f168201915b50505050509050919050565b600060036000838152602001908152602001600020600901549050919050565b6060600260008381526020019081526020016000206005018054600181600116156101000203166002900480601f0160208091040260200160405190810160405280929190818152602001828054600181600116156101000203166002900480156119225780601f106118f757610100808354040283529160200191611922565b820191906000526020600020905b81548152906001019060200180831161190557829003601f168201915b50505050509050919050565b60015481565b6000600460008373ffffffffffffffffffffffffffffffffffffffff1673ffffffffffffffffffffffffffffffffffffffff168152602001908152602001600020805490509050919050565b6000600760003373ffffffffffffffffffffffffffffffffffffffff1673ffffffffffffffffffffffffffffffffffffffff1681526020019081526020016000205490506000811115611a5a576000600760003373ffffffffffffffffffffffffffffffffffffffff1673ffffffffffffffffffffffffffffffffffffffff168152602001908152602001600020819055503373ffffffffffffffffffffffffffffffffffffffff166108fc829081150290604051600060405180830381858888f19350505050158015611a58573d6000803e3d6000fd5b505b50565b600080611a6861472b565b6003600086815260200190815260200160002091506001151582600b0160009054906101000a900460ff161515141515611b56576040517f08c379a00000000000000000000000000000000000000000000000000000000081526004018080602001828103825260438152602001807f46696e6973682061756374696f6e206661696c65642061732061756374696f6e81526020017f206e6565647320746f2062652061637469766520746f2062652066696e69736881526020017f65642e000000000000000000000000000000000000000000000000000000000081525060600191505060405180910390fd5b816005015484111515611bf7576040517f08c379a00000000000000000000000000000000000000000000000000000000081526004018080602001828103825260388152602001807f46696e6973682061756374696f6e206661696c6564206173206578706972617481526020017f696f6e2074696d65206973206e6f7420726561636865642e000000000000000081525060400191505060405180910390fd5b600082600901541415611c2a57600082600b0160006101000a81548160ff02191690831515021790555060019250611fb6565b81600c0160006001846009015403815260200190815260200160002060c060405190810160405290816000820160009054906101000a900473ffffffffffffffffffffffffffffffffffffffff1673ffffffffffffffffffffffffffffffffffffffff1673ffffffffffffffffffffffffffffffffffffffff168152602001600182015481526020016002820154815260200160038201548152602001600482018054600181600116156101000203166002900480601f016020809104026020016040519081016040528092919081815260200182805460018160011615610100020316600290048015611d5f5780601f10611d3457610100808354040283529160200191611d5f565b820191906000526020600020905b815481529060010190602001808311611d4257829003601f168201915b50505050508152602001600582018054600181600116156101000203166002900480601f016020809104026020016040519081016040528092919081815260200182805460018160011615610100020316600290048015611e015780601f10611dd657610100808354040283529160200191611e01565b820191906000526020600020905b815481529060010190602001808311611de457829003601f168201915b5050505050815250509050611e1e82600a0154826060015161446c565b50611e2d82600a0154856144bc565b50611e4082600a0154826000015161450c565b50611e5382600a015482608001516145cc565b50611e6682600a01548260a00151614640565b50611e7682600a015460006146b4565b508160070154600760008460000160009054906101000a900473ffffffffffffffffffffffffffffffffffffffff1673ffffffffffffffffffffffffffffffffffffffff1673ffffffffffffffffffffffffffffffffffffffff16815260200190815260200160002060008282540192505081905550600082600b0160006101000a81548160ff0219169083151502179055507f6d5f542cd11abe179d932a89d2ae7e156687ee8f417eb229eb9b5a46ba5c4a978582600001518460070154604051808481526020018373ffffffffffffffffffffffffffffffffffffffff1673ffffffffffffffffffffffffffffffffffffffff168152602001828152602001935050505060405180910390a1611fb18260000160009054906101000a900473ffffffffffffffffffffffffffffffffffffffff16613aa8565b600192505b505092915050565b600060026000838152602001908152602001600020600001549050919050565b60036020528060005260406000206000915090508060000160009054906101000a900473ffffffffffffffffffffffffffffffffffffffff16908060010160009054906101000a900473ffffffffffffffffffffffffffffffffffffffff1690806002018054600181600116156101000203166002900480601f0160208091040260200160405190810160405280929190818152602001828054600181600116156101000203166002900480156120d65780601f106120ab576101008083540402835291602001916120d6565b820191906000526020600020905b8154815290600101906020018083116120b957829003601f168201915b505050505090806003018054600181600116156101000203166002900480601f0160208091040260200160405190810160405280929190818152602001828054600181600116156101000203166002900480156121745780601f1061214957610100808354040283529160200191612174565b820191906000526020600020905b81548152906001019060200180831161215757829003601f168201915b50505050509080600401549080600501549080600601549080600701549080600801549080600901549080600a01549080600b0160009054906101000a900460ff1690508c565b6000600760003373ffffffffffffffffffffffffffffffffffffffff1673ffffffffffffffffffffffffffffffffffffffff16815260200190815260200160002054905090565b600060036000838152602001908152602001600020600801549050919050565b6060600260008381526020019081526020016000206004018054600181600116156101000203166002900480601f0160208091040260200160405190810160405280929190818152602001828054600181600116156101000203166002900480156122ce5780601f106122a3576101008083540402835291602001916122ce565b820191906000526020600020905b8154815290600101906020018083116122b157829003601f168201915b50505050509050919050565b600060036000838152602001908152602001600020600701549050919050565b600060036000838152602001908152602001600020600b0160009054906101000a900460ff169050919050565b606080600080600080600080600080600080612341614778565b600360008f815260200190815260200160002061018060405190810160405290816000820160009054906101000a900473ffffffffffffffffffffffffffffffffffffffff1673ffffffffffffffffffffffffffffffffffffffff1673ffffffffffffffffffffffffffffffffffffffff1681526020016001820160009054906101000a900473ffffffffffffffffffffffffffffffffffffffff1673ffffffffffffffffffffffffffffffffffffffff1673ffffffffffffffffffffffffffffffffffffffff168152602001600282018054600181600116156101000203166002900480601f0160208091040260200160405190810160405280929190818152602001828054600181600116156101000203166002900480156124a65780601f1061247b576101008083540402835291602001916124a6565b820191906000526020600020905b81548152906001019060200180831161248957829003601f168201915b50505050508152602001600382018054600181600116156101000203166002900480601f0160208091040260200160405190810160405280929190818152602001828054600181600116156101000203166002900480156125485780601f1061251d57610100808354040283529160200191612548565b820191906000526020600020905b81548152906001019060200180831161252b57829003601f168201915b50505050508152602001600482015481526020016005820154815260200160068201548152602001600782015481526020016008820154815260200160098201548152602001600a8201548152602001600b820160009054906101000a900460ff16151515158152505090508060400151816060015182608001518360a001518460c00151856101600151866000015187602001518860e001518961010001518a61012001518b61014001518b9b508a9a509c509c509c509c509c509c509c509c509c509c509c509c505091939597999b5091939597999b565b60006002600083815260200190815260200160002060060160009054906101000a900460ff169050919050565b60008360001015156126ef576040517f08c379a000000000000000000000000000000000000000000000000000000000815260040180806020018281038252602f8152602001807f45787069726174696f6e2074696d652063616e6e6f742062652073657420746f81526020017f207a65726f206f72206c6f7765722e000000000000000000000000000000000081525060400191505060405180910390fd5b82600010151561278d576040517f08c379a000000000000000000000000000000000000000000000000000000000815260040180806020018281038252602b8152602001807f53746172742070726963652063616e6e6f742062652073657420746f207a657281526020017f6f206f72206c6f7765722e00000000000000000000000000000000000000000081525060400191505060405180910390fd5b600015156002600084815260200190815260200160002060060160009054906101000a900460ff161515141515612878576040517f08c379a00000000000000000000000000000000000000000000000000000000081526004018080602001828103825260488152602001807f41737365742063616e6e6f742062652061756374696f6e65642061732069742081526020017f697320616c726561647920696e20616e6f746865722061756374696f6e20726981526020017f676874206e6f772e00000000000000000000000000000000000000000000000081525060600191505060405180910390fd5b60016000815480929190600101919050559050336003600083815260200190815260200160002060000160006101000a81548173ffffffffffffffffffffffffffffffffffffffff021916908373ffffffffffffffffffffffffffffffffffffffff160217905550336003600083815260200190815260200160002060010160006101000a81548173ffffffffffffffffffffffffffffffffffffffff021916908373ffffffffffffffffffffffffffffffffffffffff1602179055508660036000838152602001908152602001600020600201908051906020019061295f929190614808565b508560036000838152602001908152602001600020600301908051906020019061298a929190614808565b508460036000838152602001908152602001600020600401819055508385016003600083815260200190815260200160002060050181905550826003600083815260200190815260200160002060060181905550826003600083815260200190815260200160002060070181905550846003600083815260200190815260200160002060080181905550600060036000838152602001908152602001600020600901819055508160036000838152602001908152602001600020600a0181905550600160036000838152602001908152602001600020600b0160006101000a81548160ff021916908315150217905550612a858260016146b4565b50600560003373ffffffffffffffffffffffffffffffffffffffff1673ffffffffffffffffffffffffffffffffffffffff1681526020019081526020016000208190806001815401808255809150509060018203906000526020600020016000909192909190915055507f9092e235a321fdb26d4b8ab9ef34730f1dd9171563a3f11bb70b17925d3adcd98188856040518084815260200180602001838152602001828103825284818151815260200191508051906020019080838360005b83811015612b5f578082015181840152602081019050612b44565b50505050905090810190601f168015612b8c5780820380516001836020036101000a031916815260200191505b5094505050505060405180910390a19695505050505050565b6000806000815480929190600101919050559050856002600083815260200190815260200160002060000181905550846002600083815260200190815260200160002060010181905550336002600083815260200190815260200160002060020160006101000a81548173ffffffffffffffffffffffffffffffffffffffff021916908373ffffffffffffffffffffffffffffffffffffffff16021790555083600260008381526020019081526020016000206003019080519060200190612c6e929190614808565b5082600260008381526020019081526020016000206004019080519060200190612c99929190614808565b5081600260008381526020019081526020016000206005019080519060200190612cc4929190614808565b5060006002600083815260200190815260200160002060060160006101000a81548160ff021916908315150217905550600460003373ffffffffffffffffffffffffffffffffffffffff1673ffffffffffffffffffffffffffffffffffffffff1681526020019081526020016000208190806001815401808255809150509060018203906000526020600020016000909192909190915055507f7ff7675d6ac9e4dd7316cc8601efa0c6e0a9537b093048c5c8771c44ef963fe3813384604051808481526020018373ffffffffffffffffffffffffffffffffffffffff1673ffffffffffffffffffffffffffffffffffffffff16815260200180602001828103825283818151815260200191508051906020019080838360005b83811015612df9578082015181840152602081019050612dde565b50505050905090810190601f168015612e265780820380516001836020036101000a031916815260200191505b5094505050505060405180910390a195945050505050565b60006002600083815260200190815260200160002060020160009054906101000a900473ffffffffffffffffffffffffffffffffffffffff169050919050565b600860009054906101000a900473ffffffffffffffffffffffffffffffffffffffff1681565b600660205281600052604060002081815481101515612ebf57fe5b90600052602060002001600091509150505481565b600060036000838152602001908152602001600020600401549050919050565b6000806000612f0161472b565b6000866003600082815260200190815260200160002060000160009054906101000a900473ffffffffffffffffffffffffffffffffffffffff1673ffffffffffffffffffffffffffffffffffffffff163373ffffffffffffffffffffffffffffffffffffffff16141515613003576040517f08c379a000000000000000000000000000000000000000000000000000000000815260040180806020018281038252602c8152602001807f4f6e6c792073656c6c657220697320616c6c6f77656420746f2075736520746881526020017f6973206f7065726174696f6e000000000000000000000000000000000000000081525060400191505060405180910390fd5b60036000898152602001908152602001600020945084600901549350600084111561325c5784600c01600060018603815260200190815260200160002060c060405190810160405290816000820160009054906101000a900473ffffffffffffffffffffffffffffffffffffffff1673ffffffffffffffffffffffffffffffffffffffff1673ffffffffffffffffffffffffffffffffffffffff168152602001600182015481526020016002820154815260200160038201548152602001600482018054600181600116156101000203166002900480601f0160208091040260200160405190810160405280929190818152602001828054600181600116156101000203166002900480156131595780601f1061312e57610100808354040283529160200191613159565b820191906000526020600020905b81548152906001019060200180831161313c57829003601f168201915b50505050508152602001600582018054600181600116156101000203166002900480601f0160208091040260200160405190810160405280929190818152602001828054600181600116156101000203166002900480156131fb5780601f106131d0576101008083540402835291602001916131fb565b820191906000526020600020905b8154815290600101906020018083116131de57829003601f168201915b5050505050815250509250826020015160076000856000015173ffffffffffffffffffffffffffffffffffffffff1673ffffffffffffffffffffffffffffffffffffffff168152602001908152602001600020600082825401925050819055505b868560050181905550600085600b0160006101000a81548160ff0219169083151502179055506002600086600a01548152602001908152602001600020915060008260060160006101000a81548160ff0219169083151502179055507e7c2b5519e67ff04e78fbc7f5170a67b383d62b89d2f408978178397f7e4d2f886040518082815260200191505060405180910390a16132fb8360000151613aa8565b60019550505050505092915050565b60006003600083815260200190815260200160002060010160009054906101000a900473ffffffffffffffffffffffffffffffffffffffff169050919050565b60008054905090565b6060600360008381526020019081526020016000206003018054600181600116156101000203166002900480601f0160208091040260200160405190810160405280929190818152602001828054600181600116156101000203166002900480156133ff5780601f106133d4576101008083540402835291602001916133ff565b820191906000526020600020905b8154815290600101906020018083116133e257829003601f168201915b50505050509050919050565b6060600260008381526020019081526020016000206003018054600181600116156101000203166002900480601f0160208091040260200160405190810160405280929190818152602001828054600181600116156101000203166002900480156134b75780601f1061348c576101008083540402835291602001916134b7565b820191906000526020600020905b81548152906001019060200180831161349a57829003601f168201915b50505050509050919050565b60076020528060005260406000206000915090505481565b6000600154905090565b60046020528160005260406000208181548110151561350057fe5b90600052602060002001600091509150505481565b60006003600083815260200190815260200160002060000160009054906101000a900473ffffffffffffffffffffffffffffffffffffffff169050919050565b60056020528160005260406000208181548110151561357057fe5b90600052602060002001600091509150505481565b60026020528060005260406000206000915090508060000154908060010154908060020160009054906101000a900473ffffffffffffffffffffffffffffffffffffffff1690806003018054600181600116156101000203166002900480601f0160208091040260200160405190810160405280929190818152602001828054600181600116156101000203166002900480156136635780601f1061363857610100808354040283529160200191613663565b820191906000526020600020905b81548152906001019060200180831161364657829003601f168201915b505050505090806004018054600181600116156101000203166002900480601f0160208091040260200160405190810160405280929190818152602001828054600181600116156101000203166002900480156137015780601f106136d657610100808354040283529160200191613701565b820191906000526020600020905b8154815290600101906020018083116136e457829003601f168201915b505050505090806005018054600181600116156101000203166002900480601f01602080910402602001604051908101604052809291908181526020018280546001816001161561010002031660029004801561379f5780601f106137745761010080835404028352916020019161379f565b820191906000526020600020905b81548152906001019060200180831161378257829003601f168201915b5050505050908060060160009054906101000a900460ff16905087565b6000806000606080606060006137d0614888565b600260008a815260200190815260200160002060e0604051908101604052908160008201548152602001600182015481526020016002820160009054906101000a900473ffffffffffffffffffffffffffffffffffffffff1673ffffffffffffffffffffffffffffffffffffffff1673ffffffffffffffffffffffffffffffffffffffff168152602001600382018054600181600116156101000203166002900480601f0160208091040260200160405190810160405280929190818152602001828054600181600116156101000203166002900480156138f25780601f106138c7576101008083540402835291602001916138f2565b820191906000526020600020905b8154815290600101906020018083116138d557829003601f168201915b50505050508152602001600482018054600181600116156101000203166002900480601f0160208091040260200160405190810160405280929190818152602001828054600181600116156101000203166002900480156139945780601f1061396957610100808354040283529160200191613994565b820191906000526020600020905b81548152906001019060200180831161397757829003601f168201915b50505050508152602001600582018054600181600116156101000203166002900480601f016020809104026020016040519081016040528092919081815260200182805460018160011615610100020316600290048015613a365780601f10613a0b57610100808354040283529160200191613a36565b820191906000526020600020905b815481529060010190602001808311613a1957829003601f168201915b505050505081526020016006820160009054906101000a900460ff1615151515815250509050806000015181602001518260400151836060015184608001518560a001518660c00151839350829250819150975097509750975097509750975050919395979092949650565b60005481565b6000600760008373ffffffffffffffffffffffffffffffffffffffff1673ffffffffffffffffffffffffffffffffffffffff1681526020019081526020016000205490506000811115613b82576000600760008473ffffffffffffffffffffffffffffffffffffffff1673ffffffffffffffffffffffffffffffffffffffff168152602001908152602001600020819055508173ffffffffffffffffffffffffffffffffffffffff166108fc829081150290604051600060405180830381858888f19350505050158015613b80573d6000803e3d6000fd5b505b5050565b600060036000838152602001908152602001600020600601549050919050565b600060026000838152602001908152602001600020600101549050919050565b6000806000613bd361472b565b8888613bdd614778565b6003600084815260200190815260200160002061018060405190810160405290816000820160009054906101000a900473ffffffffffffffffffffffffffffffffffffffff1673ffffffffffffffffffffffffffffffffffffffff1673ffffffffffffffffffffffffffffffffffffffff1681526020016001820160009054906101000a900473ffffffffffffffffffffffffffffffffffffffff1673ffffffffffffffffffffffffffffffffffffffff1673ffffffffffffffffffffffffffffffffffffffff168152602001600282018054600181600116156101000203166002900480601f016020809104026020016040519081016040528092919081815260200182805460018160011615610100020316600290048015613d425780601f10613d1757610100808354040283529160200191613d42565b820191906000526020600020905b815481529060010190602001808311613d2557829003601f168201915b50505050508152602001600382018054600181600116156101000203166002900480601f016020809104026020016040519081016040528092919081815260200182805460018160011615610100020316600290048015613de45780601f10613db957610100808354040283529160200191613de4565b820191906000526020600020905b815481529060010190602001808311613dc757829003601f168201915b50505050508152602001600482015481526020016005820154815260200160068201548152602001600782015481526020016008820154815260200160098201548152602001600a8201548152602001600b820160009054906101000a900460ff16151515158152505090508060a0015182101515613ef1576040517f08c379a00000000000000000000000000000000000000000000000000000000081526004018080602001828103825260358152602001807f54686973206f7065726174696f6e2073686f756c6420626520706572666f726d81526020017f65642069662061756374696f6e206973206c697665000000000000000000000081525060400191505060405180910390fd5b600360008d8152602001908152602001600020955085600701543410151515613fce576040517f08c379a00000000000000000000000000000000000000000000000000000000081526004018080602001828103825260518152602001807f42696420706c6163656d656e74206661696c65642061732074686520616d6f7581526020017f6e7420746861742069732073656e7420617320626964206973206c6f7765722081526020017f7468616e2063757272656e74206269642e00000000000000000000000000000081525060600191505060405180910390fd5b85600901600081548092919060010191905055945060c0604051908101604052803373ffffffffffffffffffffffffffffffffffffffff1681526020013481526020018c81526020018b81526020018a81526020018981525086600c01600087815260200190815260200160002060008201518160000160006101000a81548173ffffffffffffffffffffffffffffffffffffffff021916908373ffffffffffffffffffffffffffffffffffffffff16021790555060208201518160010155604082015181600201556060820151816003015560808201518160040190805190602001906140bd9291906148de565b5060a08201518160050190805190602001906140da9291906148de565b50905050338660010160006101000a81548173ffffffffffffffffffffffffffffffffffffffff021916908373ffffffffffffffffffffffffffffffffffffffff1602179055503486600701819055508a8660080181905550600660003373ffffffffffffffffffffffffffffffffffffffff1673ffffffffffffffffffffffffffffffffffffffff1681526020019081526020016000208c908060018154018082558091505090600182039060005260206000200160009091929091909150555060008511156143e65785600c01600060018703815260200190815260200160002060c060405190810160405290816000820160009054906101000a900473ffffffffffffffffffffffffffffffffffffffff1673ffffffffffffffffffffffffffffffffffffffff1673ffffffffffffffffffffffffffffffffffffffff168152602001600182015481526020016002820154815260200160038201548152602001600482018054600181600116156101000203166002900480601f0160208091040260200160405190810160405280929190818152602001828054600181600116156101000203166002900480156142d65780601f106142ab576101008083540402835291602001916142d6565b820191906000526020600020905b8154815290600101906020018083116142b957829003601f168201915b50505050508152602001600582018054600181600116156101000203166002900480601f0160208091040260200160405190810160405280929190818152602001828054600181600116156101000203166002900480156143785780601f1061434d57610100808354040283529160200191614378565b820191906000526020600020905b81548152906001019060200180831161435b57829003601f168201915b5050505050815250509350836020015160076000866000015173ffffffffffffffffffffffffffffffffffffffff1673ffffffffffffffffffffffffffffffffffffffff168152602001908152602001600020600082825401925050819055506143e58460000151613aa8565b5b7fd8fc4137b35ccaca59bb16d527fe8c54a493578f4a03f7944fa768506465e6548c3334604051808481526020018373ffffffffffffffffffffffffffffffffffffffff1673ffffffffffffffffffffffffffffffffffffffff168152602001828152602001935050505060405180910390a16001965050505050505095945050505050565b60008060026000858152602001908152602001600020600001541415156144b157816002600085815260200190815260200160002060000181905550600190506144b6565b600090505b92915050565b60008060026000858152602001908152602001600020600101541415156145015781600260008581526020019081526020016000206001018190555060019050614506565b600090505b92915050565b6000806002600085815260200190815260200160002060020160009054906101000a900473ffffffffffffffffffffffffffffffffffffffff1673ffffffffffffffffffffffffffffffffffffffff161415156145c157816002600085815260200190815260200160002060020160006101000a81548173ffffffffffffffffffffffffffffffffffffffff021916908373ffffffffffffffffffffffffffffffffffffffff160217905550600190506145c6565b600090505b92915050565b60008060026000858152602001908152602001600020600301805460018160011615610100020316600290049050141515614635578160026000858152602001908152602001600020600301908051906020019061462b929190614808565b506001905061463a565b600090505b92915050565b600080600260008581526020019081526020016000206004018054600181600116156101000203166002900490501415156146a9578160026000858152602001908152602001600020600401908051906020019061469f929190614808565b50600190506146ae565b600090505b92915050565b6000806002600085815260200190815260200160002060050180546001816001161561010002031660029004905014151561472057816002600085815260200190815260200160002060060160006101000a81548160ff02191690831515021790555060019050614725565b600090505b92915050565b60c060405190810160405280600073ffffffffffffffffffffffffffffffffffffffff16815260200160008152602001600081526020016000815260200160608152602001606081525090565b61018060405190810160405280600073ffffffffffffffffffffffffffffffffffffffff168152602001600073ffffffffffffffffffffffffffffffffffffffff1681526020016060815260200160608152602001600081526020016000815260200160008152602001600081526020016000815260200160008152602001600081526020016000151581525090565b828054600181600116156101000203166002900490600052602060002090601f016020900481019282601f1061484957805160ff1916838001178555614877565b82800160010185558215614877579182015b8281111561487657825182559160200191906001019061485b565b5b509050614884919061495e565b5090565b60e0604051908101604052806000815260200160008152602001600073ffffffffffffffffffffffffffffffffffffffff1681526020016060815260200160608152602001606081526020016000151581525090565b828054600181600116156101000203166002900490600052602060002090601f016020900481019282601f1061491f57805160ff191683800117855561494d565b8280016001018555821561494d579182015b8281111561494c578251825591602001919060010190614931565b5b50905061495a919061495e565b5090565b61498091905b8082111561497c576000816000905550600101614964565b5090565b905600a165627a7a7230582034571c57530ec11fe5365273d526a00262f101d28f371d860786c08289e09f140029",
  "source": "pragma solidity ^0.4.22;\n\ncontract ConceptAuction {\n\n    struct Asset {\n        uint256 ownerIdentifier;//TC kimlik gibi\n        uint256 timestamp;\n        address owner;\n        string ownerFirstName;\n        string ownerLastName;\n        string name;\n        bool status;//In auction or not\n    }\n\n    struct Bid {\n        address bidder;\n        uint256 amount;\n        uint256 timestamp;\n        uint256 ownerIdentifier;//TC kimlik gibi\n        string ownerFirstName;\n        string ownerLastName;\n    }\n\n    struct Auction {\n        address seller;\n        address currentBidBidder;\n        string name;\n        string description;\n        uint256 startTime;\n        uint256 expirationTime;\n        uint256 startPrice;\n        uint256 currentBidAmount;\n        uint256 currentBidTimestamp;\n        uint256 bidCount;\n        uint256 assetIdentifier;\n        bool status;//Active or not\n        mapping (uint256 => Bid) bids;\n    }\n\n    uint256 public assetCount;\n    uint256 public auctionCount;\n\n    mapping(uint256 => Asset) public assets;\n    mapping(uint256 => Auction) public auctions;\n    mapping(address => uint256[]) public assetsAddedByUser;\n    mapping(address => uint256[]) public auctionsOpenedByUser;\n    mapping(address => uint256[]) public auctionsBidByUser;\n    mapping(address => uint256) public refunds;\n\n    address public owner;\n\n    // Events that will be checked by DAPPs\n    event AssetCreation(uint256 id, address owner, string assetName);\n    event AuctionCreation(uint256 id, string name, uint256 startPrice);\n    event AuctionCancelation(uint256 id);\n    event AuctionFinish(uint256 auctionId, address winner, uint256 amount);\n    event BidPlacement(uint auctionId, address bidder, uint256 amount);\n\n    modifier onlyOwner() {\n        require(msg.sender == owner, \"Only owner is allowed to use this operation\");\n        _;\n    }\n\n    modifier onlySeller(uint _auctionId) {\n        require(msg.sender == auctions[_auctionId].seller, \"Only seller is allowed to use this operation\");\n        _;\n    }\n\n    modifier onlyLive(uint _auctionId, uint _currentBidTimestamp) {\n        Auction memory current = auctions[_auctionId];\n        require(_currentBidTimestamp < current.expirationTime, \"This operation should be performed if auction is live\");\n        _;\n    }\n\n    constructor() public {\n        owner = msg.sender;\n    }\n\n    // Maybe we can add default fallback here\n    function createAsset(\n        uint256  _ownerIdentifier, uint256 _timestamp, string _ownerFirstName, string _ownerLastName,\n        string _assetName) public returns (uint256 _assetId) {\n\n        _assetId = assetCount++;\n        assets[_assetId].ownerIdentifier = _ownerIdentifier;\n        assets[_assetId].timestamp = _timestamp;\n        assets[_assetId].owner = msg.sender;\n        assets[_assetId].ownerFirstName = _ownerFirstName;\n        assets[_assetId].ownerLastName = _ownerLastName;\n        assets[_assetId].name = _assetName;\n        assets[_assetId].status = false;\n\n        assetsAddedByUser[msg.sender].push(_assetId);\n\n        emit AssetCreation(_assetId, msg.sender, _assetName);\n    }\n    \n    function createAuction(\n        string _name, string _description,\n        uint256 _startTime, uint256 _expirationTime,\n        uint256 _startPrice, uint256 _assetId) public payable returns (uint256 _auctionId) {\n\n        require(0 < _expirationTime, \"Expiration time cannot be set to zero or lower.\");\n        require(0 < _startPrice, \"Start price cannot be set to zero or lower.\");\n        require(assets[_assetId].status == false, \"Asset cannot be auctioned as it is already in another auction right now.\");\n\n        _auctionId = auctionCount++;\n        auctions[_auctionId].seller = msg.sender;\n        auctions[_auctionId].currentBidBidder = msg.sender;\n        auctions[_auctionId].name = _name;\n        auctions[_auctionId].description = _description;\n        auctions[_auctionId].startTime = _startTime;\n        auctions[_auctionId].expirationTime = (_startTime + _expirationTime);\n        auctions[_auctionId].startPrice = _startPrice;\n        auctions[_auctionId].currentBidAmount = _startPrice;\n        auctions[_auctionId].currentBidTimestamp = _startTime;\n        auctions[_auctionId].bidCount = 0;\n        auctions[_auctionId].assetIdentifier = _assetId;\n        auctions[_auctionId].status = true;        \n        setAssetStatus(_assetId,true);\n\n        auctionsOpenedByUser[msg.sender].push(_auctionId);\n\n        emit AuctionCreation(_auctionId, _name, _startPrice);\n    }\n\n    //Asset related getters\n    function getAsset(uint256 _assetId) public view returns(\n        uint256,uint256,address,string,string,string,bool) {\n        Asset memory current = assets[_assetId];\n        return (\n            current.ownerIdentifier,\n            current.timestamp,\n            current.owner,\n            current.ownerFirstName,\n            current.ownerLastName,\n            current.name,\n            current.status\n            );\n    }\n\n    function getAssetCount() public view returns(uint256){\n        return assetCount;\n    }\n\n    function getAssetOwnerIdentifier(uint256 _assetId) public view returns(uint256) {\n        return assets[_assetId].ownerIdentifier;\n    }\n\n    function getAssetTimestamp(uint256 _assetId) public view returns(uint256) {\n        return assets[_assetId].timestamp;\n    }\n\n    function getAssetOwner(uint256 _assetId) public view returns(address) {\n        return assets[_assetId].owner;\n    }\n\n    function getAssetOwnerFirstName(uint256 _assetId) public view returns(string) {\n        return assets[_assetId].ownerFirstName;\n    }\n\n    function getAssetOwnerLastName(uint256 _assetId) public view returns(string) {\n        return assets[_assetId].ownerLastName;\n    }\n\n    function getAssetName(uint256 _assetId) public view returns(string) {\n        return assets[_assetId].name;\n    }\n\n    function getAssetStatus(uint256 _assetId) public view returns(bool) {\n        return assets[_assetId].status;\n    }\n\n    function getAssetCountForUser(address _user) public view returns (uint256) {\n        return assetsAddedByUser[_user].length;\n    }\n\n    //Asset related setters\n    //Maybe add onlyContract like a limiter\n    //Transferlerde alan kii ilk onaylama, onaylamadan sonra\n    function setAssetOwnerIdentifier(uint256 _assetId, uint _newAssetOwnerIdentifier) private returns (bool) {\n        if(assets[_assetId].ownerIdentifier != 0){\n            assets[_assetId].ownerIdentifier = _newAssetOwnerIdentifier;\n            return true;\n        }else{\n            return false;\n        }\n    }\n\n    function setAssetTimestamp(uint256 _assetId, uint256 _timestamp) private returns (bool) {\n        if(assets[_assetId].timestamp != 0){\n            assets[_assetId].timestamp = _timestamp;\n            return true;\n        }else{\n            return false;\n        }\n    }\n    \n    function setOwner(uint256 _assetId, address _newOwner) private returns (bool) {\n        if(assets[_assetId].owner != 0){\n            assets[_assetId].owner = _newOwner;\n            return true;\n        }else{\n            return false;\n        }\n    }\n\n    function setAssetOwnerFirstName(uint256 _assetId, string _newAssetOwnerFirstName) private returns (bool) {\n        if(bytes(assets[_assetId].ownerFirstName).length != 0){\n            assets[_assetId].ownerFirstName = _newAssetOwnerFirstName;\n            return true;\n        }else{\n            return false;\n        }\n    }\n\n    function setAssetOwnerLastName(uint256 _assetId, string _newAssetOwnerLastName) private returns (bool) {\n        if(bytes(assets[_assetId].ownerLastName).length != 0){\n            assets[_assetId].ownerLastName = _newAssetOwnerLastName;\n            return true;\n        }else{\n            return false;\n        }\n    }\n\n    function setAssetStatus(uint256 _assetId, bool _status) private returns (bool) {\n        if(bytes(assets[_assetId].name).length != 0){\n            assets[_assetId].status = _status;\n            return true;\n        }else{\n            return false;\n        }\n    }\n\n    //Auction related getters\n    function getAuctionCount() public view returns(uint256) {\n        return auctionCount;\n    }\n\n    function getAuction(uint256 _auctionId) public view returns(\n        string,string,uint256,uint256,uint256,bool,address,address,uint256,uint256,uint256,uint256) {\n        Auction memory current = auctions[_auctionId];\n        return (\n            current.name,\n            current.description,\n            current.startTime,\n            current.expirationTime,\n            current.startPrice,\n            current.status,\n            current.seller,\n            current.currentBidBidder,\n            current.currentBidAmount,\n            current.currentBidTimestamp,\n            current.bidCount,\n            current.assetIdentifier\n            );\n    }\n\n    function getAuctionName(uint256 _auctionId) public view returns(string) {\n        return auctions[_auctionId].name;\n    }\n\n    function getAuctionDescription(uint256 _auctionId) public view returns(string) {\n        return auctions[_auctionId].description;\n    }\n\n    function getAuctionStartTime(uint256 _auctionId) public view returns(uint256) {\n        return auctions[_auctionId].startTime;\n    }\n\n    function getAuctionExpirationTime(uint256 _auctionId) public view returns(uint256) {\n        return auctions[_auctionId].expirationTime;\n    }\n\n    function getAuctionStartPrice(uint256 _auctionId) public view returns(uint256) {\n        return auctions[_auctionId].startPrice;\n    }\n\n    function getAuctionStatus(uint256 _auctionId) public view returns (bool) {\n        return auctions[_auctionId].status;\n    }\n\n    function getAuctionCurrentBidder(uint256 _auctionId) public view returns(address) {\n        return auctions[_auctionId].currentBidBidder;\n    }\n\n    function getAuctionCurrentBidAmount(uint256 _auctionId) public view returns(uint256) {\n        return auctions[_auctionId].currentBidAmount;\n    }\n\n    function getAuctionCurrentBidTimestamp(uint256 _auctionId) public view returns(uint256) {\n        return auctions[_auctionId].currentBidTimestamp;\n    }\n\n    function getAuctionSeller(uint256 _auctionId) public view returns(address) {\n        return auctions[_auctionId].seller;\n    }\n\n    function getAuctionBidCount(uint256 _auctionId) public view returns(uint256) {\n        return auctions[_auctionId].bidCount;\n    }\n\n    function getAuctionCountForUser(address _user) public view returns (uint256) {\n        return auctionsOpenedByUser[_user].length;\n    }\n\n    //Auction related setters\n    function placeBid(\n        uint256 _auctionId, uint256 _currentBidTimestamp, uint256 _ownerIdentifier,\n        string _ownerFirstName, string _ownerLastName) public payable onlyLive(_auctionId, _currentBidTimestamp) returns (bool) {\n        Auction storage currentAuction = auctions[_auctionId];\n        require(\n            msg.value >= currentAuction.currentBidAmount,\n            \"Bid placement failed as the amount that is sent as bid is lower than current bid.\"\n        );\n\n        uint256 bidId = currentAuction.bidCount++;\n        currentAuction.bids[bidId] = Bid(msg.sender, msg.value, _currentBidTimestamp, _ownerIdentifier, _ownerFirstName, _ownerLastName);\n\n        currentAuction.currentBidBidder = msg.sender;\n        currentAuction.currentBidAmount = msg.value;\n        currentAuction.currentBidTimestamp = _currentBidTimestamp;\n\n        auctionsBidByUser[msg.sender].push(_auctionId);\n\n        if (bidId > 0) {\n            Bid memory previousBid = currentAuction.bids[bidId - 1];\n            refunds[previousBid.bidder] += previousBid.amount;\n\n            transferRefundNow(previousBid.bidder);\n        }\n\n        emit BidPlacement(_auctionId, msg.sender, msg.value);\n\n        return true;\n    }\n\n    function cancelAuction(uint256 _auctionId, uint256 _expirationTime) public onlySeller(_auctionId) returns (bool) {\n        Auction storage currentAuction = auctions[_auctionId];\n        uint256 bidCount = currentAuction.bidCount;\n\n        if (bidCount > 0) {\n            Bid memory highestBid = currentAuction.bids[bidCount - 1];\n            refunds[highestBid.bidder] += highestBid.amount;\n        }\n        currentAuction.expirationTime = _expirationTime;\n        currentAuction.status = false;\n\n        Asset storage currentAsset = assets[currentAuction.assetIdentifier];\n        currentAsset.status = false;\n\n        emit AuctionCancelation(_auctionId);\n\n        transferRefundNow(highestBid.bidder);\n        \n        return true;\n    }\n\n    function finishAuction(uint256 _auctionId, uint256 _timestamp) public returns (bool) {\n        Auction storage currentAuction = auctions[_auctionId];\n\n        require(currentAuction.status == true, \"Finish auction failed as auction needs to be active to be finished.\");\n        require(_timestamp > currentAuction.expirationTime, \"Finish auction failed as expiration time is not reached.\");\n\n        if (currentAuction.bidCount == 0) {\n            currentAuction.status = false;\n            return true;\n        } else {\n            Bid memory highestBid = currentAuction.bids[currentAuction.bidCount - 1];\n            \n            setAssetOwnerIdentifier(currentAuction.assetIdentifier, highestBid.ownerIdentifier);\n            setAssetTimestamp(currentAuction.assetIdentifier, _timestamp);\n            setOwner(currentAuction.assetIdentifier, highestBid.bidder);\n            setAssetOwnerFirstName(currentAuction.assetIdentifier, highestBid.ownerFirstName);\n            setAssetOwnerLastName(currentAuction.assetIdentifier, highestBid.ownerLastName);\n            setAssetStatus(currentAuction.assetIdentifier, false);\n\n            refunds[currentAuction.seller] += currentAuction.currentBidAmount;\n            currentAuction.status = false;\n\n            emit AuctionFinish(_auctionId, highestBid.bidder, currentAuction.currentBidAmount);\n            \n            transferRefundNow(currentAuction.seller);\n\n            return true;\n        }\n    }\n\n    //Refund related methods\n    function getRefundValue() public view returns (uint256) {\n        return refunds[msg.sender];\n    }\n\n    function transferRefund() public {\n        uint256 refundAmount = refunds[msg.sender];\n        if (refundAmount > 0) {\n            refunds[msg.sender] = 0;\n            msg.sender.transfer(refundAmount);\n        }\n    }\n\n    function transferRefundNow(address _highestBidder) public {\n        uint256 refundAmount = refunds[_highestBidder];\n        if (refundAmount > 0) {\n            refunds[_highestBidder] = 0;\n            _highestBidder.transfer(refundAmount);\n        }\n    }\n}\n",
  "sourcePath": "/Users/birkandenizer/conceptAuction/contracts/ConceptAuction.sol",
  "compiler": {
    "name": "solc",
    "version": "0.4.23+commit.124ca40d.Emscripten.clang"
  },
  "schemaVersion": "2.0.0",
  "updatedAt": "2018-08-18T16:49:36.280Z"
}