{
  "contractName": "ConceptAuction",
  "abi": [
    {
      "constant": true,
      "inputs": [],
      "name": "auctionCount",
      "outputs": [
        {
          "name": "",
          "type": "uint256"
        }
      ],
      "payable": false,
      "stateMutability": "view",
      "type": "function"
    },
    {
      "constant": true,
      "inputs": [
        {
          "name": "",
          "type": "uint256"
        }
      ],
      "name": "auctions",
      "outputs": [
        {
          "name": "seller",
          "type": "address"
        },
        {
          "name": "currentBidBidder",
          "type": "address"
        },
        {
          "name": "name",
          "type": "string"
        },
        {
          "name": "description",
          "type": "string"
        },
        {
          "name": "startTime",
          "type": "uint256"
        },
        {
          "name": "expirationTime",
          "type": "uint256"
        },
        {
          "name": "startPrice",
          "type": "uint256"
        },
        {
          "name": "currentBidAmount",
          "type": "uint256"
        },
        {
          "name": "currentBidTimestamp",
          "type": "uint256"
        },
        {
          "name": "bidCount",
          "type": "uint256"
        },
        {
          "name": "assetIdentifier",
          "type": "uint256"
        },
        {
          "name": "status",
          "type": "bool"
        }
      ],
      "payable": false,
      "stateMutability": "view",
      "type": "function"
    },
    {
      "constant": true,
      "inputs": [],
      "name": "owner",
      "outputs": [
        {
          "name": "",
          "type": "address"
        }
      ],
      "payable": false,
      "stateMutability": "view",
      "type": "function"
    },
    {
      "constant": true,
      "inputs": [
        {
          "name": "",
          "type": "address"
        },
        {
          "name": "",
          "type": "uint256"
        }
      ],
      "name": "auctionsBidByUser",
      "outputs": [
        {
          "name": "",
          "type": "uint256"
        }
      ],
      "payable": false,
      "stateMutability": "view",
      "type": "function"
    },
    {
      "constant": true,
      "inputs": [
        {
          "name": "",
          "type": "address"
        }
      ],
      "name": "refunds",
      "outputs": [
        {
          "name": "",
          "type": "uint256"
        }
      ],
      "payable": false,
      "stateMutability": "view",
      "type": "function"
    },
    {
      "constant": true,
      "inputs": [
        {
          "name": "",
          "type": "address"
        },
        {
          "name": "",
          "type": "uint256"
        }
      ],
      "name": "assetsAddedByUser",
      "outputs": [
        {
          "name": "",
          "type": "uint256"
        }
      ],
      "payable": false,
      "stateMutability": "view",
      "type": "function"
    },
    {
      "constant": true,
      "inputs": [
        {
          "name": "",
          "type": "address"
        },
        {
          "name": "",
          "type": "uint256"
        }
      ],
      "name": "auctionsOpenedByUser",
      "outputs": [
        {
          "name": "",
          "type": "uint256"
        }
      ],
      "payable": false,
      "stateMutability": "view",
      "type": "function"
    },
    {
      "constant": true,
      "inputs": [
        {
          "name": "",
          "type": "uint256"
        }
      ],
      "name": "assets",
      "outputs": [
        {
          "name": "ownerIdentifier",
          "type": "uint256"
        },
        {
          "name": "timestamp",
          "type": "uint256"
        },
        {
          "name": "owner",
          "type": "address"
        },
        {
          "name": "ownerFirstName",
          "type": "string"
        },
        {
          "name": "ownerLastName",
          "type": "string"
        },
        {
          "name": "name",
          "type": "string"
        },
        {
          "name": "status",
          "type": "bool"
        }
      ],
      "payable": false,
      "stateMutability": "view",
      "type": "function"
    },
    {
      "constant": true,
      "inputs": [],
      "name": "assetCount",
      "outputs": [
        {
          "name": "",
          "type": "uint256"
        }
      ],
      "payable": false,
      "stateMutability": "view",
      "type": "function"
    },
    {
      "inputs": [],
      "payable": false,
      "stateMutability": "nonpayable",
      "type": "constructor"
    },
    {
      "anonymous": false,
      "inputs": [
        {
          "indexed": false,
          "name": "id",
          "type": "uint256"
        },
        {
          "indexed": false,
          "name": "owner",
          "type": "address"
        },
        {
          "indexed": false,
          "name": "assetName",
          "type": "string"
        }
      ],
      "name": "AssetCreation",
      "type": "event"
    },
    {
      "anonymous": false,
      "inputs": [
        {
          "indexed": false,
          "name": "id",
          "type": "uint256"
        },
        {
          "indexed": false,
          "name": "name",
          "type": "string"
        },
        {
          "indexed": false,
          "name": "startPrice",
          "type": "uint256"
        }
      ],
      "name": "AuctionCreation",
      "type": "event"
    },
    {
      "anonymous": false,
      "inputs": [
        {
          "indexed": false,
          "name": "id",
          "type": "uint256"
        }
      ],
      "name": "AuctionCancelation",
      "type": "event"
    },
    {
      "anonymous": false,
      "inputs": [
        {
          "indexed": false,
          "name": "auctionId",
          "type": "uint256"
        },
        {
          "indexed": false,
          "name": "winner",
          "type": "address"
        },
        {
          "indexed": false,
          "name": "amount",
          "type": "uint256"
        }
      ],
      "name": "AuctionFinish",
      "type": "event"
    },
    {
      "anonymous": false,
      "inputs": [
        {
          "indexed": false,
          "name": "auctionId",
          "type": "uint256"
        },
        {
          "indexed": false,
          "name": "bidder",
          "type": "address"
        },
        {
          "indexed": false,
          "name": "amount",
          "type": "uint256"
        }
      ],
      "name": "BidPlacement",
      "type": "event"
    },
    {
      "constant": false,
      "inputs": [
        {
          "name": "_ownerIdentifier",
          "type": "uint256"
        },
        {
          "name": "_timestamp",
          "type": "uint256"
        },
        {
          "name": "_ownerFirstName",
          "type": "string"
        },
        {
          "name": "_ownerLastName",
          "type": "string"
        },
        {
          "name": "_assetName",
          "type": "string"
        }
      ],
      "name": "createAsset",
      "outputs": [
        {
          "name": "_assetId",
          "type": "uint256"
        }
      ],
      "payable": false,
      "stateMutability": "nonpayable",
      "type": "function"
    },
    {
      "constant": false,
      "inputs": [
        {
          "name": "_name",
          "type": "string"
        },
        {
          "name": "_description",
          "type": "string"
        },
        {
          "name": "_startTime",
          "type": "uint256"
        },
        {
          "name": "_expirationTime",
          "type": "uint256"
        },
        {
          "name": "_startPrice",
          "type": "uint256"
        },
        {
          "name": "_assetId",
          "type": "uint256"
        }
      ],
      "name": "createAuction",
      "outputs": [
        {
          "name": "_auctionId",
          "type": "uint256"
        }
      ],
      "payable": true,
      "stateMutability": "payable",
      "type": "function"
    },
    {
      "constant": true,
      "inputs": [],
      "name": "getAssetCount",
      "outputs": [
        {
          "name": "",
          "type": "uint256"
        }
      ],
      "payable": false,
      "stateMutability": "view",
      "type": "function"
    },
    {
      "constant": true,
      "inputs": [
        {
          "name": "_assetId",
          "type": "uint256"
        }
      ],
      "name": "getAssetOwnerIdentifier",
      "outputs": [
        {
          "name": "",
          "type": "uint256"
        }
      ],
      "payable": false,
      "stateMutability": "view",
      "type": "function"
    },
    {
      "constant": true,
      "inputs": [
        {
          "name": "_assetId",
          "type": "uint256"
        }
      ],
      "name": "getAssetTimestamp",
      "outputs": [
        {
          "name": "",
          "type": "uint256"
        }
      ],
      "payable": false,
      "stateMutability": "view",
      "type": "function"
    },
    {
      "constant": true,
      "inputs": [
        {
          "name": "_assetId",
          "type": "uint256"
        }
      ],
      "name": "getAssetOwner",
      "outputs": [
        {
          "name": "",
          "type": "address"
        }
      ],
      "payable": false,
      "stateMutability": "view",
      "type": "function"
    },
    {
      "constant": true,
      "inputs": [
        {
          "name": "_assetId",
          "type": "uint256"
        }
      ],
      "name": "getAssetOwnerFirstName",
      "outputs": [
        {
          "name": "",
          "type": "string"
        }
      ],
      "payable": false,
      "stateMutability": "view",
      "type": "function"
    },
    {
      "constant": true,
      "inputs": [
        {
          "name": "_assetId",
          "type": "uint256"
        }
      ],
      "name": "getAssetOwnerLastName",
      "outputs": [
        {
          "name": "",
          "type": "string"
        }
      ],
      "payable": false,
      "stateMutability": "view",
      "type": "function"
    },
    {
      "constant": true,
      "inputs": [
        {
          "name": "_assetId",
          "type": "uint256"
        }
      ],
      "name": "getAssetName",
      "outputs": [
        {
          "name": "",
          "type": "string"
        }
      ],
      "payable": false,
      "stateMutability": "view",
      "type": "function"
    },
    {
      "constant": true,
      "inputs": [
        {
          "name": "_assetId",
          "type": "uint256"
        }
      ],
      "name": "getAssetStatus",
      "outputs": [
        {
          "name": "",
          "type": "bool"
        }
      ],
      "payable": false,
      "stateMutability": "view",
      "type": "function"
    },
    {
      "constant": false,
      "inputs": [
        {
          "name": "_assetId",
          "type": "uint256"
        },
        {
          "name": "_newAssetOwnerIdentifier",
          "type": "uint256"
        }
      ],
      "name": "setAssetOwnerIdentifier",
      "outputs": [
        {
          "name": "",
          "type": "bool"
        }
      ],
      "payable": false,
      "stateMutability": "nonpayable",
      "type": "function"
    },
    {
      "constant": false,
      "inputs": [
        {
          "name": "_assetId",
          "type": "uint256"
        },
        {
          "name": "_timestamp",
          "type": "uint256"
        }
      ],
      "name": "setAssetTimestamp",
      "outputs": [
        {
          "name": "",
          "type": "bool"
        }
      ],
      "payable": false,
      "stateMutability": "nonpayable",
      "type": "function"
    },
    {
      "constant": false,
      "inputs": [
        {
          "name": "_assetId",
          "type": "uint256"
        },
        {
          "name": "_newOwner",
          "type": "address"
        }
      ],
      "name": "setOwner",
      "outputs": [
        {
          "name": "",
          "type": "bool"
        }
      ],
      "payable": false,
      "stateMutability": "nonpayable",
      "type": "function"
    },
    {
      "constant": false,
      "inputs": [
        {
          "name": "_assetId",
          "type": "uint256"
        },
        {
          "name": "_newAssetOwnerFirstName",
          "type": "string"
        }
      ],
      "name": "setAssetOwnerFirstName",
      "outputs": [
        {
          "name": "",
          "type": "bool"
        }
      ],
      "payable": false,
      "stateMutability": "nonpayable",
      "type": "function"
    },
    {
      "constant": false,
      "inputs": [
        {
          "name": "_assetId",
          "type": "uint256"
        },
        {
          "name": "_newAssetOwnerLastName",
          "type": "string"
        }
      ],
      "name": "setAssetOwnerLastName",
      "outputs": [
        {
          "name": "",
          "type": "bool"
        }
      ],
      "payable": false,
      "stateMutability": "nonpayable",
      "type": "function"
    },
    {
      "constant": false,
      "inputs": [
        {
          "name": "_assetId",
          "type": "uint256"
        },
        {
          "name": "_status",
          "type": "bool"
        }
      ],
      "name": "setAssetStatus",
      "outputs": [
        {
          "name": "",
          "type": "bool"
        }
      ],
      "payable": false,
      "stateMutability": "nonpayable",
      "type": "function"
    },
    {
      "constant": true,
      "inputs": [],
      "name": "getAuctionCount",
      "outputs": [
        {
          "name": "",
          "type": "uint256"
        }
      ],
      "payable": false,
      "stateMutability": "view",
      "type": "function"
    },
    {
      "constant": true,
      "inputs": [
        {
          "name": "_auctionId",
          "type": "uint256"
        }
      ],
      "name": "getAuction",
      "outputs": [
        {
          "name": "",
          "type": "string"
        },
        {
          "name": "",
          "type": "string"
        },
        {
          "name": "",
          "type": "uint256"
        },
        {
          "name": "",
          "type": "uint256"
        },
        {
          "name": "",
          "type": "uint256"
        },
        {
          "name": "",
          "type": "bool"
        },
        {
          "name": "",
          "type": "address"
        },
        {
          "name": "",
          "type": "address"
        },
        {
          "name": "",
          "type": "uint256"
        },
        {
          "name": "",
          "type": "uint256"
        },
        {
          "name": "",
          "type": "uint256"
        },
        {
          "name": "",
          "type": "uint256"
        }
      ],
      "payable": false,
      "stateMutability": "view",
      "type": "function"
    },
    {
      "constant": true,
      "inputs": [
        {
          "name": "_auctionId",
          "type": "uint256"
        }
      ],
      "name": "getAuctionName",
      "outputs": [
        {
          "name": "",
          "type": "string"
        }
      ],
      "payable": false,
      "stateMutability": "view",
      "type": "function"
    },
    {
      "constant": true,
      "inputs": [
        {
          "name": "_auctionId",
          "type": "uint256"
        }
      ],
      "name": "getAuctionDescription",
      "outputs": [
        {
          "name": "",
          "type": "string"
        }
      ],
      "payable": false,
      "stateMutability": "view",
      "type": "function"
    },
    {
      "constant": true,
      "inputs": [
        {
          "name": "_auctionId",
          "type": "uint256"
        }
      ],
      "name": "getAuctionStartTime",
      "outputs": [
        {
          "name": "",
          "type": "uint256"
        }
      ],
      "payable": false,
      "stateMutability": "view",
      "type": "function"
    },
    {
      "constant": true,
      "inputs": [
        {
          "name": "_auctionId",
          "type": "uint256"
        }
      ],
      "name": "getAuctionExpirationTime",
      "outputs": [
        {
          "name": "",
          "type": "uint256"
        }
      ],
      "payable": false,
      "stateMutability": "view",
      "type": "function"
    },
    {
      "constant": true,
      "inputs": [
        {
          "name": "_auctionId",
          "type": "uint256"
        }
      ],
      "name": "getAuctionStartPrice",
      "outputs": [
        {
          "name": "",
          "type": "uint256"
        }
      ],
      "payable": false,
      "stateMutability": "view",
      "type": "function"
    },
    {
      "constant": true,
      "inputs": [
        {
          "name": "_auctionId",
          "type": "uint256"
        }
      ],
      "name": "getAuctionStatus",
      "outputs": [
        {
          "name": "",
          "type": "bool"
        }
      ],
      "payable": false,
      "stateMutability": "view",
      "type": "function"
    },
    {
      "constant": true,
      "inputs": [
        {
          "name": "_auctionId",
          "type": "uint256"
        }
      ],
      "name": "getAuctionCurrentBidder",
      "outputs": [
        {
          "name": "",
          "type": "address"
        }
      ],
      "payable": false,
      "stateMutability": "view",
      "type": "function"
    },
    {
      "constant": true,
      "inputs": [
        {
          "name": "_auctionId",
          "type": "uint256"
        }
      ],
      "name": "getAuctionCurrentBidAmount",
      "outputs": [
        {
          "name": "",
          "type": "uint256"
        }
      ],
      "payable": false,
      "stateMutability": "view",
      "type": "function"
    },
    {
      "constant": true,
      "inputs": [
        {
          "name": "_auctionId",
          "type": "uint256"
        }
      ],
      "name": "getAuctionCurrentBidTimestamp",
      "outputs": [
        {
          "name": "",
          "type": "uint256"
        }
      ],
      "payable": false,
      "stateMutability": "view",
      "type": "function"
    },
    {
      "constant": true,
      "inputs": [
        {
          "name": "_auctionId",
          "type": "uint256"
        }
      ],
      "name": "getAuctionSeller",
      "outputs": [
        {
          "name": "",
          "type": "address"
        }
      ],
      "payable": false,
      "stateMutability": "view",
      "type": "function"
    },
    {
      "constant": true,
      "inputs": [
        {
          "name": "_auctionId",
          "type": "uint256"
        }
      ],
      "name": "getAuctionBidCount",
      "outputs": [
        {
          "name": "",
          "type": "uint256"
        }
      ],
      "payable": false,
      "stateMutability": "view",
      "type": "function"
    },
    {
      "constant": true,
      "inputs": [
        {
          "name": "_user",
          "type": "address"
        }
      ],
      "name": "getAuctionCountForUser",
      "outputs": [
        {
          "name": "",
          "type": "uint256"
        }
      ],
      "payable": false,
      "stateMutability": "view",
      "type": "function"
    },
    {
      "constant": false,
      "inputs": [
        {
          "name": "_auctionId",
          "type": "uint256"
        },
        {
          "name": "_currentBidTimestamp",
          "type": "uint256"
        },
        {
          "name": "_ownerIdentifier",
          "type": "uint256"
        },
        {
          "name": "_ownerFirstName",
          "type": "string"
        },
        {
          "name": "_ownerLastName",
          "type": "string"
        }
      ],
      "name": "placeBid",
      "outputs": [
        {
          "name": "",
          "type": "bool"
        }
      ],
      "payable": true,
      "stateMutability": "payable",
      "type": "function"
    },
    {
      "constant": false,
      "inputs": [
        {
          "name": "_auctionId",
          "type": "uint256"
        },
        {
          "name": "_expirationTime",
          "type": "uint256"
        }
      ],
      "name": "cancelAuction",
      "outputs": [
        {
          "name": "",
          "type": "bool"
        }
      ],
      "payable": false,
      "stateMutability": "nonpayable",
      "type": "function"
    },
    {
      "constant": false,
      "inputs": [
        {
          "name": "_auctionId",
          "type": "uint256"
        },
        {
          "name": "_timestamp",
          "type": "uint256"
        }
      ],
      "name": "finishAuction",
      "outputs": [
        {
          "name": "",
          "type": "bool"
        }
      ],
      "payable": false,
      "stateMutability": "nonpayable",
      "type": "function"
    },
    {
      "constant": true,
      "inputs": [],
      "name": "getRefundValue",
      "outputs": [
        {
          "name": "",
          "type": "uint256"
        }
      ],
      "payable": false,
      "stateMutability": "view",
      "type": "function"
    },
    {
      "constant": false,
      "inputs": [],
      "name": "transferRefund",
      "outputs": [],
      "payable": false,
      "stateMutability": "nonpayable",
      "type": "function"
    }
  ],
  "bytecode": "0x608060405234801561001057600080fd5b5033600860006101000a81548173ffffffffffffffffffffffffffffffffffffffff021916908373ffffffffffffffffffffffffffffffffffffffff160217905550614008806100616000396000f30060806040526004361061021a576000357c0100000000000000000000000000000000000000000000000000000000900463ffffffff1680630cfb809c1461021f5780630ed0b8ca1461026e578063113d3f61146102c55780631491420c146103065780632158d95a146103ac57806324e75ca0146103ed57806324fc099b1461043e5780632ad71573146104e45780632d2295ad1461050f57806330b1bdce146105265780633e984e0314610575578063429825f614610600578063488e341c14610641578063571a26a01461069057806359e54095146108445780635b38ae001461086f5780636fcf0111146108b05780637232d8b3146109565780637765c52c1461099757806378bd7935146109dc5780637fd3924714610b90578063823a65f514610bf557806383575dd314610c3a5780638d1fb81814610d185780638d5802e214610e355780638da5cb5b14610ea25780638ff80e9d14610ef9578063919e84f514610f5a57806392ba907514610f9b5780639aea5a2914610fea578063a0aead4d14611057578063aa7ac8ab14611082578063b107272514611128578063bc3da535146111ce578063bf21a85514611225578063c44e6640146112b0578063c4ab2de0146112db578063c50c44cf1461133c578063c512a819146113a9578063cf35bdd01461140a578063eafe7a74146115d4578063f8fac9b7146115ff578063fafeba4614611640578063fda09dd814611681575b600080fd5b34801561022b57600080fd5b506102546004803603810190808035906020019092919080359060200190929190505050611759565b604051808215151515815260200191505060405180910390f35b34801561027a57600080fd5b506102af600480360381019080803573ffffffffffffffffffffffffffffffffffffffff1690602001909291905050506117a9565b6040518082815260200191505060405180910390f35b3480156102d157600080fd5b506102f0600480360381019080803590602001909291905050506117f5565b6040518082815260200191505060405180910390f35b34801561031257600080fd5b5061033160048036038101908080359060200190929190505050611815565b6040518080602001828103825283818151815260200191508051906020019080838360005b83811015610371578082015181840152602081019050610356565b50505050905090810190601f16801561039e5780820380516001836020036101000a031916815260200191505b509250505060405180910390f35b3480156103b857600080fd5b506103d7600480360381019080803590602001909291905050506118cd565b6040518082815260200191505060405180910390f35b3480156103f957600080fd5b50610424600480360381019080803590602001909291908035151590602001909291905050506118ed565b604051808215151515815260200191505060405180910390f35b34801561044a57600080fd5b5061046960048036038101908080359060200190929190505050611964565b6040518080602001828103825283818151815260200191508051906020019080838360005b838110156104a957808201518184015260208101905061048e565b50505050905090810190601f1680156104d65780820380516001836020036101000a031916815260200191505b509250505060405180910390f35b3480156104f057600080fd5b506104f9611a1c565b6040518082815260200191505060405180910390f35b34801561051b57600080fd5b50610524611a22565b005b34801561053257600080fd5b5061055b6004803603810190808035906020019092919080359060200190929190505050611aff565b604051808215151515815260200191505060405180910390f35b34801561058157600080fd5b506105e660048036038101908080359060200190929190803590602001908201803590602001908080601f0160208091040260200160405190810160405280939291908181526020018383808284378201915050505050509192919290505050611eef565b604051808215151515815260200191505060405180910390f35b34801561060c57600080fd5b5061062b60048036038101908080359060200190929190505050611f63565b6040518082815260200191505060405180910390f35b34801561064d57600080fd5b506106766004803603810190808035906020019092919080359060200190929190505050611f83565b604051808215151515815260200191505060405180910390f35b34801561069c57600080fd5b506106bb60048036038101908080359060200190929190505050611fd3565b604051808d73ffffffffffffffffffffffffffffffffffffffff1673ffffffffffffffffffffffffffffffffffffffff1681526020018c73ffffffffffffffffffffffffffffffffffffffff1673ffffffffffffffffffffffffffffffffffffffff16815260200180602001806020018b81526020018a81526020018981526020018881526020018781526020018681526020018581526020018415151515815260200183810383528d818151815260200191508051906020019080838360005b8381101561079757808201518184015260208101905061077c565b50505050905090810190601f1680156107c45780820380516001836020036101000a031916815260200191505b5083810382528c818151815260200191508051906020019080838360005b838110156107fd5780820151818401526020810190506107e2565b50505050905090810190601f16801561082a5780820380516001836020036101000a031916815260200191505b509e50505050505050505050505050505060405180910390f35b34801561085057600080fd5b506108596121b0565b6040518082815260200191505060405180910390f35b34801561087b57600080fd5b5061089a600480360381019080803590602001909291905050506121f7565b6040518082815260200191505060405180910390f35b3480156108bc57600080fd5b506108db60048036038101908080359060200190929190505050612217565b6040518080602001828103825283818151815260200191508051906020019080838360005b8381101561091b578082015181840152602081019050610900565b50505050905090810190601f1680156109485780820380516001836020036101000a031916815260200191505b509250505060405180910390f35b34801561096257600080fd5b50610981600480360381019080803590602001909291905050506122cf565b6040518082815260200191505060405180910390f35b3480156109a357600080fd5b506109c2600480360381019080803590602001909291905050506122ef565b604051808215151515815260200191505060405180910390f35b3480156109e857600080fd5b50610a076004803603810190808035906020019092919050505061231c565b6040518080602001806020018d81526020018c81526020018b81526020018a1515151581526020018973ffffffffffffffffffffffffffffffffffffffff1673ffffffffffffffffffffffffffffffffffffffff1681526020018873ffffffffffffffffffffffffffffffffffffffff1673ffffffffffffffffffffffffffffffffffffffff16815260200187815260200186815260200185815260200184815260200183810383528f818151815260200191508051906020019080838360005b83811015610ae3578082015181840152602081019050610ac8565b50505050905090810190601f168015610b105780820380516001836020036101000a031916815260200191505b5083810382528e818151815260200191508051906020019080838360005b83811015610b49578082015181840152602081019050610b2e565b50505050905090810190601f168015610b765780820380516001836020036101000a031916815260200191505b509e50505050505050505050505050505060405180910390f35b348015610b9c57600080fd5b50610bdb60048036038101908080359060200190929190803573ffffffffffffffffffffffffffffffffffffffff169060200190929190505050612617565b604051808215151515815260200191505060405180910390f35b348015610c0157600080fd5b50610c20600480360381019080803590602001909291905050506126d7565b604051808215151515815260200191505060405180910390f35b610d02600480360381019080803590602001908201803590602001908080601f0160208091040260200160405190810160405280939291908181526020018383808284378201915050505050509192919290803590602001908201803590602001908080601f016020809104026020016040519081016040528093929190818152602001838380828437820191505050505050919291929080359060200190929190803590602001909291908035906020019092919080359060200190929190505050612704565b6040518082815260200191505060405180910390f35b348015610d2457600080fd5b50610e1f6004803603810190808035906020019092919080359060200190929190803590602001908201803590602001908080601f0160208091040260200160405190810160405280939291908181526020018383808284378201915050505050509192919290803590602001908201803590602001908080601f0160208091040260200160405190810160405280939291908181526020018383808284378201915050505050509192919290803590602001908201803590602001908080601f0160208091040260200160405190810160405280939291908181526020018383808284378201915050505050509192919290505050612a8b565b6040518082815260200191505060405180910390f35b348015610e4157600080fd5b50610e6060048036038101908080359060200190929190505050612d24565b604051808273ffffffffffffffffffffffffffffffffffffffff1673ffffffffffffffffffffffffffffffffffffffff16815260200191505060405180910390f35b348015610eae57600080fd5b50610eb7612d64565b604051808273ffffffffffffffffffffffffffffffffffffffff1673ffffffffffffffffffffffffffffffffffffffff16815260200191505060405180910390f35b348015610f0557600080fd5b50610f44600480360381019080803573ffffffffffffffffffffffffffffffffffffffff16906020019092919080359060200190929190505050612d8a565b6040518082815260200191505060405180910390f35b348015610f6657600080fd5b50610f8560048036038101908080359060200190929190505050612dba565b6040518082815260200191505060405180910390f35b348015610fa757600080fd5b50610fd06004803603810190808035906020019092919080359060200190929190505050612dda565b604051808215151515815260200191505060405180910390f35b348015610ff657600080fd5b506110156004803603810190808035906020019092919050505061311b565b604051808273ffffffffffffffffffffffffffffffffffffffff1673ffffffffffffffffffffffffffffffffffffffff16815260200191505060405180910390f35b34801561106357600080fd5b5061106c61315b565b6040518082815260200191505060405180910390f35b34801561108e57600080fd5b506110ad60048036038101908080359060200190929190505050613164565b6040518080602001828103825283818151815260200191508051906020019080838360005b838110156110ed5780820151818401526020810190506110d2565b50505050905090810190601f16801561111a5780820380516001836020036101000a031916815260200191505b509250505060405180910390f35b34801561113457600080fd5b506111536004803603810190808035906020019092919050505061321c565b6040518080602001828103825283818151815260200191508051906020019080838360005b83811015611193578082015181840152602081019050611178565b50505050905090810190601f1680156111c05780820380516001836020036101000a031916815260200191505b509250505060405180910390f35b3480156111da57600080fd5b5061120f600480360381019080803573ffffffffffffffffffffffffffffffffffffffff1690602001909291905050506132d4565b6040518082815260200191505060405180910390f35b34801561123157600080fd5b5061129660048036038101908080359060200190929190803590602001908201803590602001908080601f01602080910402602001604051908101604052809392919081815260200183838082843782019150505050505091929192905050506132ec565b604051808215151515815260200191505060405180910390f35b3480156112bc57600080fd5b506112c5613360565b6040518082815260200191505060405180910390f35b3480156112e757600080fd5b50611326600480360381019080803573ffffffffffffffffffffffffffffffffffffffff1690602001909291908035906020019092919050505061336a565b6040518082815260200191505060405180910390f35b34801561134857600080fd5b506113676004803603810190808035906020019092919050505061339a565b604051808273ffffffffffffffffffffffffffffffffffffffff1673ffffffffffffffffffffffffffffffffffffffff16815260200191505060405180910390f35b3480156113b557600080fd5b506113f4600480360381019080803573ffffffffffffffffffffffffffffffffffffffff169060200190929190803590602001909291905050506133da565b6040518082815260200191505060405180910390f35b34801561141657600080fd5b506114356004803603810190808035906020019092919050505061340a565b604051808881526020018781526020018673ffffffffffffffffffffffffffffffffffffffff1673ffffffffffffffffffffffffffffffffffffffff16815260200180602001806020018060200185151515158152602001848103845288818151815260200191508051906020019080838360005b838110156114c55780820151818401526020810190506114aa565b50505050905090810190601f1680156114f25780820380516001836020036101000a031916815260200191505b50848103835287818151815260200191508051906020019080838360005b8381101561152b578082015181840152602081019050611510565b50505050905090810190601f1680156115585780820380516001836020036101000a031916815260200191505b50848103825286818151815260200191508051906020019080838360005b83811015611591578082015181840152602081019050611576565b50505050905090810190601f1680156115be5780820380516001836020036101000a031916815260200191505b509a505050505050505050505060405180910390f35b3480156115e057600080fd5b506115e9613641565b6040518082815260200191505060405180910390f35b34801561160b57600080fd5b5061162a60048036038101908080359060200190929190505050613647565b6040518082815260200191505060405180910390f35b34801561164c57600080fd5b5061166b60048036038101908080359060200190929190505050613667565b6040518082815260200191505060405180910390f35b61173f600480360381019080803590602001909291908035906020019092919080359060200190929190803590602001908201803590602001908080601f0160208091040260200160405190810160405280939291908181526020018383808284378201915050505050509192919290803590602001908201803590602001908080601f0160208091040260200160405190810160405280939291908181526020018383808284378201915050505050509192919290505050613687565b604051808215151515815260200191505060405180910390f35b600080600260008581526020019081526020016000206000015414151561179e57816002600085815260200190815260200160002060000181905550600190506117a3565b600090505b92915050565b6000600560008373ffffffffffffffffffffffffffffffffffffffff1673ffffffffffffffffffffffffffffffffffffffff168152602001908152602001600020805490509050919050565b600060036000838152602001908152602001600020600501549050919050565b6060600360008381526020019081526020016000206002018054600181600116156101000203166002900480601f0160208091040260200160405190810160405280929190818152602001828054600181600116156101000203166002900480156118c15780601f10611896576101008083540402835291602001916118c1565b820191906000526020600020905b8154815290600101906020018083116118a457829003601f168201915b50505050509050919050565b600060036000838152602001908152602001600020600901549050919050565b6000806002600085815260200190815260200160002060050180546001816001161561010002031660029004905014151561195957816002600085815260200190815260200160002060060160006101000a81548160ff0219169083151502179055506001905061195e565b600090505b92915050565b6060600260008381526020019081526020016000206005018054600181600116156101000203166002900480601f016020809104026020016040519081016040528092919081815260200182805460018160011615610100020316600290048015611a105780601f106119e557610100808354040283529160200191611a10565b820191906000526020600020905b8154815290600101906020018083116119f357829003601f168201915b50505050509050919050565b60015481565b6000600760003373ffffffffffffffffffffffffffffffffffffffff1673ffffffffffffffffffffffffffffffffffffffff1681526020019081526020016000205490506000811115611afc576000600760003373ffffffffffffffffffffffffffffffffffffffff1673ffffffffffffffffffffffffffffffffffffffff168152602001908152602001600020819055503373ffffffffffffffffffffffffffffffffffffffff166108fc829081150290604051600060405180830381858888f19350505050158015611afa573d6000803e3d6000fd5b505b50565b600080611b0a613dda565b6003600086815260200190815260200160002091506001151582600b0160009054906101000a900460ff161515141515611b4357600080fd5b816005015442111515611b5557600080fd5b600082600901541415611b8857600082600b0160006101000a81548160ff02191690831515021790555060019250611ee7565b81600c0160006001846009015403815260200190815260200160002060c060405190810160405290816000820160009054906101000a900473ffffffffffffffffffffffffffffffffffffffff1673ffffffffffffffffffffffffffffffffffffffff1673ffffffffffffffffffffffffffffffffffffffff168152602001600182015481526020016002820154815260200160038201548152602001600482018054600181600116156101000203166002900480601f016020809104026020016040519081016040528092919081815260200182805460018160011615610100020316600290048015611cbd5780601f10611c9257610100808354040283529160200191611cbd565b820191906000526020600020905b815481529060010190602001808311611ca057829003601f168201915b50505050508152602001600582018054600181600116156101000203166002900480601f016020809104026020016040519081016040528092919081815260200182805460018160011615610100020316600290048015611d5f5780601f10611d3457610100808354040283529160200191611d5f565b820191906000526020600020905b815481529060010190602001808311611d4257829003601f168201915b5050505050815250509050611d7c82600a01548260600151611759565b50611d8b82600a015485611f83565b50611d9e82600a01548260000151612617565b50611db182600a01548260800151611eef565b50611dc482600a01548260a001516132ec565b50611dd482600a015460006118ed565b508160070154600760008460000160009054906101000a900473ffffffffffffffffffffffffffffffffffffffff1673ffffffffffffffffffffffffffffffffffffffff1673ffffffffffffffffffffffffffffffffffffffff16815260200190815260200160002060008282540192505081905550600082600b0160006101000a81548160ff0219169083151502179055507f6d5f542cd11abe179d932a89d2ae7e156687ee8f417eb229eb9b5a46ba5c4a978582600001518460070154604051808481526020018373ffffffffffffffffffffffffffffffffffffffff1673ffffffffffffffffffffffffffffffffffffffff168152602001828152602001935050505060405180910390a1600192505b505092915050565b60008060026000858152602001908152602001600020600301805460018160011615610100020316600290049050141515611f585781600260008581526020019081526020016000206003019080519060200190611f4e929190613e27565b5060019050611f5d565b600090505b92915050565b600060026000838152602001908152602001600020600001549050919050565b6000806002600085815260200190815260200160002060010154141515611fc85781600260008581526020019081526020016000206001018190555060019050611fcd565b600090505b92915050565b60036020528060005260406000206000915090508060000160009054906101000a900473ffffffffffffffffffffffffffffffffffffffff16908060010160009054906101000a900473ffffffffffffffffffffffffffffffffffffffff1690806002018054600181600116156101000203166002900480601f0160208091040260200160405190810160405280929190818152602001828054600181600116156101000203166002900480156120cb5780601f106120a0576101008083540402835291602001916120cb565b820191906000526020600020905b8154815290600101906020018083116120ae57829003601f168201915b505050505090806003018054600181600116156101000203166002900480601f0160208091040260200160405190810160405280929190818152602001828054600181600116156101000203166002900480156121695780601f1061213e57610100808354040283529160200191612169565b820191906000526020600020905b81548152906001019060200180831161214c57829003601f168201915b50505050509080600401549080600501549080600601549080600701549080600801549080600901549080600a01549080600b0160009054906101000a900460ff1690508c565b6000600760003373ffffffffffffffffffffffffffffffffffffffff1673ffffffffffffffffffffffffffffffffffffffff16815260200190815260200160002054905090565b600060036000838152602001908152602001600020600801549050919050565b6060600260008381526020019081526020016000206004018054600181600116156101000203166002900480601f0160208091040260200160405190810160405280929190818152602001828054600181600116156101000203166002900480156122c35780601f10612298576101008083540402835291602001916122c3565b820191906000526020600020905b8154815290600101906020018083116122a657829003601f168201915b50505050509050919050565b600060036000838152602001908152602001600020600701549050919050565b600060036000838152602001908152602001600020600b0160009054906101000a900460ff169050919050565b606080600080600080600080600080600080612336613ea7565b600360008f815260200190815260200160002061018060405190810160405290816000820160009054906101000a900473ffffffffffffffffffffffffffffffffffffffff1673ffffffffffffffffffffffffffffffffffffffff1673ffffffffffffffffffffffffffffffffffffffff1681526020016001820160009054906101000a900473ffffffffffffffffffffffffffffffffffffffff1673ffffffffffffffffffffffffffffffffffffffff1673ffffffffffffffffffffffffffffffffffffffff168152602001600282018054600181600116156101000203166002900480601f01602080910402602001604051908101604052809291908181526020018280546001816001161561010002031660029004801561249b5780601f106124705761010080835404028352916020019161249b565b820191906000526020600020905b81548152906001019060200180831161247e57829003601f168201915b50505050508152602001600382018054600181600116156101000203166002900480601f01602080910402602001604051908101604052809291908181526020018280546001816001161561010002031660029004801561253d5780601f106125125761010080835404028352916020019161253d565b820191906000526020600020905b81548152906001019060200180831161252057829003601f168201915b50505050508152602001600482015481526020016005820154815260200160068201548152602001600782015481526020016008820154815260200160098201548152602001600a8201548152602001600b820160009054906101000a900460ff16151515158152505090508060400151816060015182608001518360a001518460c00151856101600151866000015187602001518860e001518961010001518a61012001518b61014001518b9b508a9a509c509c509c509c509c509c509c509c509c509c509c509c505091939597999b5091939597999b565b6000806002600085815260200190815260200160002060020160009054906101000a900473ffffffffffffffffffffffffffffffffffffffff1673ffffffffffffffffffffffffffffffffffffffff161415156126cc57816002600085815260200190815260200160002060020160006101000a81548173ffffffffffffffffffffffffffffffffffffffff021916908373ffffffffffffffffffffffffffffffffffffffff160217905550600190506126d1565b600090505b92915050565b60006002600083815260200190815260200160002060060160009054906101000a900460ff169050919050565b6000838501421115151561271757600080fd5b82600010151561272657600080fd5b600015156002600084815260200190815260200160002060060160009054906101000a900460ff16151514151561275c57600080fd5b60016000815480929190600101919050559050336003600083815260200190815260200160002060000160006101000a81548173ffffffffffffffffffffffffffffffffffffffff021916908373ffffffffffffffffffffffffffffffffffffffff160217905550336003600083815260200190815260200160002060010160006101000a81548173ffffffffffffffffffffffffffffffffffffffff021916908373ffffffffffffffffffffffffffffffffffffffff16021790555086600360008381526020019081526020016000206002019080519060200190612843929190613e27565b508560036000838152602001908152602001600020600301908051906020019061286e929190613e27565b5084600360008381526020019081526020016000206004018190555083850160036000838152602001908152602001600020600501819055508260036000838152602001908152602001600020600601819055508260036000838152602001908152602001600020600701819055508460036000838152602001908152602001600020600801819055506000600360008381526020019081526020016000206009018190555060005460036000838152602001908152602001600020600a0181905550600160036000838152602001908152602001600020600b0160006101000a81548160ff02191690831515021790555061296b8260016118ed565b50600560003373ffffffffffffffffffffffffffffffffffffffff1673ffffffffffffffffffffffffffffffffffffffff1681526020019081526020016000208190806001815401808255809150509060018203906000526020600020016000909192909190915055507f9092e235a321fdb26d4b8ab9ef34730f1dd9171563a3f11bb70b17925d3adcd98188856040518084815260200180602001838152602001828103825284818151815260200191508051906020019080838360005b83811015612a45578082015181840152602081019050612a2a565b50505050905090810190601f168015612a725780820380516001836020036101000a031916815260200191505b5094505050505060405180910390a19695505050505050565b6000806000815480929190600101919050559050856002600083815260200190815260200160002060000181905550846002600083815260200190815260200160002060010181905550336002600083815260200190815260200160002060020160006101000a81548173ffffffffffffffffffffffffffffffffffffffff021916908373ffffffffffffffffffffffffffffffffffffffff16021790555083600260008381526020019081526020016000206003019080519060200190612b54929190613e27565b5082600260008381526020019081526020016000206004019080519060200190612b7f929190613e27565b5081600260008381526020019081526020016000206005019080519060200190612baa929190613e27565b5060006002600083815260200190815260200160002060060160006101000a81548160ff021916908315150217905550600460003373ffffffffffffffffffffffffffffffffffffffff1673ffffffffffffffffffffffffffffffffffffffff1681526020019081526020016000208190806001815401808255809150509060018203906000526020600020016000909192909190915055507f7ff7675d6ac9e4dd7316cc8601efa0c6e0a9537b093048c5c8771c44ef963fe3813384604051808481526020018373ffffffffffffffffffffffffffffffffffffffff1673ffffffffffffffffffffffffffffffffffffffff16815260200180602001828103825283818151815260200191508051906020019080838360005b83811015612cdf578082015181840152602081019050612cc4565b50505050905090810190601f168015612d0c5780820380516001836020036101000a031916815260200191505b5094505050505060405180910390a195945050505050565b60006002600083815260200190815260200160002060020160009054906101000a900473ffffffffffffffffffffffffffffffffffffffff169050919050565b600860009054906101000a900473ffffffffffffffffffffffffffffffffffffffff1681565b600660205281600052604060002081815481101515612da557fe5b90600052602060002001600091509150505481565b600060036000838152602001908152602001600020600401549050919050565b6000806000612de7613dda565b856003600082815260200190815260200160002060000160009054906101000a900473ffffffffffffffffffffffffffffffffffffffff1673ffffffffffffffffffffffffffffffffffffffff163373ffffffffffffffffffffffffffffffffffffffff16141515612e5857600080fd5b6003600088815260200190815260200160002093508360090154925060008311156130b15783600c01600060018503815260200190815260200160002060c060405190810160405290816000820160009054906101000a900473ffffffffffffffffffffffffffffffffffffffff1673ffffffffffffffffffffffffffffffffffffffff1673ffffffffffffffffffffffffffffffffffffffff168152602001600182015481526020016002820154815260200160038201548152602001600482018054600181600116156101000203166002900480601f016020809104026020016040519081016040528092919081815260200182805460018160011615610100020316600290048015612fae5780601f10612f8357610100808354040283529160200191612fae565b820191906000526020600020905b815481529060010190602001808311612f9157829003601f168201915b50505050508152602001600582018054600181600116156101000203166002900480601f0160208091040260200160405190810160405280929190818152602001828054600181600116156101000203166002900480156130505780601f1061302557610100808354040283529160200191613050565b820191906000526020600020905b81548152906001019060200180831161303357829003601f168201915b5050505050815250509150816020015160076000846000015173ffffffffffffffffffffffffffffffffffffffff1673ffffffffffffffffffffffffffffffffffffffff168152602001908152602001600020600082825401925050819055505b858460050181905550600084600b0160006101000a81548160ff0219169083151502179055507e7c2b5519e67ff04e78fbc7f5170a67b383d62b89d2f408978178397f7e4d2f876040518082815260200191505060405180910390a1600194505050505092915050565b60006003600083815260200190815260200160002060010160009054906101000a900473ffffffffffffffffffffffffffffffffffffffff169050919050565b60008054905090565b6060600360008381526020019081526020016000206003018054600181600116156101000203166002900480601f0160208091040260200160405190810160405280929190818152602001828054600181600116156101000203166002900480156132105780601f106131e557610100808354040283529160200191613210565b820191906000526020600020905b8154815290600101906020018083116131f357829003601f168201915b50505050509050919050565b6060600260008381526020019081526020016000206003018054600181600116156101000203166002900480601f0160208091040260200160405190810160405280929190818152602001828054600181600116156101000203166002900480156132c85780601f1061329d576101008083540402835291602001916132c8565b820191906000526020600020905b8154815290600101906020018083116132ab57829003601f168201915b50505050509050919050565b60076020528060005260406000206000915090505481565b60008060026000858152602001908152602001600020600401805460018160011615610100020316600290049050141515613355578160026000858152602001908152602001600020600401908051906020019061334b929190613e27565b506001905061335a565b600090505b92915050565b6000600154905090565b60046020528160005260406000208181548110151561338557fe5b90600052602060002001600091509150505481565b60006003600083815260200190815260200160002060000160009054906101000a900473ffffffffffffffffffffffffffffffffffffffff169050919050565b6005602052816000526040600020818154811015156133f557fe5b90600052602060002001600091509150505481565b60026020528060005260406000206000915090508060000154908060010154908060020160009054906101000a900473ffffffffffffffffffffffffffffffffffffffff1690806003018054600181600116156101000203166002900480601f0160208091040260200160405190810160405280929190818152602001828054600181600116156101000203166002900480156134e85780601f106134bd576101008083540402835291602001916134e8565b820191906000526020600020905b8154815290600101906020018083116134cb57829003601f168201915b505050505090806004018054600181600116156101000203166002900480601f0160208091040260200160405190810160405280929190818152602001828054600181600116156101000203166002900480156135865780601f1061355b57610100808354040283529160200191613586565b820191906000526020600020905b81548152906001019060200180831161356957829003601f168201915b505050505090806005018054600181600116156101000203166002900480601f0160208091040260200160405190810160405280929190818152602001828054600181600116156101000203166002900480156136245780601f106135f957610100808354040283529160200191613624565b820191906000526020600020905b81548152906001019060200180831161360757829003601f168201915b5050505050908060060160009054906101000a900460ff16905087565b60005481565b600060036000838152602001908152602001600020600601549050919050565b600060026000838152602001908152602001600020600101549050919050565b6000806000613694613dda565b8861369d613ea7565b6003600083815260200190815260200160002061018060405190810160405290816000820160009054906101000a900473ffffffffffffffffffffffffffffffffffffffff1673ffffffffffffffffffffffffffffffffffffffff1673ffffffffffffffffffffffffffffffffffffffff1681526020016001820160009054906101000a900473ffffffffffffffffffffffffffffffffffffffff1673ffffffffffffffffffffffffffffffffffffffff1673ffffffffffffffffffffffffffffffffffffffff168152602001600282018054600181600116156101000203166002900480601f0160208091040260200160405190810160405280929190818152602001828054600181600116156101000203166002900480156138025780601f106137d757610100808354040283529160200191613802565b820191906000526020600020905b8154815290600101906020018083116137e557829003601f168201915b50505050508152602001600382018054600181600116156101000203166002900480601f0160208091040260200160405190810160405280929190818152602001828054600181600116156101000203166002900480156138a45780601f10613879576101008083540402835291602001916138a4565b820191906000526020600020905b81548152906001019060200180831161388757829003601f168201915b50505050508152602001600482015481526020016005820154815260200160068201548152602001600782015481526020016008820154815260200160098201548152602001600a8201548152602001600b820160009054906101000a900460ff16151515158152505090508060a00151421115151561392357600080fd5b600360008c8152602001908152602001600020945084600701543411151561394a57600080fd5b84600901600081548092919060010191905055935060c0604051908101604052803373ffffffffffffffffffffffffffffffffffffffff1681526020013481526020018b81526020018a81526020018981526020018881525085600c01600086815260200190815260200160002060008201518160000160006101000a81548173ffffffffffffffffffffffffffffffffffffffff021916908373ffffffffffffffffffffffffffffffffffffffff1602179055506020820151816001015560408201518160020155606082015181600301556080820151816004019080519060200190613a39929190613f37565b5060a0820151816005019080519060200190613a56929190613f37565b50905050338560010160006101000a81548173ffffffffffffffffffffffffffffffffffffffff021916908373ffffffffffffffffffffffffffffffffffffffff160217905550348560070181905550898560080181905550600660003373ffffffffffffffffffffffffffffffffffffffff1673ffffffffffffffffffffffffffffffffffffffff1681526020019081526020016000208b90806001815401808255809150509060018203906000526020600020016000909192909190915055506000841115613d555784600c01600060018603815260200190815260200160002060c060405190810160405290816000820160009054906101000a900473ffffffffffffffffffffffffffffffffffffffff1673ffffffffffffffffffffffffffffffffffffffff1673ffffffffffffffffffffffffffffffffffffffff168152602001600182015481526020016002820154815260200160038201548152602001600482018054600181600116156101000203166002900480601f016020809104026020016040519081016040528092919081815260200182805460018160011615610100020316600290048015613c525780601f10613c2757610100808354040283529160200191613c52565b820191906000526020600020905b815481529060010190602001808311613c3557829003601f168201915b50505050508152602001600582018054600181600116156101000203166002900480601f016020809104026020016040519081016040528092919081815260200182805460018160011615610100020316600290048015613cf45780601f10613cc957610100808354040283529160200191613cf4565b820191906000526020600020905b815481529060010190602001808311613cd757829003601f168201915b5050505050815250509250826020015160076000856000015173ffffffffffffffffffffffffffffffffffffffff1673ffffffffffffffffffffffffffffffffffffffff168152602001908152602001600020600082825401925050819055505b7fd8fc4137b35ccaca59bb16d527fe8c54a493578f4a03f7944fa768506465e6548b3334604051808481526020018373ffffffffffffffffffffffffffffffffffffffff1673ffffffffffffffffffffffffffffffffffffffff168152602001828152602001935050505060405180910390a160019550505050505095945050505050565b60c060405190810160405280600073ffffffffffffffffffffffffffffffffffffffff16815260200160008152602001600081526020016000815260200160608152602001606081525090565b828054600181600116156101000203166002900490600052602060002090601f016020900481019282601f10613e6857805160ff1916838001178555613e96565b82800160010185558215613e96579182015b82811115613e95578251825591602001919060010190613e7a565b5b509050613ea39190613fb7565b5090565b61018060405190810160405280600073ffffffffffffffffffffffffffffffffffffffff168152602001600073ffffffffffffffffffffffffffffffffffffffff1681526020016060815260200160608152602001600081526020016000815260200160008152602001600081526020016000815260200160008152602001600081526020016000151581525090565b828054600181600116156101000203166002900490600052602060002090601f016020900481019282601f10613f7857805160ff1916838001178555613fa6565b82800160010185558215613fa6579182015b82811115613fa5578251825591602001919060010190613f8a565b5b509050613fb39190613fb7565b5090565b613fd991905b80821115613fd5576000816000905550600101613fbd565b5090565b905600a165627a7a72305820945b0ae4969e20461085bd50252715d18607c5966ee741fed3ea6b57e516c4d40029",
  "source": "pragma solidity ^0.4.21;\n\ncontract ConceptAuction {\n\n    struct Asset {\n        uint256 ownerIdentifier;//TC kimlik gibi\n        uint256 timestamp;\n        address owner;\n        string ownerFirstName;\n        string ownerLastName;\n        string name;\n        bool status;//In auction or not\n    }\n\n    struct Bid {\n        address bidder;\n        uint256 amount;\n        uint256 timestamp;\n        uint256 ownerIdentifier;//TC kimlik gibi\n        string ownerFirstName;\n        string ownerLastName;\n    }\n\n    struct Auction {\n        address seller;\n        address currentBidBidder;\n        string name;\n        string description;\n        uint256 startTime;\n        uint256 expirationTime;\n        uint256 startPrice;\n        uint256 currentBidAmount;\n        uint256 currentBidTimestamp;\n        uint256 bidCount;\n        uint256 assetIdentifier;\n        bool status;//Active or not\n        mapping (uint256 => Bid) bids;\n    }\n\n    uint256 public assetCount;\n    uint256 public auctionCount;\n\n    mapping(uint256 => Asset) public assets;\n    mapping(uint256 => Auction) public auctions;\n    mapping(address => uint256[]) public assetsAddedByUser;\n    mapping(address => uint256[]) public auctionsOpenedByUser;\n    mapping(address => uint256[]) public auctionsBidByUser;\n    mapping(address => uint256) public refunds;\n\n    address public owner;\n\n    // Events that will be checked by DAPPs\n    event AssetCreation(uint256 id, address owner, string assetName);\n    event AuctionCreation(uint256 id, string name, uint256 startPrice);\n    event AuctionCancelation(uint256 id);\n    event AuctionFinish(uint256 auctionId, address winner, uint256 amount);\n    event BidPlacement(uint auctionId, address bidder, uint256 amount);\n\n    modifier onlyOwner() {\n        require(msg.sender == owner);\n        _;\n    }\n\n    modifier onlySeller(uint auctionId) {\n        require(msg.sender == auctions[auctionId].seller);\n        _;\n    }\n\n    modifier onlyLive(uint auctionId) {\n        Auction memory current = auctions[auctionId];\n        require(block.timestamp <= current.expirationTime);\n        _;\n    }\n\n    function ConceptAuction() public {\n        owner = msg.sender;\n    }\n\n    // Maybe we can add default fallback here\n    function createAsset(\n        uint256  _ownerIdentifier, uint256 _timestamp, string _ownerFirstName, string _ownerLastName,\n        string _assetName) public returns (uint256 _assetId) {\n\n        _assetId = assetCount++;\n        assets[_assetId].ownerIdentifier = _ownerIdentifier;\n        assets[_assetId].timestamp = _timestamp;\n        assets[_assetId].owner = msg.sender;\n        assets[_assetId].ownerFirstName = _ownerFirstName;\n        assets[_assetId].ownerLastName = _ownerLastName;\n        assets[_assetId].name = _assetName;\n        assets[_assetId].status = false;\n\n        assetsAddedByUser[msg.sender].push(_assetId);\n\n        emit AssetCreation(_assetId, msg.sender, _assetName);\n    }\n    \n    function createAuction(\n        string _name, string _description,\n        uint256 _startTime, uint256 _expirationTime,\n        uint256 _startPrice, uint256 _assetId) public payable returns (uint256 _auctionId) {\n\n        require(block.timestamp <= (_startTime + _expirationTime));\n        require(0 < _startPrice);\n        require(assets[_assetId].status == false);\n\n        _auctionId = auctionCount++;\n        auctions[_auctionId].seller = msg.sender;\n        auctions[_auctionId].currentBidBidder = msg.sender;\n        auctions[_auctionId].name = _name;\n        auctions[_auctionId].description = _description;\n        auctions[_auctionId].startTime = _startTime;\n        auctions[_auctionId].expirationTime = (_startTime + _expirationTime);\n        auctions[_auctionId].startPrice = _startPrice;\n        auctions[_auctionId].currentBidAmount = _startPrice;\n        auctions[_auctionId].currentBidTimestamp = _startTime;\n        auctions[_auctionId].bidCount = 0;\n        auctions[_auctionId].assetIdentifier = assetCount;\n        auctions[_auctionId].status = true;        \n        setAssetStatus(_assetId,true);\n\n        auctionsOpenedByUser[msg.sender].push(_auctionId);\n\n        emit AuctionCreation(_auctionId, _name, _startPrice);\n    }\n\n    //Asset related getters\n    function getAssetCount() public view returns(uint256){\n        return assetCount;\n    }\n\n    function getAssetOwnerIdentifier(uint256 _assetId) public view returns(uint256) {\n        return assets[_assetId].ownerIdentifier;\n    }\n\n    function getAssetTimestamp(uint256 _assetId) public view returns(uint256) {\n        return assets[_assetId].timestamp;\n    }\n\n    function getAssetOwner(uint256 _assetId) public view returns(address) {\n        return assets[_assetId].owner;\n    }\n\n    function getAssetOwnerFirstName(uint256 _assetId) public view returns(string) {\n        return assets[_assetId].ownerFirstName;\n    }\n\n    function getAssetOwnerLastName(uint256 _assetId) public view returns(string) {\n        return assets[_assetId].ownerLastName;\n    }\n\n    function getAssetName(uint256 _assetId) public view returns(string) {\n        return assets[_assetId].name;\n    }\n\n    function getAssetStatus(uint256 _assetId) public view returns(bool) {\n        return assets[_assetId].status;\n    }\n\n    //Asset related setters\n    //Maybe add onlyContract like a limiter\n    //Transferlerde alan kii ilk onaylama, onaylamadan sonra\n    function setAssetOwnerIdentifier(uint256 _assetId, uint _newAssetOwnerIdentifier) public returns (bool) {\n        if(assets[_assetId].ownerIdentifier != 0){\n            assets[_assetId].ownerIdentifier = _newAssetOwnerIdentifier;\n            return true;\n        }else{\n            return false;\n        }\n    }\n\n    function setAssetTimestamp(uint256 _assetId, uint256 _timestamp) public returns (bool) {\n        if(assets[_assetId].timestamp != 0){\n            assets[_assetId].timestamp = _timestamp;\n            return true;\n        }else{\n            return false;\n        }\n    }\n    \n    function setOwner(uint256 _assetId, address _newOwner) public returns (bool) {\n        if(assets[_assetId].owner != 0){\n            assets[_assetId].owner = _newOwner;\n            return true;\n        }else{\n            return false;\n        }\n    }\n\n    function setAssetOwnerFirstName(uint256 _assetId, string _newAssetOwnerFirstName) public returns (bool) {\n        if(bytes(assets[_assetId].ownerFirstName).length != 0){\n            assets[_assetId].ownerFirstName = _newAssetOwnerFirstName;\n            return true;\n        }else{\n            return false;\n        }\n    }\n\n    function setAssetOwnerLastName(uint256 _assetId, string _newAssetOwnerLastName) public returns (bool) {\n        if(bytes(assets[_assetId].ownerLastName).length != 0){\n            assets[_assetId].ownerLastName = _newAssetOwnerLastName;\n            return true;\n        }else{\n            return false;\n        }\n    }\n\n    function setAssetStatus(uint256 _assetId, bool _status) public returns (bool) {\n        if(bytes(assets[_assetId].name).length != 0){\n            assets[_assetId].status = _status;\n            return true;\n        }else{\n            return false;\n        }\n    }\n\n    //Auction related getters\n    function getAuctionCount() public view returns(uint256) {\n        return auctionCount;\n    }\n\n    function getAuction(uint256 _auctionId) public view returns(\n        string,string,uint256,uint256,uint256,bool,address,address,uint256,uint256,uint256,uint256) {\n        Auction memory current = auctions[_auctionId];\n        return (\n            current.name,\n            current.description,\n            current.startTime,\n            current.expirationTime,\n            current.startPrice,\n            current.status,\n            current.seller,\n            current.currentBidBidder,\n            current.currentBidAmount,\n            current.currentBidTimestamp,\n            current.bidCount,\n            current.assetIdentifier\n            );\n    }\n\n    function getAuctionName(uint256 _auctionId) public view returns(string) {\n        return auctions[_auctionId].name;\n    }\n\n    function getAuctionDescription(uint256 _auctionId) public view returns(string) {\n        return auctions[_auctionId].description;\n    }\n\n    function getAuctionStartTime(uint256 _auctionId) public view returns(uint256) {\n        return auctions[_auctionId].startTime;\n    }\n\n    function getAuctionExpirationTime(uint256 _auctionId) public view returns(uint256) {\n        return auctions[_auctionId].expirationTime;\n    }\n\n    function getAuctionStartPrice(uint256 _auctionId) public view returns(uint256) {\n        return auctions[_auctionId].startPrice;\n    }\n\n    function getAuctionStatus(uint256 _auctionId) public view returns (bool) {\n        return auctions[_auctionId].status;\n    }\n\n    function getAuctionCurrentBidder(uint256 _auctionId) public view returns(address) {\n        return auctions[_auctionId].currentBidBidder;\n    }\n\n    function getAuctionCurrentBidAmount(uint256 _auctionId) public view returns(uint256) {\n        return auctions[_auctionId].currentBidAmount;\n    }\n\n    function getAuctionCurrentBidTimestamp(uint256 _auctionId) public view returns(uint256) {\n        return auctions[_auctionId].currentBidTimestamp;\n    }\n\n    function getAuctionSeller(uint256 _auctionId) public view returns(address) {\n        return auctions[_auctionId].seller;\n    }\n\n    function getAuctionBidCount(uint256 _auctionId) public view returns(uint256) {\n        return auctions[_auctionId].bidCount;\n    }\n\n    function getAuctionCountForUser(address _user) public view returns (uint256) {\n        return auctionsOpenedByUser[_user].length;\n    }\n\n    //Auction related setters\n    function placeBid(\n        uint256 _auctionId, uint256 _currentBidTimestamp, uint256 _ownerIdentifier,\n        string _ownerFirstName, string _ownerLastName) public payable onlyLive(_auctionId) returns (bool) {\n        Auction storage currentAuction = auctions[_auctionId];\n        require(msg.value > currentAuction.currentBidAmount);\n\n        uint256 bidId = currentAuction.bidCount++;\n        currentAuction.bids[bidId] = Bid(msg.sender, msg.value, _currentBidTimestamp, _ownerIdentifier, _ownerFirstName, _ownerLastName);\n\n        currentAuction.currentBidBidder = msg.sender;\n        currentAuction.currentBidAmount = msg.value;\n        currentAuction.currentBidTimestamp = _currentBidTimestamp;\n\n        auctionsBidByUser[msg.sender].push(_auctionId);\n\n        if (bidId > 0) {\n            Bid memory previousBid = currentAuction.bids[bidId - 1];\n            refunds[previousBid.bidder] += previousBid.amount;\n        }\n\n        emit BidPlacement(_auctionId, msg.sender, msg.value);\n\n        return true;\n    }\n\n    function cancelAuction(uint256 _auctionId, uint256 _expirationTime) public onlySeller(_auctionId) returns (bool) {\n        Auction storage currentAuction = auctions[_auctionId];\n        uint256 bidCount = currentAuction.bidCount;\n\n        if (bidCount > 0) {\n            Bid memory highestBid = currentAuction.bids[bidCount - 1];\n            refunds[highestBid.bidder] += highestBid.amount;\n        }\n        currentAuction.expirationTime = _expirationTime;\n        currentAuction.status = false;\n\n        emit AuctionCancelation(_auctionId);\n        \n        return true;\n    }\n\n    function finishAuction(uint256 _auctionId, uint256 _timestamp) public returns (bool) {\n        Auction storage currentAuction = auctions[_auctionId];\n\n        require(currentAuction.status == true);\n        require(block.timestamp > currentAuction.expirationTime);\n\n        if (currentAuction.bidCount == 0) {\n            currentAuction.status = false;\n            return true;\n        } else {\n            Bid memory highestBid = currentAuction.bids[currentAuction.bidCount - 1];\n            \n            setAssetOwnerIdentifier(currentAuction.assetIdentifier, highestBid.ownerIdentifier);\n            setAssetTimestamp(currentAuction.assetIdentifier, _timestamp);\n            setOwner(currentAuction.assetIdentifier, highestBid.bidder);\n            setAssetOwnerFirstName(currentAuction.assetIdentifier, highestBid.ownerFirstName);\n            setAssetOwnerLastName(currentAuction.assetIdentifier, highestBid.ownerLastName);\n            setAssetStatus(currentAuction.assetIdentifier, false);\n\n            refunds[currentAuction.seller] += currentAuction.currentBidAmount;\n            currentAuction.status = false;\n\n            emit AuctionFinish(_auctionId, highestBid.bidder, currentAuction.currentBidAmount);\n            \n            return true;\n        }\n    }\n\n    //Refund related methods\n    function getRefundValue() public view returns (uint256) {\n        return refunds[msg.sender];\n    }\n\n    function transferRefund() public {\n        uint256 refundAmount = refunds[msg.sender];\n        if (refundAmount > 0) {\n            refunds[msg.sender] = 0;\n            msg.sender.transfer(refundAmount);\n        }\n    }\n}\n",
  "sourcePath": "/Users/birkandenizer/auction/contracts/ConceptAuction.sol",
  "compiler": {
    "name": "solc",
    "version": "0.4.23+commit.124ca40d.Emscripten.clang"
  },
  "schemaVersion": "2.0.0",
  "updatedAt": "2018-05-28T00:29:16.595Z"
}