{
  "contractName": "ConceptAuction",
  "abi": [
    {
      "constant": true,
      "inputs": [],
      "name": "auctionCount",
      "outputs": [
        {
          "name": "",
          "type": "uint256"
        }
      ],
      "payable": false,
      "stateMutability": "view",
      "type": "function"
    },
    {
      "constant": true,
      "inputs": [
        {
          "name": "",
          "type": "uint256"
        }
      ],
      "name": "auctions",
      "outputs": [
        {
          "name": "seller",
          "type": "address"
        },
        {
          "name": "currentBidBidder",
          "type": "address"
        },
        {
          "name": "name",
          "type": "string"
        },
        {
          "name": "description",
          "type": "string"
        },
        {
          "name": "startTime",
          "type": "uint256"
        },
        {
          "name": "expirationTime",
          "type": "uint256"
        },
        {
          "name": "startPrice",
          "type": "uint256"
        },
        {
          "name": "currentBidAmount",
          "type": "uint256"
        },
        {
          "name": "currentBidTimestamp",
          "type": "uint256"
        },
        {
          "name": "bidCount",
          "type": "uint256"
        },
        {
          "name": "assetIdentifier",
          "type": "uint256"
        },
        {
          "name": "status",
          "type": "bool"
        }
      ],
      "payable": false,
      "stateMutability": "view",
      "type": "function"
    },
    {
      "constant": true,
      "inputs": [],
      "name": "owner",
      "outputs": [
        {
          "name": "",
          "type": "address"
        }
      ],
      "payable": false,
      "stateMutability": "view",
      "type": "function"
    },
    {
      "constant": true,
      "inputs": [
        {
          "name": "",
          "type": "address"
        },
        {
          "name": "",
          "type": "uint256"
        }
      ],
      "name": "auctionsBidByUser",
      "outputs": [
        {
          "name": "",
          "type": "uint256"
        }
      ],
      "payable": false,
      "stateMutability": "view",
      "type": "function"
    },
    {
      "constant": true,
      "inputs": [
        {
          "name": "",
          "type": "address"
        }
      ],
      "name": "refunds",
      "outputs": [
        {
          "name": "",
          "type": "uint256"
        }
      ],
      "payable": false,
      "stateMutability": "view",
      "type": "function"
    },
    {
      "constant": true,
      "inputs": [
        {
          "name": "",
          "type": "address"
        },
        {
          "name": "",
          "type": "uint256"
        }
      ],
      "name": "assetsAddedByUser",
      "outputs": [
        {
          "name": "",
          "type": "uint256"
        }
      ],
      "payable": false,
      "stateMutability": "view",
      "type": "function"
    },
    {
      "constant": true,
      "inputs": [
        {
          "name": "",
          "type": "address"
        },
        {
          "name": "",
          "type": "uint256"
        }
      ],
      "name": "auctionsOpenedByUser",
      "outputs": [
        {
          "name": "",
          "type": "uint256"
        }
      ],
      "payable": false,
      "stateMutability": "view",
      "type": "function"
    },
    {
      "constant": true,
      "inputs": [
        {
          "name": "",
          "type": "uint256"
        }
      ],
      "name": "assets",
      "outputs": [
        {
          "name": "ownerIdentifier",
          "type": "uint256"
        },
        {
          "name": "timestamp",
          "type": "uint256"
        },
        {
          "name": "owner",
          "type": "address"
        },
        {
          "name": "ownerFirstName",
          "type": "string"
        },
        {
          "name": "ownerLastName",
          "type": "string"
        },
        {
          "name": "name",
          "type": "string"
        },
        {
          "name": "status",
          "type": "bool"
        }
      ],
      "payable": false,
      "stateMutability": "view",
      "type": "function"
    },
    {
      "constant": true,
      "inputs": [],
      "name": "assetCount",
      "outputs": [
        {
          "name": "",
          "type": "uint256"
        }
      ],
      "payable": false,
      "stateMutability": "view",
      "type": "function"
    },
    {
      "inputs": [],
      "payable": false,
      "stateMutability": "nonpayable",
      "type": "constructor"
    },
    {
      "anonymous": false,
      "inputs": [
        {
          "indexed": false,
          "name": "id",
          "type": "uint256"
        },
        {
          "indexed": false,
          "name": "owner",
          "type": "address"
        },
        {
          "indexed": false,
          "name": "assetName",
          "type": "string"
        }
      ],
      "name": "AssetCreation",
      "type": "event"
    },
    {
      "anonymous": false,
      "inputs": [
        {
          "indexed": false,
          "name": "id",
          "type": "uint256"
        },
        {
          "indexed": false,
          "name": "name",
          "type": "string"
        },
        {
          "indexed": false,
          "name": "startPrice",
          "type": "uint256"
        }
      ],
      "name": "AuctionCreation",
      "type": "event"
    },
    {
      "anonymous": false,
      "inputs": [
        {
          "indexed": false,
          "name": "id",
          "type": "uint256"
        }
      ],
      "name": "AuctionCancelation",
      "type": "event"
    },
    {
      "anonymous": false,
      "inputs": [
        {
          "indexed": false,
          "name": "auctionId",
          "type": "uint256"
        },
        {
          "indexed": false,
          "name": "winner",
          "type": "address"
        },
        {
          "indexed": false,
          "name": "amount",
          "type": "uint256"
        }
      ],
      "name": "AuctionFinish",
      "type": "event"
    },
    {
      "anonymous": false,
      "inputs": [
        {
          "indexed": false,
          "name": "auctionId",
          "type": "uint256"
        },
        {
          "indexed": false,
          "name": "bidder",
          "type": "address"
        },
        {
          "indexed": false,
          "name": "amount",
          "type": "uint256"
        }
      ],
      "name": "BidPlacement",
      "type": "event"
    },
    {
      "constant": false,
      "inputs": [
        {
          "name": "_ownerIdentifier",
          "type": "uint256"
        },
        {
          "name": "_timestamp",
          "type": "uint256"
        },
        {
          "name": "_ownerFirstName",
          "type": "string"
        },
        {
          "name": "_ownerLastName",
          "type": "string"
        },
        {
          "name": "_assetName",
          "type": "string"
        }
      ],
      "name": "createAsset",
      "outputs": [
        {
          "name": "_assetId",
          "type": "uint256"
        }
      ],
      "payable": false,
      "stateMutability": "nonpayable",
      "type": "function"
    },
    {
      "constant": false,
      "inputs": [
        {
          "name": "_name",
          "type": "string"
        },
        {
          "name": "_description",
          "type": "string"
        },
        {
          "name": "_startTime",
          "type": "uint256"
        },
        {
          "name": "_expirationTime",
          "type": "uint256"
        },
        {
          "name": "_startPrice",
          "type": "uint256"
        },
        {
          "name": "_assetId",
          "type": "uint256"
        }
      ],
      "name": "createAuction",
      "outputs": [
        {
          "name": "_auctionId",
          "type": "uint256"
        }
      ],
      "payable": true,
      "stateMutability": "payable",
      "type": "function"
    },
    {
      "constant": true,
      "inputs": [],
      "name": "getAssetCount",
      "outputs": [
        {
          "name": "",
          "type": "uint256"
        }
      ],
      "payable": false,
      "stateMutability": "view",
      "type": "function"
    },
    {
      "constant": true,
      "inputs": [
        {
          "name": "_assetId",
          "type": "uint256"
        }
      ],
      "name": "getAssetOwnerIdentifier",
      "outputs": [
        {
          "name": "",
          "type": "uint256"
        }
      ],
      "payable": false,
      "stateMutability": "view",
      "type": "function"
    },
    {
      "constant": true,
      "inputs": [
        {
          "name": "_assetId",
          "type": "uint256"
        }
      ],
      "name": "getAssetTimestamp",
      "outputs": [
        {
          "name": "",
          "type": "uint256"
        }
      ],
      "payable": false,
      "stateMutability": "view",
      "type": "function"
    },
    {
      "constant": true,
      "inputs": [
        {
          "name": "_assetId",
          "type": "uint256"
        }
      ],
      "name": "getAssetOwner",
      "outputs": [
        {
          "name": "",
          "type": "address"
        }
      ],
      "payable": false,
      "stateMutability": "view",
      "type": "function"
    },
    {
      "constant": true,
      "inputs": [
        {
          "name": "_assetId",
          "type": "uint256"
        }
      ],
      "name": "getAssetOwnerFirstName",
      "outputs": [
        {
          "name": "",
          "type": "string"
        }
      ],
      "payable": false,
      "stateMutability": "view",
      "type": "function"
    },
    {
      "constant": true,
      "inputs": [
        {
          "name": "_assetId",
          "type": "uint256"
        }
      ],
      "name": "getAssetOwnerLastName",
      "outputs": [
        {
          "name": "",
          "type": "string"
        }
      ],
      "payable": false,
      "stateMutability": "view",
      "type": "function"
    },
    {
      "constant": true,
      "inputs": [
        {
          "name": "_assetId",
          "type": "uint256"
        }
      ],
      "name": "getAssetName",
      "outputs": [
        {
          "name": "",
          "type": "string"
        }
      ],
      "payable": false,
      "stateMutability": "view",
      "type": "function"
    },
    {
      "constant": true,
      "inputs": [
        {
          "name": "_assetId",
          "type": "uint256"
        }
      ],
      "name": "getAssetStatus",
      "outputs": [
        {
          "name": "",
          "type": "bool"
        }
      ],
      "payable": false,
      "stateMutability": "view",
      "type": "function"
    },
    {
      "constant": true,
      "inputs": [
        {
          "name": "_user",
          "type": "address"
        }
      ],
      "name": "getAssetCountForUser",
      "outputs": [
        {
          "name": "",
          "type": "uint256"
        }
      ],
      "payable": false,
      "stateMutability": "view",
      "type": "function"
    },
    {
      "constant": false,
      "inputs": [
        {
          "name": "_assetId",
          "type": "uint256"
        },
        {
          "name": "_newAssetOwnerIdentifier",
          "type": "uint256"
        }
      ],
      "name": "setAssetOwnerIdentifier",
      "outputs": [
        {
          "name": "",
          "type": "bool"
        }
      ],
      "payable": false,
      "stateMutability": "nonpayable",
      "type": "function"
    },
    {
      "constant": false,
      "inputs": [
        {
          "name": "_assetId",
          "type": "uint256"
        },
        {
          "name": "_timestamp",
          "type": "uint256"
        }
      ],
      "name": "setAssetTimestamp",
      "outputs": [
        {
          "name": "",
          "type": "bool"
        }
      ],
      "payable": false,
      "stateMutability": "nonpayable",
      "type": "function"
    },
    {
      "constant": false,
      "inputs": [
        {
          "name": "_assetId",
          "type": "uint256"
        },
        {
          "name": "_newOwner",
          "type": "address"
        }
      ],
      "name": "setOwner",
      "outputs": [
        {
          "name": "",
          "type": "bool"
        }
      ],
      "payable": false,
      "stateMutability": "nonpayable",
      "type": "function"
    },
    {
      "constant": false,
      "inputs": [
        {
          "name": "_assetId",
          "type": "uint256"
        },
        {
          "name": "_newAssetOwnerFirstName",
          "type": "string"
        }
      ],
      "name": "setAssetOwnerFirstName",
      "outputs": [
        {
          "name": "",
          "type": "bool"
        }
      ],
      "payable": false,
      "stateMutability": "nonpayable",
      "type": "function"
    },
    {
      "constant": false,
      "inputs": [
        {
          "name": "_assetId",
          "type": "uint256"
        },
        {
          "name": "_newAssetOwnerLastName",
          "type": "string"
        }
      ],
      "name": "setAssetOwnerLastName",
      "outputs": [
        {
          "name": "",
          "type": "bool"
        }
      ],
      "payable": false,
      "stateMutability": "nonpayable",
      "type": "function"
    },
    {
      "constant": false,
      "inputs": [
        {
          "name": "_assetId",
          "type": "uint256"
        },
        {
          "name": "_status",
          "type": "bool"
        }
      ],
      "name": "setAssetStatus",
      "outputs": [
        {
          "name": "",
          "type": "bool"
        }
      ],
      "payable": false,
      "stateMutability": "nonpayable",
      "type": "function"
    },
    {
      "constant": true,
      "inputs": [],
      "name": "getAuctionCount",
      "outputs": [
        {
          "name": "",
          "type": "uint256"
        }
      ],
      "payable": false,
      "stateMutability": "view",
      "type": "function"
    },
    {
      "constant": true,
      "inputs": [
        {
          "name": "_auctionId",
          "type": "uint256"
        }
      ],
      "name": "getAuction",
      "outputs": [
        {
          "name": "",
          "type": "string"
        },
        {
          "name": "",
          "type": "string"
        },
        {
          "name": "",
          "type": "uint256"
        },
        {
          "name": "",
          "type": "uint256"
        },
        {
          "name": "",
          "type": "uint256"
        },
        {
          "name": "",
          "type": "bool"
        },
        {
          "name": "",
          "type": "address"
        },
        {
          "name": "",
          "type": "address"
        },
        {
          "name": "",
          "type": "uint256"
        },
        {
          "name": "",
          "type": "uint256"
        },
        {
          "name": "",
          "type": "uint256"
        },
        {
          "name": "",
          "type": "uint256"
        }
      ],
      "payable": false,
      "stateMutability": "view",
      "type": "function"
    },
    {
      "constant": true,
      "inputs": [
        {
          "name": "_auctionId",
          "type": "uint256"
        }
      ],
      "name": "getAuctionName",
      "outputs": [
        {
          "name": "",
          "type": "string"
        }
      ],
      "payable": false,
      "stateMutability": "view",
      "type": "function"
    },
    {
      "constant": true,
      "inputs": [
        {
          "name": "_auctionId",
          "type": "uint256"
        }
      ],
      "name": "getAuctionDescription",
      "outputs": [
        {
          "name": "",
          "type": "string"
        }
      ],
      "payable": false,
      "stateMutability": "view",
      "type": "function"
    },
    {
      "constant": true,
      "inputs": [
        {
          "name": "_auctionId",
          "type": "uint256"
        }
      ],
      "name": "getAuctionStartTime",
      "outputs": [
        {
          "name": "",
          "type": "uint256"
        }
      ],
      "payable": false,
      "stateMutability": "view",
      "type": "function"
    },
    {
      "constant": true,
      "inputs": [
        {
          "name": "_auctionId",
          "type": "uint256"
        }
      ],
      "name": "getAuctionExpirationTime",
      "outputs": [
        {
          "name": "",
          "type": "uint256"
        }
      ],
      "payable": false,
      "stateMutability": "view",
      "type": "function"
    },
    {
      "constant": true,
      "inputs": [
        {
          "name": "_auctionId",
          "type": "uint256"
        }
      ],
      "name": "getAuctionStartPrice",
      "outputs": [
        {
          "name": "",
          "type": "uint256"
        }
      ],
      "payable": false,
      "stateMutability": "view",
      "type": "function"
    },
    {
      "constant": true,
      "inputs": [
        {
          "name": "_auctionId",
          "type": "uint256"
        }
      ],
      "name": "getAuctionStatus",
      "outputs": [
        {
          "name": "",
          "type": "bool"
        }
      ],
      "payable": false,
      "stateMutability": "view",
      "type": "function"
    },
    {
      "constant": true,
      "inputs": [
        {
          "name": "_auctionId",
          "type": "uint256"
        }
      ],
      "name": "getAuctionCurrentBidder",
      "outputs": [
        {
          "name": "",
          "type": "address"
        }
      ],
      "payable": false,
      "stateMutability": "view",
      "type": "function"
    },
    {
      "constant": true,
      "inputs": [
        {
          "name": "_auctionId",
          "type": "uint256"
        }
      ],
      "name": "getAuctionCurrentBidAmount",
      "outputs": [
        {
          "name": "",
          "type": "uint256"
        }
      ],
      "payable": false,
      "stateMutability": "view",
      "type": "function"
    },
    {
      "constant": true,
      "inputs": [
        {
          "name": "_auctionId",
          "type": "uint256"
        }
      ],
      "name": "getAuctionCurrentBidTimestamp",
      "outputs": [
        {
          "name": "",
          "type": "uint256"
        }
      ],
      "payable": false,
      "stateMutability": "view",
      "type": "function"
    },
    {
      "constant": true,
      "inputs": [
        {
          "name": "_auctionId",
          "type": "uint256"
        }
      ],
      "name": "getAuctionSeller",
      "outputs": [
        {
          "name": "",
          "type": "address"
        }
      ],
      "payable": false,
      "stateMutability": "view",
      "type": "function"
    },
    {
      "constant": true,
      "inputs": [
        {
          "name": "_auctionId",
          "type": "uint256"
        }
      ],
      "name": "getAuctionBidCount",
      "outputs": [
        {
          "name": "",
          "type": "uint256"
        }
      ],
      "payable": false,
      "stateMutability": "view",
      "type": "function"
    },
    {
      "constant": true,
      "inputs": [
        {
          "name": "_user",
          "type": "address"
        }
      ],
      "name": "getAuctionCountForUser",
      "outputs": [
        {
          "name": "",
          "type": "uint256"
        }
      ],
      "payable": false,
      "stateMutability": "view",
      "type": "function"
    },
    {
      "constant": false,
      "inputs": [
        {
          "name": "_auctionId",
          "type": "uint256"
        },
        {
          "name": "_currentBidTimestamp",
          "type": "uint256"
        },
        {
          "name": "_ownerIdentifier",
          "type": "uint256"
        },
        {
          "name": "_ownerFirstName",
          "type": "string"
        },
        {
          "name": "_ownerLastName",
          "type": "string"
        }
      ],
      "name": "placeBid",
      "outputs": [
        {
          "name": "",
          "type": "bool"
        }
      ],
      "payable": true,
      "stateMutability": "payable",
      "type": "function"
    },
    {
      "constant": false,
      "inputs": [
        {
          "name": "_auctionId",
          "type": "uint256"
        },
        {
          "name": "_expirationTime",
          "type": "uint256"
        }
      ],
      "name": "cancelAuction",
      "outputs": [
        {
          "name": "",
          "type": "bool"
        }
      ],
      "payable": false,
      "stateMutability": "nonpayable",
      "type": "function"
    },
    {
      "constant": false,
      "inputs": [
        {
          "name": "_auctionId",
          "type": "uint256"
        },
        {
          "name": "_timestamp",
          "type": "uint256"
        }
      ],
      "name": "finishAuction",
      "outputs": [
        {
          "name": "",
          "type": "bool"
        }
      ],
      "payable": false,
      "stateMutability": "nonpayable",
      "type": "function"
    },
    {
      "constant": true,
      "inputs": [],
      "name": "getRefundValue",
      "outputs": [
        {
          "name": "",
          "type": "uint256"
        }
      ],
      "payable": false,
      "stateMutability": "view",
      "type": "function"
    },
    {
      "constant": false,
      "inputs": [],
      "name": "transferRefund",
      "outputs": [],
      "payable": false,
      "stateMutability": "nonpayable",
      "type": "function"
    }
  ],
  "bytecode": "0x608060405234801561001057600080fd5b5033600860006101000a81548173ffffffffffffffffffffffffffffffffffffffff021916908373ffffffffffffffffffffffffffffffffffffffff1602179055506140b6806100616000396000f300608060405260043610610225576000357c0100000000000000000000000000000000000000000000000000000000900463ffffffff1680630cfb809c1461022a5780630ed0b8ca14610279578063113d3f61146102d05780631491420c146103115780632158d95a146103b757806324e75ca0146103f857806324fc099b146104495780632ad71573146104ef5780632bff3ed81461051a5780632d2295ad1461057157806330b1bdce146105885780633e984e03146105d7578063429825f614610662578063488e341c146106a3578063571a26a0146106f257806359e54095146108a65780635b38ae00146108d15780636fcf0111146109125780637232d8b3146109b85780637765c52c146109f957806378bd793514610a3e5780637fd3924714610bf2578063823a65f514610c5757806383575dd314610c9c5780638d1fb81814610d7a5780638d5802e214610e975780638da5cb5b14610f045780638ff80e9d14610f5b578063919e84f514610fbc57806392ba907514610ffd5780639aea5a291461104c578063a0aead4d146110b9578063aa7ac8ab146110e4578063b10727251461118a578063bc3da53514611230578063bf21a85514611287578063c44e664014611312578063c4ab2de01461133d578063c50c44cf1461139e578063c512a8191461140b578063cf35bdd01461146c578063eafe7a7414611636578063f8fac9b714611661578063fafeba46146116a2578063fda09dd8146116e3575b600080fd5b34801561023657600080fd5b5061025f60048036038101908080359060200190929190803590602001909291905050506117bb565b604051808215151515815260200191505060405180910390f35b34801561028557600080fd5b506102ba600480360381019080803573ffffffffffffffffffffffffffffffffffffffff16906020019092919050505061180b565b6040518082815260200191505060405180910390f35b3480156102dc57600080fd5b506102fb60048036038101908080359060200190929190505050611857565b6040518082815260200191505060405180910390f35b34801561031d57600080fd5b5061033c60048036038101908080359060200190929190505050611877565b6040518080602001828103825283818151815260200191508051906020019080838360005b8381101561037c578082015181840152602081019050610361565b50505050905090810190601f1680156103a95780820380516001836020036101000a031916815260200191505b509250505060405180910390f35b3480156103c357600080fd5b506103e26004803603810190808035906020019092919050505061192f565b6040518082815260200191505060405180910390f35b34801561040457600080fd5b5061042f6004803603810190808035906020019092919080351515906020019092919050505061194f565b604051808215151515815260200191505060405180910390f35b34801561045557600080fd5b50610474600480360381019080803590602001909291905050506119c6565b6040518080602001828103825283818151815260200191508051906020019080838360005b838110156104b4578082015181840152602081019050610499565b50505050905090810190601f1680156104e15780820380516001836020036101000a031916815260200191505b509250505060405180910390f35b3480156104fb57600080fd5b50610504611a7e565b6040518082815260200191505060405180910390f35b34801561052657600080fd5b5061055b600480360381019080803573ffffffffffffffffffffffffffffffffffffffff169060200190929190505050611a84565b6040518082815260200191505060405180910390f35b34801561057d57600080fd5b50610586611ad0565b005b34801561059457600080fd5b506105bd6004803603810190808035906020019092919080359060200190929190505050611bad565b604051808215151515815260200191505060405180910390f35b3480156105e357600080fd5b5061064860048036038101908080359060200190929190803590602001908201803590602001908080601f0160208091040260200160405190810160405280939291908181526020018383808284378201915050505050509192919290505050611f9d565b604051808215151515815260200191505060405180910390f35b34801561066e57600080fd5b5061068d60048036038101908080359060200190929190505050612011565b6040518082815260200191505060405180910390f35b3480156106af57600080fd5b506106d86004803603810190808035906020019092919080359060200190929190505050612031565b604051808215151515815260200191505060405180910390f35b3480156106fe57600080fd5b5061071d60048036038101908080359060200190929190505050612081565b604051808d73ffffffffffffffffffffffffffffffffffffffff1673ffffffffffffffffffffffffffffffffffffffff1681526020018c73ffffffffffffffffffffffffffffffffffffffff1673ffffffffffffffffffffffffffffffffffffffff16815260200180602001806020018b81526020018a81526020018981526020018881526020018781526020018681526020018581526020018415151515815260200183810383528d818151815260200191508051906020019080838360005b838110156107f95780820151818401526020810190506107de565b50505050905090810190601f1680156108265780820380516001836020036101000a031916815260200191505b5083810382528c818151815260200191508051906020019080838360005b8381101561085f578082015181840152602081019050610844565b50505050905090810190601f16801561088c5780820380516001836020036101000a031916815260200191505b509e50505050505050505050505050505060405180910390f35b3480156108b257600080fd5b506108bb61225e565b6040518082815260200191505060405180910390f35b3480156108dd57600080fd5b506108fc600480360381019080803590602001909291905050506122a5565b6040518082815260200191505060405180910390f35b34801561091e57600080fd5b5061093d600480360381019080803590602001909291905050506122c5565b6040518080602001828103825283818151815260200191508051906020019080838360005b8381101561097d578082015181840152602081019050610962565b50505050905090810190601f1680156109aa5780820380516001836020036101000a031916815260200191505b509250505060405180910390f35b3480156109c457600080fd5b506109e36004803603810190808035906020019092919050505061237d565b6040518082815260200191505060405180910390f35b348015610a0557600080fd5b50610a246004803603810190808035906020019092919050505061239d565b604051808215151515815260200191505060405180910390f35b348015610a4a57600080fd5b50610a69600480360381019080803590602001909291905050506123ca565b6040518080602001806020018d81526020018c81526020018b81526020018a1515151581526020018973ffffffffffffffffffffffffffffffffffffffff1673ffffffffffffffffffffffffffffffffffffffff1681526020018873ffffffffffffffffffffffffffffffffffffffff1673ffffffffffffffffffffffffffffffffffffffff16815260200187815260200186815260200185815260200184815260200183810383528f818151815260200191508051906020019080838360005b83811015610b45578082015181840152602081019050610b2a565b50505050905090810190601f168015610b725780820380516001836020036101000a031916815260200191505b5083810382528e818151815260200191508051906020019080838360005b83811015610bab578082015181840152602081019050610b90565b50505050905090810190601f168015610bd85780820380516001836020036101000a031916815260200191505b509e50505050505050505050505050505060405180910390f35b348015610bfe57600080fd5b50610c3d60048036038101908080359060200190929190803573ffffffffffffffffffffffffffffffffffffffff1690602001909291905050506126c5565b604051808215151515815260200191505060405180910390f35b348015610c6357600080fd5b50610c8260048036038101908080359060200190929190505050612785565b604051808215151515815260200191505060405180910390f35b610d64600480360381019080803590602001908201803590602001908080601f0160208091040260200160405190810160405280939291908181526020018383808284378201915050505050509192919290803590602001908201803590602001908080601f0160208091040260200160405190810160405280939291908181526020018383808284378201915050505050509192919290803590602001909291908035906020019092919080359060200190929190803590602001909291905050506127b2565b6040518082815260200191505060405180910390f35b348015610d8657600080fd5b50610e816004803603810190808035906020019092919080359060200190929190803590602001908201803590602001908080601f0160208091040260200160405190810160405280939291908181526020018383808284378201915050505050509192919290803590602001908201803590602001908080601f0160208091040260200160405190810160405280939291908181526020018383808284378201915050505050509192919290803590602001908201803590602001908080601f0160208091040260200160405190810160405280939291908181526020018383808284378201915050505050509192919290505050612b39565b6040518082815260200191505060405180910390f35b348015610ea357600080fd5b50610ec260048036038101908080359060200190929190505050612dd2565b604051808273ffffffffffffffffffffffffffffffffffffffff1673ffffffffffffffffffffffffffffffffffffffff16815260200191505060405180910390f35b348015610f1057600080fd5b50610f19612e12565b604051808273ffffffffffffffffffffffffffffffffffffffff1673ffffffffffffffffffffffffffffffffffffffff16815260200191505060405180910390f35b348015610f6757600080fd5b50610fa6600480360381019080803573ffffffffffffffffffffffffffffffffffffffff16906020019092919080359060200190929190505050612e38565b6040518082815260200191505060405180910390f35b348015610fc857600080fd5b50610fe760048036038101908080359060200190929190505050612e68565b6040518082815260200191505060405180910390f35b34801561100957600080fd5b506110326004803603810190808035906020019092919080359060200190929190505050612e88565b604051808215151515815260200191505060405180910390f35b34801561105857600080fd5b50611077600480360381019080803590602001909291905050506131c9565b604051808273ffffffffffffffffffffffffffffffffffffffff1673ffffffffffffffffffffffffffffffffffffffff16815260200191505060405180910390f35b3480156110c557600080fd5b506110ce613209565b6040518082815260200191505060405180910390f35b3480156110f057600080fd5b5061110f60048036038101908080359060200190929190505050613212565b6040518080602001828103825283818151815260200191508051906020019080838360005b8381101561114f578082015181840152602081019050611134565b50505050905090810190601f16801561117c5780820380516001836020036101000a031916815260200191505b509250505060405180910390f35b34801561119657600080fd5b506111b5600480360381019080803590602001909291905050506132ca565b6040518080602001828103825283818151815260200191508051906020019080838360005b838110156111f55780820151818401526020810190506111da565b50505050905090810190601f1680156112225780820380516001836020036101000a031916815260200191505b509250505060405180910390f35b34801561123c57600080fd5b50611271600480360381019080803573ffffffffffffffffffffffffffffffffffffffff169060200190929190505050613382565b6040518082815260200191505060405180910390f35b34801561129357600080fd5b506112f860048036038101908080359060200190929190803590602001908201803590602001908080601f016020809104026020016040519081016040528093929190818152602001838380828437820191505050505050919291929050505061339a565b604051808215151515815260200191505060405180910390f35b34801561131e57600080fd5b5061132761340e565b6040518082815260200191505060405180910390f35b34801561134957600080fd5b50611388600480360381019080803573ffffffffffffffffffffffffffffffffffffffff16906020019092919080359060200190929190505050613418565b6040518082815260200191505060405180910390f35b3480156113aa57600080fd5b506113c960048036038101908080359060200190929190505050613448565b604051808273ffffffffffffffffffffffffffffffffffffffff1673ffffffffffffffffffffffffffffffffffffffff16815260200191505060405180910390f35b34801561141757600080fd5b50611456600480360381019080803573ffffffffffffffffffffffffffffffffffffffff16906020019092919080359060200190929190505050613488565b6040518082815260200191505060405180910390f35b34801561147857600080fd5b50611497600480360381019080803590602001909291905050506134b8565b604051808881526020018781526020018673ffffffffffffffffffffffffffffffffffffffff1673ffffffffffffffffffffffffffffffffffffffff16815260200180602001806020018060200185151515158152602001848103845288818151815260200191508051906020019080838360005b8381101561152757808201518184015260208101905061150c565b50505050905090810190601f1680156115545780820380516001836020036101000a031916815260200191505b50848103835287818151815260200191508051906020019080838360005b8381101561158d578082015181840152602081019050611572565b50505050905090810190601f1680156115ba5780820380516001836020036101000a031916815260200191505b50848103825286818151815260200191508051906020019080838360005b838110156115f35780820151818401526020810190506115d8565b50505050905090810190601f1680156116205780820380516001836020036101000a031916815260200191505b509a505050505050505050505060405180910390f35b34801561164257600080fd5b5061164b6136ef565b6040518082815260200191505060405180910390f35b34801561166d57600080fd5b5061168c600480360381019080803590602001909291905050506136f5565b6040518082815260200191505060405180910390f35b3480156116ae57600080fd5b506116cd60048036038101908080359060200190929190505050613715565b6040518082815260200191505060405180910390f35b6117a1600480360381019080803590602001909291908035906020019092919080359060200190929190803590602001908201803590602001908080601f0160208091040260200160405190810160405280939291908181526020018383808284378201915050505050509192919290803590602001908201803590602001908080601f0160208091040260200160405190810160405280939291908181526020018383808284378201915050505050509192919290505050613735565b604051808215151515815260200191505060405180910390f35b60008060026000858152602001908152602001600020600001541415156118005781600260008581526020019081526020016000206000018190555060019050611805565b600090505b92915050565b6000600560008373ffffffffffffffffffffffffffffffffffffffff1673ffffffffffffffffffffffffffffffffffffffff168152602001908152602001600020805490509050919050565b600060036000838152602001908152602001600020600501549050919050565b6060600360008381526020019081526020016000206002018054600181600116156101000203166002900480601f0160208091040260200160405190810160405280929190818152602001828054600181600116156101000203166002900480156119235780601f106118f857610100808354040283529160200191611923565b820191906000526020600020905b81548152906001019060200180831161190657829003601f168201915b50505050509050919050565b600060036000838152602001908152602001600020600901549050919050565b600080600260008581526020019081526020016000206005018054600181600116156101000203166002900490501415156119bb57816002600085815260200190815260200160002060060160006101000a81548160ff021916908315150217905550600190506119c0565b600090505b92915050565b6060600260008381526020019081526020016000206005018054600181600116156101000203166002900480601f016020809104026020016040519081016040528092919081815260200182805460018160011615610100020316600290048015611a725780601f10611a4757610100808354040283529160200191611a72565b820191906000526020600020905b815481529060010190602001808311611a5557829003601f168201915b50505050509050919050565b60015481565b6000600460008373ffffffffffffffffffffffffffffffffffffffff1673ffffffffffffffffffffffffffffffffffffffff168152602001908152602001600020805490509050919050565b6000600760003373ffffffffffffffffffffffffffffffffffffffff1673ffffffffffffffffffffffffffffffffffffffff1681526020019081526020016000205490506000811115611baa576000600760003373ffffffffffffffffffffffffffffffffffffffff1673ffffffffffffffffffffffffffffffffffffffff168152602001908152602001600020819055503373ffffffffffffffffffffffffffffffffffffffff166108fc829081150290604051600060405180830381858888f19350505050158015611ba8573d6000803e3d6000fd5b505b50565b600080611bb8613e88565b6003600086815260200190815260200160002091506001151582600b0160009054906101000a900460ff161515141515611bf157600080fd5b816005015442111515611c0357600080fd5b600082600901541415611c3657600082600b0160006101000a81548160ff02191690831515021790555060019250611f95565b81600c0160006001846009015403815260200190815260200160002060c060405190810160405290816000820160009054906101000a900473ffffffffffffffffffffffffffffffffffffffff1673ffffffffffffffffffffffffffffffffffffffff1673ffffffffffffffffffffffffffffffffffffffff168152602001600182015481526020016002820154815260200160038201548152602001600482018054600181600116156101000203166002900480601f016020809104026020016040519081016040528092919081815260200182805460018160011615610100020316600290048015611d6b5780601f10611d4057610100808354040283529160200191611d6b565b820191906000526020600020905b815481529060010190602001808311611d4e57829003601f168201915b50505050508152602001600582018054600181600116156101000203166002900480601f016020809104026020016040519081016040528092919081815260200182805460018160011615610100020316600290048015611e0d5780601f10611de257610100808354040283529160200191611e0d565b820191906000526020600020905b815481529060010190602001808311611df057829003601f168201915b5050505050815250509050611e2a82600a015482606001516117bb565b50611e3982600a015485612031565b50611e4c82600a015482600001516126c5565b50611e5f82600a01548260800151611f9d565b50611e7282600a01548260a0015161339a565b50611e8282600a0154600061194f565b508160070154600760008460000160009054906101000a900473ffffffffffffffffffffffffffffffffffffffff1673ffffffffffffffffffffffffffffffffffffffff1673ffffffffffffffffffffffffffffffffffffffff16815260200190815260200160002060008282540192505081905550600082600b0160006101000a81548160ff0219169083151502179055507f6d5f542cd11abe179d932a89d2ae7e156687ee8f417eb229eb9b5a46ba5c4a978582600001518460070154604051808481526020018373ffffffffffffffffffffffffffffffffffffffff1673ffffffffffffffffffffffffffffffffffffffff168152602001828152602001935050505060405180910390a1600192505b505092915050565b600080600260008581526020019081526020016000206003018054600181600116156101000203166002900490501415156120065781600260008581526020019081526020016000206003019080519060200190611ffc929190613ed5565b506001905061200b565b600090505b92915050565b600060026000838152602001908152602001600020600001549050919050565b6000806002600085815260200190815260200160002060010154141515612076578160026000858152602001908152602001600020600101819055506001905061207b565b600090505b92915050565b60036020528060005260406000206000915090508060000160009054906101000a900473ffffffffffffffffffffffffffffffffffffffff16908060010160009054906101000a900473ffffffffffffffffffffffffffffffffffffffff1690806002018054600181600116156101000203166002900480601f0160208091040260200160405190810160405280929190818152602001828054600181600116156101000203166002900480156121795780601f1061214e57610100808354040283529160200191612179565b820191906000526020600020905b81548152906001019060200180831161215c57829003601f168201915b505050505090806003018054600181600116156101000203166002900480601f0160208091040260200160405190810160405280929190818152602001828054600181600116156101000203166002900480156122175780601f106121ec57610100808354040283529160200191612217565b820191906000526020600020905b8154815290600101906020018083116121fa57829003601f168201915b50505050509080600401549080600501549080600601549080600701549080600801549080600901549080600a01549080600b0160009054906101000a900460ff1690508c565b6000600760003373ffffffffffffffffffffffffffffffffffffffff1673ffffffffffffffffffffffffffffffffffffffff16815260200190815260200160002054905090565b600060036000838152602001908152602001600020600801549050919050565b6060600260008381526020019081526020016000206004018054600181600116156101000203166002900480601f0160208091040260200160405190810160405280929190818152602001828054600181600116156101000203166002900480156123715780601f1061234657610100808354040283529160200191612371565b820191906000526020600020905b81548152906001019060200180831161235457829003601f168201915b50505050509050919050565b600060036000838152602001908152602001600020600701549050919050565b600060036000838152602001908152602001600020600b0160009054906101000a900460ff169050919050565b6060806000806000806000806000806000806123e4613f55565b600360008f815260200190815260200160002061018060405190810160405290816000820160009054906101000a900473ffffffffffffffffffffffffffffffffffffffff1673ffffffffffffffffffffffffffffffffffffffff1673ffffffffffffffffffffffffffffffffffffffff1681526020016001820160009054906101000a900473ffffffffffffffffffffffffffffffffffffffff1673ffffffffffffffffffffffffffffffffffffffff1673ffffffffffffffffffffffffffffffffffffffff168152602001600282018054600181600116156101000203166002900480601f0160208091040260200160405190810160405280929190818152602001828054600181600116156101000203166002900480156125495780601f1061251e57610100808354040283529160200191612549565b820191906000526020600020905b81548152906001019060200180831161252c57829003601f168201915b50505050508152602001600382018054600181600116156101000203166002900480601f0160208091040260200160405190810160405280929190818152602001828054600181600116156101000203166002900480156125eb5780601f106125c0576101008083540402835291602001916125eb565b820191906000526020600020905b8154815290600101906020018083116125ce57829003601f168201915b50505050508152602001600482015481526020016005820154815260200160068201548152602001600782015481526020016008820154815260200160098201548152602001600a8201548152602001600b820160009054906101000a900460ff16151515158152505090508060400151816060015182608001518360a001518460c00151856101600151866000015187602001518860e001518961010001518a61012001518b61014001518b9b508a9a509c509c509c509c509c509c509c509c509c509c509c509c505091939597999b5091939597999b565b6000806002600085815260200190815260200160002060020160009054906101000a900473ffffffffffffffffffffffffffffffffffffffff1673ffffffffffffffffffffffffffffffffffffffff1614151561277a57816002600085815260200190815260200160002060020160006101000a81548173ffffffffffffffffffffffffffffffffffffffff021916908373ffffffffffffffffffffffffffffffffffffffff1602179055506001905061277f565b600090505b92915050565b60006002600083815260200190815260200160002060060160009054906101000a900460ff169050919050565b600083850142111515156127c557600080fd5b8260001015156127d457600080fd5b600015156002600084815260200190815260200160002060060160009054906101000a900460ff16151514151561280a57600080fd5b60016000815480929190600101919050559050336003600083815260200190815260200160002060000160006101000a81548173ffffffffffffffffffffffffffffffffffffffff021916908373ffffffffffffffffffffffffffffffffffffffff160217905550336003600083815260200190815260200160002060010160006101000a81548173ffffffffffffffffffffffffffffffffffffffff021916908373ffffffffffffffffffffffffffffffffffffffff160217905550866003600083815260200190815260200160002060020190805190602001906128f1929190613ed5565b508560036000838152602001908152602001600020600301908051906020019061291c929190613ed5565b5084600360008381526020019081526020016000206004018190555083850160036000838152602001908152602001600020600501819055508260036000838152602001908152602001600020600601819055508260036000838152602001908152602001600020600701819055508460036000838152602001908152602001600020600801819055506000600360008381526020019081526020016000206009018190555060005460036000838152602001908152602001600020600a0181905550600160036000838152602001908152602001600020600b0160006101000a81548160ff021916908315150217905550612a1982600161194f565b50600560003373ffffffffffffffffffffffffffffffffffffffff1673ffffffffffffffffffffffffffffffffffffffff1681526020019081526020016000208190806001815401808255809150509060018203906000526020600020016000909192909190915055507f9092e235a321fdb26d4b8ab9ef34730f1dd9171563a3f11bb70b17925d3adcd98188856040518084815260200180602001838152602001828103825284818151815260200191508051906020019080838360005b83811015612af3578082015181840152602081019050612ad8565b50505050905090810190601f168015612b205780820380516001836020036101000a031916815260200191505b5094505050505060405180910390a19695505050505050565b6000806000815480929190600101919050559050856002600083815260200190815260200160002060000181905550846002600083815260200190815260200160002060010181905550336002600083815260200190815260200160002060020160006101000a81548173ffffffffffffffffffffffffffffffffffffffff021916908373ffffffffffffffffffffffffffffffffffffffff16021790555083600260008381526020019081526020016000206003019080519060200190612c02929190613ed5565b5082600260008381526020019081526020016000206004019080519060200190612c2d929190613ed5565b5081600260008381526020019081526020016000206005019080519060200190612c58929190613ed5565b5060006002600083815260200190815260200160002060060160006101000a81548160ff021916908315150217905550600460003373ffffffffffffffffffffffffffffffffffffffff1673ffffffffffffffffffffffffffffffffffffffff1681526020019081526020016000208190806001815401808255809150509060018203906000526020600020016000909192909190915055507f7ff7675d6ac9e4dd7316cc8601efa0c6e0a9537b093048c5c8771c44ef963fe3813384604051808481526020018373ffffffffffffffffffffffffffffffffffffffff1673ffffffffffffffffffffffffffffffffffffffff16815260200180602001828103825283818151815260200191508051906020019080838360005b83811015612d8d578082015181840152602081019050612d72565b50505050905090810190601f168015612dba5780820380516001836020036101000a031916815260200191505b5094505050505060405180910390a195945050505050565b60006002600083815260200190815260200160002060020160009054906101000a900473ffffffffffffffffffffffffffffffffffffffff169050919050565b600860009054906101000a900473ffffffffffffffffffffffffffffffffffffffff1681565b600660205281600052604060002081815481101515612e5357fe5b90600052602060002001600091509150505481565b600060036000838152602001908152602001600020600401549050919050565b6000806000612e95613e88565b856003600082815260200190815260200160002060000160009054906101000a900473ffffffffffffffffffffffffffffffffffffffff1673ffffffffffffffffffffffffffffffffffffffff163373ffffffffffffffffffffffffffffffffffffffff16141515612f0657600080fd5b60036000888152602001908152602001600020935083600901549250600083111561315f5783600c01600060018503815260200190815260200160002060c060405190810160405290816000820160009054906101000a900473ffffffffffffffffffffffffffffffffffffffff1673ffffffffffffffffffffffffffffffffffffffff1673ffffffffffffffffffffffffffffffffffffffff168152602001600182015481526020016002820154815260200160038201548152602001600482018054600181600116156101000203166002900480601f01602080910402602001604051908101604052809291908181526020018280546001816001161561010002031660029004801561305c5780601f106130315761010080835404028352916020019161305c565b820191906000526020600020905b81548152906001019060200180831161303f57829003601f168201915b50505050508152602001600582018054600181600116156101000203166002900480601f0160208091040260200160405190810160405280929190818152602001828054600181600116156101000203166002900480156130fe5780601f106130d3576101008083540402835291602001916130fe565b820191906000526020600020905b8154815290600101906020018083116130e157829003601f168201915b5050505050815250509150816020015160076000846000015173ffffffffffffffffffffffffffffffffffffffff1673ffffffffffffffffffffffffffffffffffffffff168152602001908152602001600020600082825401925050819055505b858460050181905550600084600b0160006101000a81548160ff0219169083151502179055507e7c2b5519e67ff04e78fbc7f5170a67b383d62b89d2f408978178397f7e4d2f876040518082815260200191505060405180910390a1600194505050505092915050565b60006003600083815260200190815260200160002060010160009054906101000a900473ffffffffffffffffffffffffffffffffffffffff169050919050565b60008054905090565b6060600360008381526020019081526020016000206003018054600181600116156101000203166002900480601f0160208091040260200160405190810160405280929190818152602001828054600181600116156101000203166002900480156132be5780601f10613293576101008083540402835291602001916132be565b820191906000526020600020905b8154815290600101906020018083116132a157829003601f168201915b50505050509050919050565b6060600260008381526020019081526020016000206003018054600181600116156101000203166002900480601f0160208091040260200160405190810160405280929190818152602001828054600181600116156101000203166002900480156133765780601f1061334b57610100808354040283529160200191613376565b820191906000526020600020905b81548152906001019060200180831161335957829003601f168201915b50505050509050919050565b60076020528060005260406000206000915090505481565b6000806002600085815260200190815260200160002060040180546001816001161561010002031660029004905014151561340357816002600085815260200190815260200160002060040190805190602001906133f9929190613ed5565b5060019050613408565b600090505b92915050565b6000600154905090565b60046020528160005260406000208181548110151561343357fe5b90600052602060002001600091509150505481565b60006003600083815260200190815260200160002060000160009054906101000a900473ffffffffffffffffffffffffffffffffffffffff169050919050565b6005602052816000526040600020818154811015156134a357fe5b90600052602060002001600091509150505481565b60026020528060005260406000206000915090508060000154908060010154908060020160009054906101000a900473ffffffffffffffffffffffffffffffffffffffff1690806003018054600181600116156101000203166002900480601f0160208091040260200160405190810160405280929190818152602001828054600181600116156101000203166002900480156135965780601f1061356b57610100808354040283529160200191613596565b820191906000526020600020905b81548152906001019060200180831161357957829003601f168201915b505050505090806004018054600181600116156101000203166002900480601f0160208091040260200160405190810160405280929190818152602001828054600181600116156101000203166002900480156136345780601f1061360957610100808354040283529160200191613634565b820191906000526020600020905b81548152906001019060200180831161361757829003601f168201915b505050505090806005018054600181600116156101000203166002900480601f0160208091040260200160405190810160405280929190818152602001828054600181600116156101000203166002900480156136d25780601f106136a7576101008083540402835291602001916136d2565b820191906000526020600020905b8154815290600101906020018083116136b557829003601f168201915b5050505050908060060160009054906101000a900460ff16905087565b60005481565b600060036000838152602001908152602001600020600601549050919050565b600060026000838152602001908152602001600020600101549050919050565b6000806000613742613e88565b8861374b613f55565b6003600083815260200190815260200160002061018060405190810160405290816000820160009054906101000a900473ffffffffffffffffffffffffffffffffffffffff1673ffffffffffffffffffffffffffffffffffffffff1673ffffffffffffffffffffffffffffffffffffffff1681526020016001820160009054906101000a900473ffffffffffffffffffffffffffffffffffffffff1673ffffffffffffffffffffffffffffffffffffffff1673ffffffffffffffffffffffffffffffffffffffff168152602001600282018054600181600116156101000203166002900480601f0160208091040260200160405190810160405280929190818152602001828054600181600116156101000203166002900480156138b05780601f10613885576101008083540402835291602001916138b0565b820191906000526020600020905b81548152906001019060200180831161389357829003601f168201915b50505050508152602001600382018054600181600116156101000203166002900480601f0160208091040260200160405190810160405280929190818152602001828054600181600116156101000203166002900480156139525780601f1061392757610100808354040283529160200191613952565b820191906000526020600020905b81548152906001019060200180831161393557829003601f168201915b50505050508152602001600482015481526020016005820154815260200160068201548152602001600782015481526020016008820154815260200160098201548152602001600a8201548152602001600b820160009054906101000a900460ff16151515158152505090508060a0015142111515156139d157600080fd5b600360008c815260200190815260200160002094508460070154341115156139f857600080fd5b84600901600081548092919060010191905055935060c0604051908101604052803373ffffffffffffffffffffffffffffffffffffffff1681526020013481526020018b81526020018a81526020018981526020018881525085600c01600086815260200190815260200160002060008201518160000160006101000a81548173ffffffffffffffffffffffffffffffffffffffff021916908373ffffffffffffffffffffffffffffffffffffffff1602179055506020820151816001015560408201518160020155606082015181600301556080820151816004019080519060200190613ae7929190613fe5565b5060a0820151816005019080519060200190613b04929190613fe5565b50905050338560010160006101000a81548173ffffffffffffffffffffffffffffffffffffffff021916908373ffffffffffffffffffffffffffffffffffffffff160217905550348560070181905550898560080181905550600660003373ffffffffffffffffffffffffffffffffffffffff1673ffffffffffffffffffffffffffffffffffffffff1681526020019081526020016000208b90806001815401808255809150509060018203906000526020600020016000909192909190915055506000841115613e035784600c01600060018603815260200190815260200160002060c060405190810160405290816000820160009054906101000a900473ffffffffffffffffffffffffffffffffffffffff1673ffffffffffffffffffffffffffffffffffffffff1673ffffffffffffffffffffffffffffffffffffffff168152602001600182015481526020016002820154815260200160038201548152602001600482018054600181600116156101000203166002900480601f016020809104026020016040519081016040528092919081815260200182805460018160011615610100020316600290048015613d005780601f10613cd557610100808354040283529160200191613d00565b820191906000526020600020905b815481529060010190602001808311613ce357829003601f168201915b50505050508152602001600582018054600181600116156101000203166002900480601f016020809104026020016040519081016040528092919081815260200182805460018160011615610100020316600290048015613da25780601f10613d7757610100808354040283529160200191613da2565b820191906000526020600020905b815481529060010190602001808311613d8557829003601f168201915b5050505050815250509250826020015160076000856000015173ffffffffffffffffffffffffffffffffffffffff1673ffffffffffffffffffffffffffffffffffffffff168152602001908152602001600020600082825401925050819055505b7fd8fc4137b35ccaca59bb16d527fe8c54a493578f4a03f7944fa768506465e6548b3334604051808481526020018373ffffffffffffffffffffffffffffffffffffffff1673ffffffffffffffffffffffffffffffffffffffff168152602001828152602001935050505060405180910390a160019550505050505095945050505050565b60c060405190810160405280600073ffffffffffffffffffffffffffffffffffffffff16815260200160008152602001600081526020016000815260200160608152602001606081525090565b828054600181600116156101000203166002900490600052602060002090601f016020900481019282601f10613f1657805160ff1916838001178555613f44565b82800160010185558215613f44579182015b82811115613f43578251825591602001919060010190613f28565b5b509050613f519190614065565b5090565b61018060405190810160405280600073ffffffffffffffffffffffffffffffffffffffff168152602001600073ffffffffffffffffffffffffffffffffffffffff1681526020016060815260200160608152602001600081526020016000815260200160008152602001600081526020016000815260200160008152602001600081526020016000151581525090565b828054600181600116156101000203166002900490600052602060002090601f016020900481019282601f1061402657805160ff1916838001178555614054565b82800160010185558215614054579182015b82811115614053578251825591602001919060010190614038565b5b5090506140619190614065565b5090565b61408791905b8082111561408357600081600090555060010161406b565b5090565b905600a165627a7a72305820ca3ac45f238084fae22d4040dd6c57f4cf7f74828fce3a1ac0febf24939f5a3c0029",
  "source": "pragma solidity ^0.4.21;\n\ncontract ConceptAuction {\n\n    struct Asset {\n        uint256 ownerIdentifier;//TC kimlik gibi\n        uint256 timestamp;\n        address owner;\n        string ownerFirstName;\n        string ownerLastName;\n        string name;\n        bool status;//In auction or not\n    }\n\n    struct Bid {\n        address bidder;\n        uint256 amount;\n        uint256 timestamp;\n        uint256 ownerIdentifier;//TC kimlik gibi\n        string ownerFirstName;\n        string ownerLastName;\n    }\n\n    struct Auction {\n        address seller;\n        address currentBidBidder;\n        string name;\n        string description;\n        uint256 startTime;\n        uint256 expirationTime;\n        uint256 startPrice;\n        uint256 currentBidAmount;\n        uint256 currentBidTimestamp;\n        uint256 bidCount;\n        uint256 assetIdentifier;\n        bool status;//Active or not\n        mapping (uint256 => Bid) bids;\n    }\n\n    uint256 public assetCount;\n    uint256 public auctionCount;\n\n    mapping(uint256 => Asset) public assets;\n    mapping(uint256 => Auction) public auctions;\n    mapping(address => uint256[]) public assetsAddedByUser;\n    mapping(address => uint256[]) public auctionsOpenedByUser;\n    mapping(address => uint256[]) public auctionsBidByUser;\n    mapping(address => uint256) public refunds;\n\n    address public owner;\n\n    // Events that will be checked by DAPPs\n    event AssetCreation(uint256 id, address owner, string assetName);\n    event AuctionCreation(uint256 id, string name, uint256 startPrice);\n    event AuctionCancelation(uint256 id);\n    event AuctionFinish(uint256 auctionId, address winner, uint256 amount);\n    event BidPlacement(uint auctionId, address bidder, uint256 amount);\n\n    modifier onlyOwner() {\n        require(msg.sender == owner);\n        _;\n    }\n\n    modifier onlySeller(uint auctionId) {\n        require(msg.sender == auctions[auctionId].seller);\n        _;\n    }\n\n    modifier onlyLive(uint auctionId) {\n        Auction memory current = auctions[auctionId];\n        require(block.timestamp <= current.expirationTime);\n        _;\n    }\n\n    function ConceptAuction() public {\n        owner = msg.sender;\n    }\n\n    // Maybe we can add default fallback here\n    function createAsset(\n        uint256  _ownerIdentifier, uint256 _timestamp, string _ownerFirstName, string _ownerLastName,\n        string _assetName) public returns (uint256 _assetId) {\n\n        _assetId = assetCount++;\n        assets[_assetId].ownerIdentifier = _ownerIdentifier;\n        assets[_assetId].timestamp = _timestamp;\n        assets[_assetId].owner = msg.sender;\n        assets[_assetId].ownerFirstName = _ownerFirstName;\n        assets[_assetId].ownerLastName = _ownerLastName;\n        assets[_assetId].name = _assetName;\n        assets[_assetId].status = false;\n\n        assetsAddedByUser[msg.sender].push(_assetId);\n\n        emit AssetCreation(_assetId, msg.sender, _assetName);\n    }\n    \n    function createAuction(\n        string _name, string _description,\n        uint256 _startTime, uint256 _expirationTime,\n        uint256 _startPrice, uint256 _assetId) public payable returns (uint256 _auctionId) {\n\n        require(block.timestamp <= (_startTime + _expirationTime));\n        require(0 < _startPrice);\n        require(assets[_assetId].status == false);\n\n        _auctionId = auctionCount++;\n        auctions[_auctionId].seller = msg.sender;\n        auctions[_auctionId].currentBidBidder = msg.sender;\n        auctions[_auctionId].name = _name;\n        auctions[_auctionId].description = _description;\n        auctions[_auctionId].startTime = _startTime;\n        auctions[_auctionId].expirationTime = (_startTime + _expirationTime);\n        auctions[_auctionId].startPrice = _startPrice;\n        auctions[_auctionId].currentBidAmount = _startPrice;\n        auctions[_auctionId].currentBidTimestamp = _startTime;\n        auctions[_auctionId].bidCount = 0;\n        auctions[_auctionId].assetIdentifier = assetCount;\n        auctions[_auctionId].status = true;        \n        setAssetStatus(_assetId,true);\n\n        auctionsOpenedByUser[msg.sender].push(_auctionId);\n\n        emit AuctionCreation(_auctionId, _name, _startPrice);\n    }\n\n    //Asset related getters\n    function getAssetCount() public view returns(uint256){\n        return assetCount;\n    }\n\n    function getAssetOwnerIdentifier(uint256 _assetId) public view returns(uint256) {\n        return assets[_assetId].ownerIdentifier;\n    }\n\n    function getAssetTimestamp(uint256 _assetId) public view returns(uint256) {\n        return assets[_assetId].timestamp;\n    }\n\n    function getAssetOwner(uint256 _assetId) public view returns(address) {\n        return assets[_assetId].owner;\n    }\n\n    function getAssetOwnerFirstName(uint256 _assetId) public view returns(string) {\n        return assets[_assetId].ownerFirstName;\n    }\n\n    function getAssetOwnerLastName(uint256 _assetId) public view returns(string) {\n        return assets[_assetId].ownerLastName;\n    }\n\n    function getAssetName(uint256 _assetId) public view returns(string) {\n        return assets[_assetId].name;\n    }\n\n    function getAssetStatus(uint256 _assetId) public view returns(bool) {\n        return assets[_assetId].status;\n    }\n\n    function getAssetCountForUser(address _user) public view returns (uint256) {\n        return assetsAddedByUser[_user].length;\n    }\n\n    //Asset related setters\n    //Maybe add onlyContract like a limiter\n    //Transferlerde alan kii ilk onaylama, onaylamadan sonra\n    function setAssetOwnerIdentifier(uint256 _assetId, uint _newAssetOwnerIdentifier) public returns (bool) {\n        if(assets[_assetId].ownerIdentifier != 0){\n            assets[_assetId].ownerIdentifier = _newAssetOwnerIdentifier;\n            return true;\n        }else{\n            return false;\n        }\n    }\n\n    function setAssetTimestamp(uint256 _assetId, uint256 _timestamp) public returns (bool) {\n        if(assets[_assetId].timestamp != 0){\n            assets[_assetId].timestamp = _timestamp;\n            return true;\n        }else{\n            return false;\n        }\n    }\n    \n    function setOwner(uint256 _assetId, address _newOwner) public returns (bool) {\n        if(assets[_assetId].owner != 0){\n            assets[_assetId].owner = _newOwner;\n            return true;\n        }else{\n            return false;\n        }\n    }\n\n    function setAssetOwnerFirstName(uint256 _assetId, string _newAssetOwnerFirstName) public returns (bool) {\n        if(bytes(assets[_assetId].ownerFirstName).length != 0){\n            assets[_assetId].ownerFirstName = _newAssetOwnerFirstName;\n            return true;\n        }else{\n            return false;\n        }\n    }\n\n    function setAssetOwnerLastName(uint256 _assetId, string _newAssetOwnerLastName) public returns (bool) {\n        if(bytes(assets[_assetId].ownerLastName).length != 0){\n            assets[_assetId].ownerLastName = _newAssetOwnerLastName;\n            return true;\n        }else{\n            return false;\n        }\n    }\n\n    function setAssetStatus(uint256 _assetId, bool _status) public returns (bool) {\n        if(bytes(assets[_assetId].name).length != 0){\n            assets[_assetId].status = _status;\n            return true;\n        }else{\n            return false;\n        }\n    }\n\n    //Auction related getters\n    function getAuctionCount() public view returns(uint256) {\n        return auctionCount;\n    }\n\n    function getAuction(uint256 _auctionId) public view returns(\n        string,string,uint256,uint256,uint256,bool,address,address,uint256,uint256,uint256,uint256) {\n        Auction memory current = auctions[_auctionId];\n        return (\n            current.name,\n            current.description,\n            current.startTime,\n            current.expirationTime,\n            current.startPrice,\n            current.status,\n            current.seller,\n            current.currentBidBidder,\n            current.currentBidAmount,\n            current.currentBidTimestamp,\n            current.bidCount,\n            current.assetIdentifier\n            );\n    }\n\n    function getAuctionName(uint256 _auctionId) public view returns(string) {\n        return auctions[_auctionId].name;\n    }\n\n    function getAuctionDescription(uint256 _auctionId) public view returns(string) {\n        return auctions[_auctionId].description;\n    }\n\n    function getAuctionStartTime(uint256 _auctionId) public view returns(uint256) {\n        return auctions[_auctionId].startTime;\n    }\n\n    function getAuctionExpirationTime(uint256 _auctionId) public view returns(uint256) {\n        return auctions[_auctionId].expirationTime;\n    }\n\n    function getAuctionStartPrice(uint256 _auctionId) public view returns(uint256) {\n        return auctions[_auctionId].startPrice;\n    }\n\n    function getAuctionStatus(uint256 _auctionId) public view returns (bool) {\n        return auctions[_auctionId].status;\n    }\n\n    function getAuctionCurrentBidder(uint256 _auctionId) public view returns(address) {\n        return auctions[_auctionId].currentBidBidder;\n    }\n\n    function getAuctionCurrentBidAmount(uint256 _auctionId) public view returns(uint256) {\n        return auctions[_auctionId].currentBidAmount;\n    }\n\n    function getAuctionCurrentBidTimestamp(uint256 _auctionId) public view returns(uint256) {\n        return auctions[_auctionId].currentBidTimestamp;\n    }\n\n    function getAuctionSeller(uint256 _auctionId) public view returns(address) {\n        return auctions[_auctionId].seller;\n    }\n\n    function getAuctionBidCount(uint256 _auctionId) public view returns(uint256) {\n        return auctions[_auctionId].bidCount;\n    }\n\n    function getAuctionCountForUser(address _user) public view returns (uint256) {\n        return auctionsOpenedByUser[_user].length;\n    }\n\n    //Auction related setters\n    function placeBid(\n        uint256 _auctionId, uint256 _currentBidTimestamp, uint256 _ownerIdentifier,\n        string _ownerFirstName, string _ownerLastName) public payable onlyLive(_auctionId) returns (bool) {\n        Auction storage currentAuction = auctions[_auctionId];\n        require(msg.value > currentAuction.currentBidAmount);\n\n        uint256 bidId = currentAuction.bidCount++;\n        currentAuction.bids[bidId] = Bid(msg.sender, msg.value, _currentBidTimestamp, _ownerIdentifier, _ownerFirstName, _ownerLastName);\n\n        currentAuction.currentBidBidder = msg.sender;\n        currentAuction.currentBidAmount = msg.value;\n        currentAuction.currentBidTimestamp = _currentBidTimestamp;\n\n        auctionsBidByUser[msg.sender].push(_auctionId);\n\n        if (bidId > 0) {\n            Bid memory previousBid = currentAuction.bids[bidId - 1];\n            refunds[previousBid.bidder] += previousBid.amount;\n        }\n\n        emit BidPlacement(_auctionId, msg.sender, msg.value);\n\n        return true;\n    }\n\n    function cancelAuction(uint256 _auctionId, uint256 _expirationTime) public onlySeller(_auctionId) returns (bool) {\n        Auction storage currentAuction = auctions[_auctionId];\n        uint256 bidCount = currentAuction.bidCount;\n\n        if (bidCount > 0) {\n            Bid memory highestBid = currentAuction.bids[bidCount - 1];\n            refunds[highestBid.bidder] += highestBid.amount;\n        }\n        currentAuction.expirationTime = _expirationTime;\n        currentAuction.status = false;\n\n        emit AuctionCancelation(_auctionId);\n        \n        return true;\n    }\n\n    function finishAuction(uint256 _auctionId, uint256 _timestamp) public returns (bool) {\n        Auction storage currentAuction = auctions[_auctionId];\n\n        require(currentAuction.status == true);\n        require(block.timestamp > currentAuction.expirationTime);\n\n        if (currentAuction.bidCount == 0) {\n            currentAuction.status = false;\n            return true;\n        } else {\n            Bid memory highestBid = currentAuction.bids[currentAuction.bidCount - 1];\n            \n            setAssetOwnerIdentifier(currentAuction.assetIdentifier, highestBid.ownerIdentifier);\n            setAssetTimestamp(currentAuction.assetIdentifier, _timestamp);\n            setOwner(currentAuction.assetIdentifier, highestBid.bidder);\n            setAssetOwnerFirstName(currentAuction.assetIdentifier, highestBid.ownerFirstName);\n            setAssetOwnerLastName(currentAuction.assetIdentifier, highestBid.ownerLastName);\n            setAssetStatus(currentAuction.assetIdentifier, false);\n\n            refunds[currentAuction.seller] += currentAuction.currentBidAmount;\n            currentAuction.status = false;\n\n            emit AuctionFinish(_auctionId, highestBid.bidder, currentAuction.currentBidAmount);\n            \n            return true;\n        }\n    }\n\n    //Refund related methods\n    function getRefundValue() public view returns (uint256) {\n        return refunds[msg.sender];\n    }\n\n    function transferRefund() public {\n        uint256 refundAmount = refunds[msg.sender];\n        if (refundAmount > 0) {\n            refunds[msg.sender] = 0;\n            msg.sender.transfer(refundAmount);\n        }\n    }\n}\n",
  "sourcePath": "/Users/birkandenizer/auction/contracts/ConceptAuction.sol",
  "compiler": {
    "name": "solc",
    "version": "0.4.23+commit.124ca40d.Emscripten.clang"
  },
  "schemaVersion": "2.0.0",
  "updatedAt": "2018-06-12T12:52:28.402Z"
}