{
  "contractName": "ConceptAuction",
  "abi": [
    {
      "inputs": [],
      "payable": false,
      "stateMutability": "nonpayable",
      "type": "constructor"
    },
    {
      "anonymous": false,
      "inputs": [
        {
          "indexed": false,
          "name": "id",
          "type": "uint256"
        },
        {
          "indexed": false,
          "name": "owner",
          "type": "address"
        },
        {
          "indexed": false,
          "name": "assetName",
          "type": "string"
        }
      ],
      "name": "AssetCreation",
      "type": "event"
    },
    {
      "anonymous": false,
      "inputs": [
        {
          "indexed": false,
          "name": "id",
          "type": "uint256"
        },
        {
          "indexed": false,
          "name": "name",
          "type": "string"
        },
        {
          "indexed": false,
          "name": "startPrice",
          "type": "uint256"
        }
      ],
      "name": "AuctionCreation",
      "type": "event"
    },
    {
      "anonymous": false,
      "inputs": [
        {
          "indexed": false,
          "name": "id",
          "type": "uint256"
        }
      ],
      "name": "AuctionCancelation",
      "type": "event"
    },
    {
      "anonymous": false,
      "inputs": [
        {
          "indexed": false,
          "name": "auctionId",
          "type": "uint256"
        },
        {
          "indexed": false,
          "name": "winner",
          "type": "address"
        },
        {
          "indexed": false,
          "name": "amount",
          "type": "uint256"
        }
      ],
      "name": "AuctionFinish",
      "type": "event"
    },
    {
      "anonymous": false,
      "inputs": [
        {
          "indexed": false,
          "name": "auctionId",
          "type": "uint256"
        },
        {
          "indexed": false,
          "name": "bidder",
          "type": "address"
        },
        {
          "indexed": false,
          "name": "amount",
          "type": "uint256"
        }
      ],
      "name": "BidPlacement",
      "type": "event"
    },
    {
      "constant": false,
      "inputs": [
        {
          "name": "_ownerIdentifier",
          "type": "uint256"
        },
        {
          "name": "_timestamp",
          "type": "uint256"
        },
        {
          "name": "_ownerFirstName",
          "type": "string"
        },
        {
          "name": "_ownerLastName",
          "type": "string"
        },
        {
          "name": "_assetName",
          "type": "string"
        }
      ],
      "name": "createAsset",
      "outputs": [
        {
          "name": "_assetId",
          "type": "uint256"
        }
      ],
      "payable": false,
      "stateMutability": "nonpayable",
      "type": "function"
    },
    {
      "constant": false,
      "inputs": [
        {
          "name": "_name",
          "type": "string"
        },
        {
          "name": "_description",
          "type": "string"
        },
        {
          "name": "_startTime",
          "type": "uint256"
        },
        {
          "name": "_expirationTime",
          "type": "uint256"
        },
        {
          "name": "_startPrice",
          "type": "uint256"
        },
        {
          "name": "_assetId",
          "type": "uint256"
        }
      ],
      "name": "createAuction",
      "outputs": [
        {
          "name": "_auctionId",
          "type": "uint256"
        }
      ],
      "payable": true,
      "stateMutability": "payable",
      "type": "function"
    },
    {
      "constant": true,
      "inputs": [
        {
          "name": "_assetId",
          "type": "uint256"
        }
      ],
      "name": "getAsset",
      "outputs": [
        {
          "name": "",
          "type": "uint256"
        },
        {
          "name": "",
          "type": "uint256"
        },
        {
          "name": "",
          "type": "address"
        },
        {
          "name": "",
          "type": "string"
        },
        {
          "name": "",
          "type": "string"
        },
        {
          "name": "",
          "type": "string"
        },
        {
          "name": "",
          "type": "bool"
        }
      ],
      "payable": false,
      "stateMutability": "view",
      "type": "function"
    },
    {
      "constant": true,
      "inputs": [],
      "name": "getAssetCount",
      "outputs": [
        {
          "name": "",
          "type": "uint256"
        }
      ],
      "payable": false,
      "stateMutability": "view",
      "type": "function"
    },
    {
      "constant": true,
      "inputs": [
        {
          "name": "_assetId",
          "type": "uint256"
        }
      ],
      "name": "getAssetOwnerIdentifier",
      "outputs": [
        {
          "name": "",
          "type": "uint256"
        }
      ],
      "payable": false,
      "stateMutability": "view",
      "type": "function"
    },
    {
      "constant": true,
      "inputs": [
        {
          "name": "_assetId",
          "type": "uint256"
        }
      ],
      "name": "getAssetTimestamp",
      "outputs": [
        {
          "name": "",
          "type": "uint256"
        }
      ],
      "payable": false,
      "stateMutability": "view",
      "type": "function"
    },
    {
      "constant": true,
      "inputs": [
        {
          "name": "_assetId",
          "type": "uint256"
        }
      ],
      "name": "getAssetOwner",
      "outputs": [
        {
          "name": "",
          "type": "address"
        }
      ],
      "payable": false,
      "stateMutability": "view",
      "type": "function"
    },
    {
      "constant": true,
      "inputs": [
        {
          "name": "_assetId",
          "type": "uint256"
        }
      ],
      "name": "getAssetOwnerFirstName",
      "outputs": [
        {
          "name": "",
          "type": "string"
        }
      ],
      "payable": false,
      "stateMutability": "view",
      "type": "function"
    },
    {
      "constant": true,
      "inputs": [
        {
          "name": "_assetId",
          "type": "uint256"
        }
      ],
      "name": "getAssetOwnerLastName",
      "outputs": [
        {
          "name": "",
          "type": "string"
        }
      ],
      "payable": false,
      "stateMutability": "view",
      "type": "function"
    },
    {
      "constant": true,
      "inputs": [
        {
          "name": "_assetId",
          "type": "uint256"
        }
      ],
      "name": "getAssetName",
      "outputs": [
        {
          "name": "",
          "type": "string"
        }
      ],
      "payable": false,
      "stateMutability": "view",
      "type": "function"
    },
    {
      "constant": true,
      "inputs": [
        {
          "name": "_assetId",
          "type": "uint256"
        }
      ],
      "name": "getAssetStatus",
      "outputs": [
        {
          "name": "",
          "type": "bool"
        }
      ],
      "payable": false,
      "stateMutability": "view",
      "type": "function"
    },
    {
      "constant": true,
      "inputs": [
        {
          "name": "_user",
          "type": "address"
        }
      ],
      "name": "getAssetCountForUser",
      "outputs": [
        {
          "name": "",
          "type": "uint256"
        }
      ],
      "payable": false,
      "stateMutability": "view",
      "type": "function"
    },
    {
      "constant": true,
      "inputs": [],
      "name": "getAuctionCount",
      "outputs": [
        {
          "name": "",
          "type": "uint256"
        }
      ],
      "payable": false,
      "stateMutability": "view",
      "type": "function"
    },
    {
      "constant": true,
      "inputs": [
        {
          "name": "_auctionId",
          "type": "uint256"
        }
      ],
      "name": "getAuction",
      "outputs": [
        {
          "name": "",
          "type": "string"
        },
        {
          "name": "",
          "type": "string"
        },
        {
          "name": "",
          "type": "uint256"
        },
        {
          "name": "",
          "type": "uint256"
        },
        {
          "name": "",
          "type": "uint256"
        },
        {
          "name": "",
          "type": "bool"
        },
        {
          "name": "",
          "type": "address"
        },
        {
          "name": "",
          "type": "address"
        },
        {
          "name": "",
          "type": "uint256"
        },
        {
          "name": "",
          "type": "uint256"
        },
        {
          "name": "",
          "type": "uint256"
        },
        {
          "name": "",
          "type": "uint256"
        }
      ],
      "payable": false,
      "stateMutability": "view",
      "type": "function"
    },
    {
      "constant": true,
      "inputs": [
        {
          "name": "_auctionId",
          "type": "uint256"
        }
      ],
      "name": "getAuctionName",
      "outputs": [
        {
          "name": "",
          "type": "string"
        }
      ],
      "payable": false,
      "stateMutability": "view",
      "type": "function"
    },
    {
      "constant": true,
      "inputs": [
        {
          "name": "_auctionId",
          "type": "uint256"
        }
      ],
      "name": "getAuctionDescription",
      "outputs": [
        {
          "name": "",
          "type": "string"
        }
      ],
      "payable": false,
      "stateMutability": "view",
      "type": "function"
    },
    {
      "constant": true,
      "inputs": [
        {
          "name": "_auctionId",
          "type": "uint256"
        }
      ],
      "name": "getAuctionStartTime",
      "outputs": [
        {
          "name": "",
          "type": "uint256"
        }
      ],
      "payable": false,
      "stateMutability": "view",
      "type": "function"
    },
    {
      "constant": true,
      "inputs": [
        {
          "name": "_auctionId",
          "type": "uint256"
        }
      ],
      "name": "getAuctionExpirationTime",
      "outputs": [
        {
          "name": "",
          "type": "uint256"
        }
      ],
      "payable": false,
      "stateMutability": "view",
      "type": "function"
    },
    {
      "constant": true,
      "inputs": [
        {
          "name": "_auctionId",
          "type": "uint256"
        }
      ],
      "name": "getAuctionStartPrice",
      "outputs": [
        {
          "name": "",
          "type": "uint256"
        }
      ],
      "payable": false,
      "stateMutability": "view",
      "type": "function"
    },
    {
      "constant": true,
      "inputs": [
        {
          "name": "_auctionId",
          "type": "uint256"
        }
      ],
      "name": "getAuctionStatus",
      "outputs": [
        {
          "name": "",
          "type": "bool"
        }
      ],
      "payable": false,
      "stateMutability": "view",
      "type": "function"
    },
    {
      "constant": true,
      "inputs": [
        {
          "name": "_auctionId",
          "type": "uint256"
        }
      ],
      "name": "getAuctionCurrentBidder",
      "outputs": [
        {
          "name": "",
          "type": "address"
        }
      ],
      "payable": false,
      "stateMutability": "view",
      "type": "function"
    },
    {
      "constant": true,
      "inputs": [
        {
          "name": "_auctionId",
          "type": "uint256"
        }
      ],
      "name": "getAuctionCurrentBidAmount",
      "outputs": [
        {
          "name": "",
          "type": "uint256"
        }
      ],
      "payable": false,
      "stateMutability": "view",
      "type": "function"
    },
    {
      "constant": true,
      "inputs": [
        {
          "name": "_auctionId",
          "type": "uint256"
        }
      ],
      "name": "getAuctionCurrentBidTimestamp",
      "outputs": [
        {
          "name": "",
          "type": "uint256"
        }
      ],
      "payable": false,
      "stateMutability": "view",
      "type": "function"
    },
    {
      "constant": true,
      "inputs": [
        {
          "name": "_auctionId",
          "type": "uint256"
        }
      ],
      "name": "getAuctionSeller",
      "outputs": [
        {
          "name": "",
          "type": "address"
        }
      ],
      "payable": false,
      "stateMutability": "view",
      "type": "function"
    },
    {
      "constant": true,
      "inputs": [
        {
          "name": "_auctionId",
          "type": "uint256"
        }
      ],
      "name": "getAuctionBidCount",
      "outputs": [
        {
          "name": "",
          "type": "uint256"
        }
      ],
      "payable": false,
      "stateMutability": "view",
      "type": "function"
    },
    {
      "constant": true,
      "inputs": [
        {
          "name": "_user",
          "type": "address"
        }
      ],
      "name": "getAuctionCountForUser",
      "outputs": [
        {
          "name": "",
          "type": "uint256"
        }
      ],
      "payable": false,
      "stateMutability": "view",
      "type": "function"
    },
    {
      "constant": false,
      "inputs": [
        {
          "name": "_auctionId",
          "type": "uint256"
        },
        {
          "name": "_currentBidTimestamp",
          "type": "uint256"
        },
        {
          "name": "_ownerIdentifier",
          "type": "uint256"
        },
        {
          "name": "_ownerFirstName",
          "type": "string"
        },
        {
          "name": "_ownerLastName",
          "type": "string"
        }
      ],
      "name": "placeBid",
      "outputs": [
        {
          "name": "",
          "type": "bool"
        }
      ],
      "payable": true,
      "stateMutability": "payable",
      "type": "function"
    },
    {
      "constant": false,
      "inputs": [
        {
          "name": "_auctionId",
          "type": "uint256"
        },
        {
          "name": "_expirationTime",
          "type": "uint256"
        }
      ],
      "name": "cancelAuction",
      "outputs": [
        {
          "name": "",
          "type": "bool"
        }
      ],
      "payable": false,
      "stateMutability": "nonpayable",
      "type": "function"
    },
    {
      "constant": false,
      "inputs": [
        {
          "name": "_auctionId",
          "type": "uint256"
        },
        {
          "name": "_timestamp",
          "type": "uint256"
        }
      ],
      "name": "finishAuction",
      "outputs": [
        {
          "name": "",
          "type": "bool"
        }
      ],
      "payable": false,
      "stateMutability": "nonpayable",
      "type": "function"
    },
    {
      "constant": true,
      "inputs": [],
      "name": "getRefundValue",
      "outputs": [
        {
          "name": "",
          "type": "uint256"
        }
      ],
      "payable": false,
      "stateMutability": "view",
      "type": "function"
    },
    {
      "constant": false,
      "inputs": [],
      "name": "transferRefund",
      "outputs": [],
      "payable": false,
      "stateMutability": "nonpayable",
      "type": "function"
    },
    {
      "constant": false,
      "inputs": [
        {
          "name": "_highestBidder",
          "type": "address"
        }
      ],
      "name": "transferRefundNow",
      "outputs": [],
      "payable": false,
      "stateMutability": "nonpayable",
      "type": "function"
    }
  ],
  "bytecode": "0x608060405234801561001057600080fd5b5033600860006101000a81548173ffffffffffffffffffffffffffffffffffffffff021916908373ffffffffffffffffffffffffffffffffffffffff160217905550613db3806100616000396000f300608060405260043610610196576000357c0100000000000000000000000000000000000000000000000000000000900463ffffffff1680630ed0b8ca1461019b578063113d3f61146101f25780631491420c146102335780632158d95a146102d957806324fc099b1461031a5780632bff3ed8146103c05780632d2295ad1461041757806330b1bdce1461042e578063429825f61461047d57806359e54095146104be5780635b38ae00146104e95780636fcf01111461052a5780637232d8b3146105d05780637765c52c1461061157806378bd793514610656578063823a65f51461080a57806383575dd31461084f5780638d1fb818146108d15780638d5802e214610964578063919e84f5146109d157806392ba907514610a125780639aea5a2914610a61578063a0aead4d14610ace578063aa7ac8ab14610af9578063b107272514610b9f578063c44e664014610c45578063c50c44cf14610c70578063eac8f5b814610cdd578063f5ddbb1614610ea7578063f8fac9b714610eea578063fafeba4614610f2b578063fda09dd814610f6c575b600080fd5b3480156101a757600080fd5b506101dc600480360381019080803573ffffffffffffffffffffffffffffffffffffffff169060200190929190505050610fe8565b6040518082815260200191505060405180910390f35b3480156101fe57600080fd5b5061021d60048036038101908080359060200190929190505050611034565b6040518082815260200191505060405180910390f35b34801561023f57600080fd5b5061025e60048036038101908080359060200190929190505050611054565b6040518080602001828103825283818151815260200191508051906020019080838360005b8381101561029e578082015181840152602081019050610283565b50505050905090810190601f1680156102cb5780820380516001836020036101000a031916815260200191505b509250505060405180910390f35b3480156102e557600080fd5b506103046004803603810190808035906020019092919050505061110c565b6040518082815260200191505060405180910390f35b34801561032657600080fd5b506103456004803603810190808035906020019092919050505061112c565b6040518080602001828103825283818151815260200191508051906020019080838360005b8381101561038557808201518184015260208101905061036a565b50505050905090810190601f1680156103b25780820380516001836020036101000a031916815260200191505b509250505060405180910390f35b3480156103cc57600080fd5b50610401600480360381019080803573ffffffffffffffffffffffffffffffffffffffff1690602001909291905050506111e4565b6040518082815260200191505060405180910390f35b34801561042357600080fd5b5061042c611230565b005b34801561043a57600080fd5b50610463600480360381019080803590602001909291908035906020019092919050505061130d565b604051808215151515815260200191505060405180910390f35b34801561048957600080fd5b506104a86004803603810190808035906020019092919050505061186e565b6040518082815260200191505060405180910390f35b3480156104ca57600080fd5b506104d361188e565b6040518082815260200191505060405180910390f35b3480156104f557600080fd5b50610514600480360381019080803590602001909291905050506118d5565b6040518082815260200191505060405180910390f35b34801561053657600080fd5b50610555600480360381019080803590602001909291905050506118f5565b6040518080602001828103825283818151815260200191508051906020019080838360005b8381101561059557808201518184015260208101905061057a565b50505050905090810190601f1680156105c25780820380516001836020036101000a031916815260200191505b509250505060405180910390f35b3480156105dc57600080fd5b506105fb600480360381019080803590602001909291905050506119ad565b6040518082815260200191505060405180910390f35b34801561061d57600080fd5b5061063c600480360381019080803590602001909291905050506119cd565b604051808215151515815260200191505060405180910390f35b34801561066257600080fd5b50610681600480360381019080803590602001909291905050506119fa565b6040518080602001806020018d81526020018c81526020018b81526020018a1515151581526020018973ffffffffffffffffffffffffffffffffffffffff1673ffffffffffffffffffffffffffffffffffffffff1681526020018873ffffffffffffffffffffffffffffffffffffffff1673ffffffffffffffffffffffffffffffffffffffff16815260200187815260200186815260200185815260200184815260200183810383528f818151815260200191508051906020019080838360005b8381101561075d578082015181840152602081019050610742565b50505050905090810190601f16801561078a5780820380516001836020036101000a031916815260200191505b5083810382528e818151815260200191508051906020019080838360005b838110156107c35780820151818401526020810190506107a8565b50505050905090810190601f1680156107f05780820380516001836020036101000a031916815260200191505b509e50505050505050505050505050505060405180910390f35b34801561081657600080fd5b5061083560048036038101908080359060200190929190505050611cf5565b604051808215151515815260200191505060405180910390f35b6108bb60048036038101908080359060200190820180359060200191909192939192939080359060200190820180359060200191909192939192939080359060200190929190803590602001909291908035906020019092919080359060200190929190505050611d22565b6040518082815260200191505060405180910390f35b3480156108dd57600080fd5b5061094e6004803603810190808035906020019092919080359060200190929190803590602001908201803590602001919091929391929390803590602001908201803590602001919091929391929390803590602001908201803590602001919091929391929390505050612225565b6040518082815260200191505060405180910390f35b34801561097057600080fd5b5061098f60048036038101908080359060200190929190505050612467565b604051808273ffffffffffffffffffffffffffffffffffffffff1673ffffffffffffffffffffffffffffffffffffffff16815260200191505060405180910390f35b3480156109dd57600080fd5b506109fc600480360381019080803590602001909291905050506124a7565b6040518082815260200191505060405180910390f35b348015610a1e57600080fd5b50610a4760048036038101908080359060200190929190803590602001909291905050506124c7565b604051808215151515815260200191505060405180910390f35b348015610a6d57600080fd5b50610a8c600480360381019080803590602001909291905050506128dd565b604051808273ffffffffffffffffffffffffffffffffffffffff1673ffffffffffffffffffffffffffffffffffffffff16815260200191505060405180910390f35b348015610ada57600080fd5b50610ae361291d565b6040518082815260200191505060405180910390f35b348015610b0557600080fd5b50610b2460048036038101908080359060200190929190505050612926565b6040518080602001828103825283818151815260200191508051906020019080838360005b83811015610b64578082015181840152602081019050610b49565b50505050905090810190601f168015610b915780820380516001836020036101000a031916815260200191505b509250505060405180910390f35b348015610bab57600080fd5b50610bca600480360381019080803590602001909291905050506129de565b6040518080602001828103825283818151815260200191508051906020019080838360005b83811015610c0a578082015181840152602081019050610bef565b50505050905090810190601f168015610c375780820380516001836020036101000a031916815260200191505b509250505060405180910390f35b348015610c5157600080fd5b50610c5a612a96565b6040518082815260200191505060405180910390f35b348015610c7c57600080fd5b50610c9b60048036038101908080359060200190929190505050612aa0565b604051808273ffffffffffffffffffffffffffffffffffffffff1673ffffffffffffffffffffffffffffffffffffffff16815260200191505060405180910390f35b348015610ce957600080fd5b50610d0860048036038101908080359060200190929190505050612ae0565b604051808881526020018781526020018673ffffffffffffffffffffffffffffffffffffffff1673ffffffffffffffffffffffffffffffffffffffff16815260200180602001806020018060200185151515158152602001848103845288818151815260200191508051906020019080838360005b83811015610d98578082015181840152602081019050610d7d565b50505050905090810190601f168015610dc55780820380516001836020036101000a031916815260200191505b50848103835287818151815260200191508051906020019080838360005b83811015610dfe578082015181840152602081019050610de3565b50505050905090810190601f168015610e2b5780820380516001836020036101000a031916815260200191505b50848103825286818151815260200191508051906020019080838360005b83811015610e64578082015181840152602081019050610e49565b50505050905090810190601f168015610e915780820380516001836020036101000a031916815260200191505b509a505050505050505050505060405180910390f35b348015610eb357600080fd5b50610ee8600480360381019080803573ffffffffffffffffffffffffffffffffffffffff169060200190929190505050612dc6565b005b348015610ef657600080fd5b50610f1560048036038101908080359060200190929190505050612ea4565b6040518082815260200191505060405180910390f35b348015610f3757600080fd5b50610f5660048036038101908080359060200190929190505050612ec4565b6040518082815260200191505060405180910390f35b610fce600480360381019080803590602001909291908035906020019092919080359060200190929190803590602001908201803590602001919091929391929390803590602001908201803590602001919091929391929390505050612ee4565b604051808215151515815260200191505060405180910390f35b6000600560008373ffffffffffffffffffffffffffffffffffffffff1673ffffffffffffffffffffffffffffffffffffffff168152602001908152602001600020805490509050919050565b600060036000838152602001908152602001600020600501549050919050565b6060600360008381526020019081526020016000206002018054600181600116156101000203166002900480601f0160208091040260200160405190810160405280929190818152602001828054600181600116156101000203166002900480156111005780601f106110d557610100808354040283529160200191611100565b820191906000526020600020905b8154815290600101906020018083116110e357829003601f168201915b50505050509050919050565b600060036000838152602001908152602001600020600901549050919050565b6060600260008381526020019081526020016000206005018054600181600116156101000203166002900480601f0160208091040260200160405190810160405280929190818152602001828054600181600116156101000203166002900480156111d85780601f106111ad576101008083540402835291602001916111d8565b820191906000526020600020905b8154815290600101906020018083116111bb57829003601f168201915b50505050509050919050565b6000600460008373ffffffffffffffffffffffffffffffffffffffff1673ffffffffffffffffffffffffffffffffffffffff168152602001908152602001600020805490509050919050565b6000600760003373ffffffffffffffffffffffffffffffffffffffff1673ffffffffffffffffffffffffffffffffffffffff168152602001908152602001600020549050600081111561130a576000600760003373ffffffffffffffffffffffffffffffffffffffff1673ffffffffffffffffffffffffffffffffffffffff168152602001908152602001600020819055503373ffffffffffffffffffffffffffffffffffffffff166108fc829081150290604051600060405180830381858888f19350505050158015611308573d6000803e3d6000fd5b505b50565b600080611318613aaf565b6003600086815260200190815260200160002091506001151582600b0160009054906101000a900460ff161515141515611406576040517f08c379a00000000000000000000000000000000000000000000000000000000081526004018080602001828103825260438152602001807f46696e6973682061756374696f6e206661696c65642061732061756374696f6e81526020017f206e6565647320746f2062652061637469766520746f2062652066696e69736881526020017f65642e000000000000000000000000000000000000000000000000000000000081525060600191505060405180910390fd5b8160050154841115156114a7576040517f08c379a00000000000000000000000000000000000000000000000000000000081526004018080602001828103825260388152602001807f46696e6973682061756374696f6e206661696c6564206173206578706972617481526020017f696f6e2074696d65206973206e6f7420726561636865642e000000000000000081525060400191505060405180910390fd5b6000826009015414156114da57600082600b0160006101000a81548160ff02191690831515021790555060019250611866565b81600c0160006001846009015403815260200190815260200160002060c060405190810160405290816000820160009054906101000a900473ffffffffffffffffffffffffffffffffffffffff1673ffffffffffffffffffffffffffffffffffffffff1673ffffffffffffffffffffffffffffffffffffffff168152602001600182015481526020016002820154815260200160038201548152602001600482018054600181600116156101000203166002900480601f01602080910402602001604051908101604052809291908181526020018280546001816001161561010002031660029004801561160f5780601f106115e45761010080835404028352916020019161160f565b820191906000526020600020905b8154815290600101906020018083116115f257829003601f168201915b50505050508152602001600582018054600181600116156101000203166002900480601f0160208091040260200160405190810160405280929190818152602001828054600181600116156101000203166002900480156116b15780601f10611686576101008083540402835291602001916116b1565b820191906000526020600020905b81548152906001019060200180831161169457829003601f168201915b50505050508152505090506116ce82600a015482606001516137f0565b506116dd82600a015485613840565b506116f082600a01548260000151613890565b5061170382600a01548260800151613950565b5061171682600a01548260a001516139c4565b5061172682600a01546000613a38565b508160070154600760008460000160009054906101000a900473ffffffffffffffffffffffffffffffffffffffff1673ffffffffffffffffffffffffffffffffffffffff1673ffffffffffffffffffffffffffffffffffffffff16815260200190815260200160002060008282540192505081905550600082600b0160006101000a81548160ff0219169083151502179055507f6d5f542cd11abe179d932a89d2ae7e156687ee8f417eb229eb9b5a46ba5c4a978582600001518460070154604051808481526020018373ffffffffffffffffffffffffffffffffffffffff1673ffffffffffffffffffffffffffffffffffffffff168152602001828152602001935050505060405180910390a16118618260000160009054906101000a900473ffffffffffffffffffffffffffffffffffffffff16612dc6565b600192505b505092915050565b600060026000838152602001908152602001600020600001549050919050565b6000600760003373ffffffffffffffffffffffffffffffffffffffff1673ffffffffffffffffffffffffffffffffffffffff16815260200190815260200160002054905090565b600060036000838152602001908152602001600020600801549050919050565b6060600260008381526020019081526020016000206004018054600181600116156101000203166002900480601f0160208091040260200160405190810160405280929190818152602001828054600181600116156101000203166002900480156119a15780601f10611976576101008083540402835291602001916119a1565b820191906000526020600020905b81548152906001019060200180831161198457829003601f168201915b50505050509050919050565b600060036000838152602001908152602001600020600701549050919050565b600060036000838152602001908152602001600020600b0160009054906101000a900460ff169050919050565b606080600080600080600080600080600080611a14613afc565b600360008f815260200190815260200160002061018060405190810160405290816000820160009054906101000a900473ffffffffffffffffffffffffffffffffffffffff1673ffffffffffffffffffffffffffffffffffffffff1673ffffffffffffffffffffffffffffffffffffffff1681526020016001820160009054906101000a900473ffffffffffffffffffffffffffffffffffffffff1673ffffffffffffffffffffffffffffffffffffffff1673ffffffffffffffffffffffffffffffffffffffff168152602001600282018054600181600116156101000203166002900480601f016020809104026020016040519081016040528092919081815260200182805460018160011615610100020316600290048015611b795780601f10611b4e57610100808354040283529160200191611b79565b820191906000526020600020905b815481529060010190602001808311611b5c57829003601f168201915b50505050508152602001600382018054600181600116156101000203166002900480601f016020809104026020016040519081016040528092919081815260200182805460018160011615610100020316600290048015611c1b5780601f10611bf057610100808354040283529160200191611c1b565b820191906000526020600020905b815481529060010190602001808311611bfe57829003601f168201915b50505050508152602001600482015481526020016005820154815260200160068201548152602001600782015481526020016008820154815260200160098201548152602001600a8201548152602001600b820160009054906101000a900460ff16151515158152505090508060400151816060015182608001518360a001518460c00151856101600151866000015187602001518860e001518961010001518a61012001518b61014001518b9b508a9a509c509c509c509c509c509c509c509c509c509c509c509c505091939597999b5091939597999b565b60006002600083815260200190815260200160002060060160009054906101000a900460ff169050919050565b6000836000101515611dc2576040517f08c379a000000000000000000000000000000000000000000000000000000000815260040180806020018281038252602f8152602001807f45787069726174696f6e2074696d652063616e6e6f742062652073657420746f81526020017f207a65726f206f72206c6f7765722e000000000000000000000000000000000081525060400191505060405180910390fd5b826000101515611e60576040517f08c379a000000000000000000000000000000000000000000000000000000000815260040180806020018281038252602b8152602001807f53746172742070726963652063616e6e6f742062652073657420746f207a657281526020017f6f206f72206c6f7765722e00000000000000000000000000000000000000000081525060400191505060405180910390fd5b600015156002600084815260200190815260200160002060060160009054906101000a900460ff161515141515611f4b576040517f08c379a00000000000000000000000000000000000000000000000000000000081526004018080602001828103825260488152602001807f41737365742063616e6e6f742062652061756374696f6e65642061732069742081526020017f697320616c726561647920696e20616e6f746865722061756374696f6e20726981526020017f676874206e6f772e00000000000000000000000000000000000000000000000081525060600191505060405180910390fd5b60016000815480929190600101919050559050336003600083815260200190815260200160002060000160006101000a81548173ffffffffffffffffffffffffffffffffffffffff021916908373ffffffffffffffffffffffffffffffffffffffff160217905550336003600083815260200190815260200160002060010160006101000a81548173ffffffffffffffffffffffffffffffffffffffff021916908373ffffffffffffffffffffffffffffffffffffffff160217905550888860036000848152602001908152602001600020600201919061202d929190613b8c565b508686600360008481526020019081526020016000206003019190612053929190613b8c565b508460036000838152602001908152602001600020600401819055508385016003600083815260200190815260200160002060050181905550826003600083815260200190815260200160002060060181905550826003600083815260200190815260200160002060070181905550846003600083815260200190815260200160002060080181905550600060036000838152602001908152602001600020600901819055508160036000838152602001908152602001600020600a0181905550600160036000838152602001908152602001600020600b0160006101000a81548160ff02191690831515021790555061214e826001613a38565b50600560003373ffffffffffffffffffffffffffffffffffffffff1673ffffffffffffffffffffffffffffffffffffffff1681526020019081526020016000208190806001815401808255809150509060018203906000526020600020016000909192909190915055507f9092e235a321fdb26d4b8ab9ef34730f1dd9171563a3f11bb70b17925d3adcd9818a8a866040518085815260200180602001838152602001828103825285858281815260200192508082843782019150509550505050505060405180910390a198975050505050505050565b6000806000815480929190600101919050559050886002600083815260200190815260200160002060000181905550876002600083815260200190815260200160002060010181905550336002600083815260200190815260200160002060020160006101000a81548173ffffffffffffffffffffffffffffffffffffffff021916908373ffffffffffffffffffffffffffffffffffffffff16021790555086866002600084815260200190815260200160002060030191906122e9929190613b8c565b50848460026000848152602001908152602001600020600401919061230f929190613b8c565b508282600260008481526020019081526020016000206005019190612335929190613b8c565b5060006002600083815260200190815260200160002060060160006101000a81548160ff021916908315150217905550600460003373ffffffffffffffffffffffffffffffffffffffff1673ffffffffffffffffffffffffffffffffffffffff1681526020019081526020016000208190806001815401808255809150509060018203906000526020600020016000909192909190915055507f7ff7675d6ac9e4dd7316cc8601efa0c6e0a9537b093048c5c8771c44ef963fe381338585604051808581526020018473ffffffffffffffffffffffffffffffffffffffff1673ffffffffffffffffffffffffffffffffffffffff16815260200180602001828103825284848281815260200192508082843782019150509550505050505060405180910390a198975050505050505050565b60006002600083815260200190815260200160002060020160009054906101000a900473ffffffffffffffffffffffffffffffffffffffff169050919050565b600060036000838152602001908152602001600020600401549050919050565b60008060006124d4613aaf565b6000866003600082815260200190815260200160002060000160009054906101000a900473ffffffffffffffffffffffffffffffffffffffff1673ffffffffffffffffffffffffffffffffffffffff163373ffffffffffffffffffffffffffffffffffffffff161415156125d6576040517f08c379a000000000000000000000000000000000000000000000000000000000815260040180806020018281038252602c8152602001807f4f6e6c792073656c6c657220697320616c6c6f77656420746f2075736520746881526020017f6973206f7065726174696f6e000000000000000000000000000000000000000081525060400191505060405180910390fd5b60036000898152602001908152602001600020945084600901549350600084111561282f5784600c01600060018603815260200190815260200160002060c060405190810160405290816000820160009054906101000a900473ffffffffffffffffffffffffffffffffffffffff1673ffffffffffffffffffffffffffffffffffffffff1673ffffffffffffffffffffffffffffffffffffffff168152602001600182015481526020016002820154815260200160038201548152602001600482018054600181600116156101000203166002900480601f01602080910402602001604051908101604052809291908181526020018280546001816001161561010002031660029004801561272c5780601f106127015761010080835404028352916020019161272c565b820191906000526020600020905b81548152906001019060200180831161270f57829003601f168201915b50505050508152602001600582018054600181600116156101000203166002900480601f0160208091040260200160405190810160405280929190818152602001828054600181600116156101000203166002900480156127ce5780601f106127a3576101008083540402835291602001916127ce565b820191906000526020600020905b8154815290600101906020018083116127b157829003601f168201915b5050505050815250509250826020015160076000856000015173ffffffffffffffffffffffffffffffffffffffff1673ffffffffffffffffffffffffffffffffffffffff168152602001908152602001600020600082825401925050819055505b868560050181905550600085600b0160006101000a81548160ff0219169083151502179055506002600086600a01548152602001908152602001600020915060008260060160006101000a81548160ff0219169083151502179055507e7c2b5519e67ff04e78fbc7f5170a67b383d62b89d2f408978178397f7e4d2f886040518082815260200191505060405180910390a16128ce8360000151612dc6565b60019550505050505092915050565b60006003600083815260200190815260200160002060010160009054906101000a900473ffffffffffffffffffffffffffffffffffffffff169050919050565b60008054905090565b6060600360008381526020019081526020016000206003018054600181600116156101000203166002900480601f0160208091040260200160405190810160405280929190818152602001828054600181600116156101000203166002900480156129d25780601f106129a7576101008083540402835291602001916129d2565b820191906000526020600020905b8154815290600101906020018083116129b557829003601f168201915b50505050509050919050565b6060600260008381526020019081526020016000206003018054600181600116156101000203166002900480601f016020809104026020016040519081016040528092919081815260200182805460018160011615610100020316600290048015612a8a5780601f10612a5f57610100808354040283529160200191612a8a565b820191906000526020600020905b815481529060010190602001808311612a6d57829003601f168201915b50505050509050919050565b6000600154905090565b60006003600083815260200190815260200160002060000160009054906101000a900473ffffffffffffffffffffffffffffffffffffffff169050919050565b600080600060608060606000612af4613c0c565b600260008a815260200190815260200160002060e0604051908101604052908160008201548152602001600182015481526020016002820160009054906101000a900473ffffffffffffffffffffffffffffffffffffffff1673ffffffffffffffffffffffffffffffffffffffff1673ffffffffffffffffffffffffffffffffffffffff168152602001600382018054600181600116156101000203166002900480601f016020809104026020016040519081016040528092919081815260200182805460018160011615610100020316600290048015612c165780601f10612beb57610100808354040283529160200191612c16565b820191906000526020600020905b815481529060010190602001808311612bf957829003601f168201915b50505050508152602001600482018054600181600116156101000203166002900480601f016020809104026020016040519081016040528092919081815260200182805460018160011615610100020316600290048015612cb85780601f10612c8d57610100808354040283529160200191612cb8565b820191906000526020600020905b815481529060010190602001808311612c9b57829003601f168201915b50505050508152602001600582018054600181600116156101000203166002900480601f016020809104026020016040519081016040528092919081815260200182805460018160011615610100020316600290048015612d5a5780601f10612d2f57610100808354040283529160200191612d5a565b820191906000526020600020905b815481529060010190602001808311612d3d57829003601f168201915b505050505081526020016006820160009054906101000a900460ff1615151515815250509050806000015181602001518260400151836060015184608001518560a001518660c00151839350829250819150975097509750975097509750975050919395979092949650565b6000600760008373ffffffffffffffffffffffffffffffffffffffff1673ffffffffffffffffffffffffffffffffffffffff1681526020019081526020016000205490506000811115612ea0576000600760008473ffffffffffffffffffffffffffffffffffffffff1673ffffffffffffffffffffffffffffffffffffffff168152602001908152602001600020819055508173ffffffffffffffffffffffffffffffffffffffff166108fc829081150290604051600060405180830381858888f19350505050158015612e9e573d6000803e3d6000fd5b505b5050565b600060036000838152602001908152602001600020600601549050919050565b600060026000838152602001908152602001600020600101549050919050565b6000806000612ef1613aaf565b8a8a612efb613afc565b6003600084815260200190815260200160002061018060405190810160405290816000820160009054906101000a900473ffffffffffffffffffffffffffffffffffffffff1673ffffffffffffffffffffffffffffffffffffffff1673ffffffffffffffffffffffffffffffffffffffff1681526020016001820160009054906101000a900473ffffffffffffffffffffffffffffffffffffffff1673ffffffffffffffffffffffffffffffffffffffff1673ffffffffffffffffffffffffffffffffffffffff168152602001600282018054600181600116156101000203166002900480601f0160208091040260200160405190810160405280929190818152602001828054600181600116156101000203166002900480156130605780601f1061303557610100808354040283529160200191613060565b820191906000526020600020905b81548152906001019060200180831161304357829003601f168201915b50505050508152602001600382018054600181600116156101000203166002900480601f0160208091040260200160405190810160405280929190818152602001828054600181600116156101000203166002900480156131025780601f106130d757610100808354040283529160200191613102565b820191906000526020600020905b8154815290600101906020018083116130e557829003601f168201915b50505050508152602001600482015481526020016005820154815260200160068201548152602001600782015481526020016008820154815260200160098201548152602001600a8201548152602001600b820160009054906101000a900460ff16151515158152505090508060a001518210151561320f576040517f08c379a00000000000000000000000000000000000000000000000000000000081526004018080602001828103825260358152602001807f54686973206f7065726174696f6e2073686f756c6420626520706572666f726d81526020017f65642069662061756374696f6e206973206c697665000000000000000000000081525060400191505060405180910390fd5b600360008f81526020019081526020016000209550856007015434101515156132ec576040517f08c379a00000000000000000000000000000000000000000000000000000000081526004018080602001828103825260518152602001807f42696420706c6163656d656e74206661696c65642061732074686520616d6f7581526020017f6e7420746861742069732073656e7420617320626964206973206c6f7765722081526020017f7468616e2063757272656e74206269642e00000000000000000000000000000081525060600191505060405180910390fd5b85600901600081548092919060010191905055945060c0604051908101604052803373ffffffffffffffffffffffffffffffffffffffff1681526020013481526020018e81526020018d81526020018c8c8080601f01602080910402602001604051908101604052809392919081815260200183838082843782019150505050505081526020018a8a8080601f01602080910402602001604051908101604052809392919081815260200183838082843782019150505050505081525086600c01600087815260200190815260200160002060008201518160000160006101000a81548173ffffffffffffffffffffffffffffffffffffffff021916908373ffffffffffffffffffffffffffffffffffffffff160217905550602082015181600101556040820151816002015560608201518160030155608082015181600401908051906020019061343f929190613c62565b5060a082015181600501908051906020019061345c929190613c62565b50905050338660010160006101000a81548173ffffffffffffffffffffffffffffffffffffffff021916908373ffffffffffffffffffffffffffffffffffffffff1602179055503486600701819055508c8660080181905550600660003373ffffffffffffffffffffffffffffffffffffffff1673ffffffffffffffffffffffffffffffffffffffff1681526020019081526020016000208e908060018154018082558091505090600182039060005260206000200160009091929091909150555060008511156137685785600c01600060018703815260200190815260200160002060c060405190810160405290816000820160009054906101000a900473ffffffffffffffffffffffffffffffffffffffff1673ffffffffffffffffffffffffffffffffffffffff1673ffffffffffffffffffffffffffffffffffffffff168152602001600182015481526020016002820154815260200160038201548152602001600482018054600181600116156101000203166002900480601f0160208091040260200160405190810160405280929190818152602001828054600181600116156101000203166002900480156136585780601f1061362d57610100808354040283529160200191613658565b820191906000526020600020905b81548152906001019060200180831161363b57829003601f168201915b50505050508152602001600582018054600181600116156101000203166002900480601f0160208091040260200160405190810160405280929190818152602001828054600181600116156101000203166002900480156136fa5780601f106136cf576101008083540402835291602001916136fa565b820191906000526020600020905b8154815290600101906020018083116136dd57829003601f168201915b5050505050815250509350836020015160076000866000015173ffffffffffffffffffffffffffffffffffffffff1673ffffffffffffffffffffffffffffffffffffffff168152602001908152602001600020600082825401925050819055506137678460000151612dc6565b5b7fd8fc4137b35ccaca59bb16d527fe8c54a493578f4a03f7944fa768506465e6548e3334604051808481526020018373ffffffffffffffffffffffffffffffffffffffff1673ffffffffffffffffffffffffffffffffffffffff168152602001828152602001935050505060405180910390a160019650505050505050979650505050505050565b6000806002600085815260200190815260200160002060000154141515613835578160026000858152602001908152602001600020600001819055506001905061383a565b600090505b92915050565b6000806002600085815260200190815260200160002060010154141515613885578160026000858152602001908152602001600020600101819055506001905061388a565b600090505b92915050565b6000806002600085815260200190815260200160002060020160009054906101000a900473ffffffffffffffffffffffffffffffffffffffff1673ffffffffffffffffffffffffffffffffffffffff1614151561394557816002600085815260200190815260200160002060020160006101000a81548173ffffffffffffffffffffffffffffffffffffffff021916908373ffffffffffffffffffffffffffffffffffffffff1602179055506001905061394a565b600090505b92915050565b600080600260008581526020019081526020016000206003018054600181600116156101000203166002900490501415156139b957816002600085815260200190815260200160002060030190805190602001906139af929190613ce2565b50600190506139be565b600090505b92915050565b60008060026000858152602001908152602001600020600401805460018160011615610100020316600290049050141515613a2d5781600260008581526020019081526020016000206004019080519060200190613a23929190613ce2565b5060019050613a32565b600090505b92915050565b60008060026000858152602001908152602001600020600501805460018160011615610100020316600290049050141515613aa457816002600085815260200190815260200160002060060160006101000a81548160ff02191690831515021790555060019050613aa9565b600090505b92915050565b60c060405190810160405280600073ffffffffffffffffffffffffffffffffffffffff16815260200160008152602001600081526020016000815260200160608152602001606081525090565b61018060405190810160405280600073ffffffffffffffffffffffffffffffffffffffff168152602001600073ffffffffffffffffffffffffffffffffffffffff1681526020016060815260200160608152602001600081526020016000815260200160008152602001600081526020016000815260200160008152602001600081526020016000151581525090565b828054600181600116156101000203166002900490600052602060002090601f016020900481019282601f10613bcd57803560ff1916838001178555613bfb565b82800160010185558215613bfb579182015b82811115613bfa578235825591602001919060010190613bdf565b5b509050613c089190613d62565b5090565b60e0604051908101604052806000815260200160008152602001600073ffffffffffffffffffffffffffffffffffffffff1681526020016060815260200160608152602001606081526020016000151581525090565b828054600181600116156101000203166002900490600052602060002090601f016020900481019282601f10613ca357805160ff1916838001178555613cd1565b82800160010185558215613cd1579182015b82811115613cd0578251825591602001919060010190613cb5565b5b509050613cde9190613d62565b5090565b828054600181600116156101000203166002900490600052602060002090601f016020900481019282601f10613d2357805160ff1916838001178555613d51565b82800160010185558215613d51579182015b82811115613d50578251825591602001919060010190613d35565b5b509050613d5e9190613d62565b5090565b613d8491905b80821115613d80576000816000905550600101613d68565b5090565b905600a165627a7a723058206a69ffd4881b3f95d36fd4ae815214ee31dc4e6babf2798625c88969099c4f4c0029",
  "source": "pragma solidity ^0.4.22;\n\ncontract ConceptAuction {\n\n    struct Asset {\n        uint256 ownerIdentifier;\n        uint256 timestamp;\n        address owner;\n        string ownerFirstName;\n        string ownerLastName;\n        string name;\n        bool status;\n    }\n\n    struct Bid {\n        address bidder;\n        uint256 amount;\n        uint256 timestamp;\n        uint256 ownerIdentifier;\n        string ownerFirstName;\n        string ownerLastName;\n    }\n\n    struct Auction {\n        address seller;\n        address currentBidBidder;\n        string name;\n        string description;\n        uint256 startTime;\n        uint256 expirationTime;\n        uint256 startPrice;\n        uint256 currentBidAmount;\n        uint256 currentBidTimestamp;\n        uint256 bidCount;\n        uint256 assetIdentifier;\n        bool status;\n        mapping (uint256 => Bid) bids;\n    }\n\n    uint256 private assetCount;\n    uint256 private auctionCount;\n\n    mapping(uint256 => Asset) private assets;\n    mapping(uint256 => Auction) private auctions;\n    mapping(address => uint256[]) private assetsAddedByUser;\n    mapping(address => uint256[]) private auctionsOpenedByUser;\n    mapping(address => uint256[]) private auctionsBidByUser;\n    mapping(address => uint256) private refunds;\n\n    address private owner;\n\n    // Events that will be checked by DAPPs\n    event AssetCreation(uint256 id, address owner, string assetName);\n    event AuctionCreation(uint256 id, string name, uint256 startPrice);\n    event AuctionCancelation(uint256 id);\n    event AuctionFinish(uint256 auctionId, address winner, uint256 amount);\n    event BidPlacement(uint auctionId, address bidder, uint256 amount);\n\n    modifier onlyOwner() {\n        require(msg.sender == owner, \"Only owner is allowed to use this operation\");\n        _;\n    }\n\n    modifier onlySeller(uint _auctionId) {\n        require(msg.sender == auctions[_auctionId].seller, \"Only seller is allowed to use this operation\");\n        _;\n    }\n\n    modifier onlyLive(uint _auctionId, uint _currentBidTimestamp) {\n        Auction memory current = auctions[_auctionId];\n        require(_currentBidTimestamp < current.expirationTime, \"This operation should be performed if auction is live\");\n        _;\n    }\n\n    constructor() public {\n        owner = msg.sender;\n    }\n\n    function createAsset(\n        uint256  _ownerIdentifier, uint256 _timestamp, string _ownerFirstName, string _ownerLastName,\n        string _assetName) external returns (uint256 _assetId) {\n\n        _assetId = assetCount++;\n        assets[_assetId].ownerIdentifier = _ownerIdentifier;\n        assets[_assetId].timestamp = _timestamp;\n        assets[_assetId].owner = msg.sender;\n        assets[_assetId].ownerFirstName = _ownerFirstName;\n        assets[_assetId].ownerLastName = _ownerLastName;\n        assets[_assetId].name = _assetName;\n        assets[_assetId].status = false;\n\n        assetsAddedByUser[msg.sender].push(_assetId);\n\n        emit AssetCreation(_assetId, msg.sender, _assetName);\n    }\n    \n    function createAuction(\n        string _name, string _description,\n        uint256 _startTime, uint256 _expirationTime,\n        uint256 _startPrice, uint256 _assetId) external payable returns (uint256 _auctionId) {\n\n        require(0 < _expirationTime, \"Expiration time cannot be set to zero or lower.\");\n        require(0 < _startPrice, \"Start price cannot be set to zero or lower.\");\n        require(assets[_assetId].status == false, \"Asset cannot be auctioned as it is already in another auction right now.\");\n\n        _auctionId = auctionCount++;\n        auctions[_auctionId].seller = msg.sender;\n        auctions[_auctionId].currentBidBidder = msg.sender;\n        auctions[_auctionId].name = _name;\n        auctions[_auctionId].description = _description;\n        auctions[_auctionId].startTime = _startTime;\n        auctions[_auctionId].expirationTime = (_startTime + _expirationTime);\n        auctions[_auctionId].startPrice = _startPrice;\n        auctions[_auctionId].currentBidAmount = _startPrice;\n        auctions[_auctionId].currentBidTimestamp = _startTime;\n        auctions[_auctionId].bidCount = 0;\n        auctions[_auctionId].assetIdentifier = _assetId;\n        auctions[_auctionId].status = true;        \n        setAssetStatus(_assetId,true);\n\n        auctionsOpenedByUser[msg.sender].push(_auctionId);\n\n        emit AuctionCreation(_auctionId, _name, _startPrice);\n    }\n\n    //Asset related getters\n    function getAsset(uint256 _assetId) external view returns(\n        uint256,uint256,address,string,string,string,bool) {\n        Asset memory current = assets[_assetId];\n        return (\n            current.ownerIdentifier,\n            current.timestamp,\n            current.owner,\n            current.ownerFirstName,\n            current.ownerLastName,\n            current.name,\n            current.status\n            );\n    }\n\n    function getAssetCount() external view returns(uint256){\n        return assetCount;\n    }\n\n    function getAssetOwnerIdentifier(uint256 _assetId) external view returns(uint256) {\n        return assets[_assetId].ownerIdentifier;\n    }\n\n    function getAssetTimestamp(uint256 _assetId) external view returns(uint256) {\n        return assets[_assetId].timestamp;\n    }\n\n    function getAssetOwner(uint256 _assetId) external view returns(address) {\n        return assets[_assetId].owner;\n    }\n\n    function getAssetOwnerFirstName(uint256 _assetId) external view returns(string) {\n        return assets[_assetId].ownerFirstName;\n    }\n\n    function getAssetOwnerLastName(uint256 _assetId) external view returns(string) {\n        return assets[_assetId].ownerLastName;\n    }\n\n    function getAssetName(uint256 _assetId) external view returns(string) {\n        return assets[_assetId].name;\n    }\n\n    function getAssetStatus(uint256 _assetId) external view returns(bool) {\n        return assets[_assetId].status;\n    }\n\n    function getAssetCountForUser(address _user) external view returns (uint256) {\n        return assetsAddedByUser[_user].length;\n    }\n\n    //Asset related setters\n    //Maybe add onlyContract like a limiter\n    //Transferlerde alan kii ilk onaylama, onaylamadan sonra\n    function setAssetOwnerIdentifier(uint256 _assetId, uint _newAssetOwnerIdentifier) private returns (bool) {\n        if(assets[_assetId].ownerIdentifier != 0){\n            assets[_assetId].ownerIdentifier = _newAssetOwnerIdentifier;\n            return true;\n        }else{\n            return false;\n        }\n    }\n\n    function setAssetTimestamp(uint256 _assetId, uint256 _timestamp) private returns (bool) {\n        if(assets[_assetId].timestamp != 0){\n            assets[_assetId].timestamp = _timestamp;\n            return true;\n        }else{\n            return false;\n        }\n    }\n    \n    function setOwner(uint256 _assetId, address _newOwner) private returns (bool) {\n        if(assets[_assetId].owner != 0){\n            assets[_assetId].owner = _newOwner;\n            return true;\n        }else{\n            return false;\n        }\n    }\n\n    function setAssetOwnerFirstName(uint256 _assetId, string _newAssetOwnerFirstName) private returns (bool) {\n        if(bytes(assets[_assetId].ownerFirstName).length != 0){\n            assets[_assetId].ownerFirstName = _newAssetOwnerFirstName;\n            return true;\n        }else{\n            return false;\n        }\n    }\n\n    function setAssetOwnerLastName(uint256 _assetId, string _newAssetOwnerLastName) private returns (bool) {\n        if(bytes(assets[_assetId].ownerLastName).length != 0){\n            assets[_assetId].ownerLastName = _newAssetOwnerLastName;\n            return true;\n        }else{\n            return false;\n        }\n    }\n\n    function setAssetStatus(uint256 _assetId, bool _status) private returns (bool) {\n        if(bytes(assets[_assetId].name).length != 0){\n            assets[_assetId].status = _status;\n            return true;\n        }else{\n            return false;\n        }\n    }\n\n    //Auction related getters\n    function getAuctionCount() external view returns(uint256) {\n        return auctionCount;\n    }\n\n    function getAuction(uint256 _auctionId) external view returns(\n        string,string,uint256,uint256,uint256,bool,address,address,uint256,uint256,uint256,uint256) {\n        Auction memory current = auctions[_auctionId];\n        return (\n            current.name,\n            current.description,\n            current.startTime,\n            current.expirationTime,\n            current.startPrice,\n            current.status,\n            current.seller,\n            current.currentBidBidder,\n            current.currentBidAmount,\n            current.currentBidTimestamp,\n            current.bidCount,\n            current.assetIdentifier\n            );\n    }\n\n    function getAuctionName(uint256 _auctionId) external view returns(string) {\n        return auctions[_auctionId].name;\n    }\n\n    function getAuctionDescription(uint256 _auctionId) external view returns(string) {\n        return auctions[_auctionId].description;\n    }\n\n    function getAuctionStartTime(uint256 _auctionId) external view returns(uint256) {\n        return auctions[_auctionId].startTime;\n    }\n\n    function getAuctionExpirationTime(uint256 _auctionId) external view returns(uint256) {\n        return auctions[_auctionId].expirationTime;\n    }\n\n    function getAuctionStartPrice(uint256 _auctionId) external view returns(uint256) {\n        return auctions[_auctionId].startPrice;\n    }\n\n    function getAuctionStatus(uint256 _auctionId) external view returns (bool) {\n        return auctions[_auctionId].status;\n    }\n\n    function getAuctionCurrentBidder(uint256 _auctionId) external view returns(address) {\n        return auctions[_auctionId].currentBidBidder;\n    }\n\n    function getAuctionCurrentBidAmount(uint256 _auctionId) external view returns(uint256) {\n        return auctions[_auctionId].currentBidAmount;\n    }\n\n    function getAuctionCurrentBidTimestamp(uint256 _auctionId) external view returns(uint256) {\n        return auctions[_auctionId].currentBidTimestamp;\n    }\n\n    function getAuctionSeller(uint256 _auctionId) external view returns(address) {\n        return auctions[_auctionId].seller;\n    }\n\n    function getAuctionBidCount(uint256 _auctionId) external view returns(uint256) {\n        return auctions[_auctionId].bidCount;\n    }\n\n    function getAuctionCountForUser(address _user) external view returns (uint256) {\n        return auctionsOpenedByUser[_user].length;\n    }\n\n    //Auction related setters\n    function placeBid(\n        uint256 _auctionId, uint256 _currentBidTimestamp, uint256 _ownerIdentifier,\n        string _ownerFirstName, string _ownerLastName) external payable onlyLive(_auctionId, _currentBidTimestamp) returns (bool) {\n        Auction storage currentAuction = auctions[_auctionId];\n        require(\n            msg.value >= currentAuction.currentBidAmount,\n            \"Bid placement failed as the amount that is sent as bid is lower than current bid.\"\n        );\n\n        uint256 bidId = currentAuction.bidCount++;\n        currentAuction.bids[bidId] = Bid(msg.sender, msg.value, _currentBidTimestamp, _ownerIdentifier, _ownerFirstName, _ownerLastName);\n\n        currentAuction.currentBidBidder = msg.sender;\n        currentAuction.currentBidAmount = msg.value;\n        currentAuction.currentBidTimestamp = _currentBidTimestamp;\n\n        auctionsBidByUser[msg.sender].push(_auctionId);\n\n        if (bidId > 0) {\n            Bid memory previousBid = currentAuction.bids[bidId - 1];\n            refunds[previousBid.bidder] += previousBid.amount;\n\n            transferRefundNow(previousBid.bidder);\n        }\n\n        emit BidPlacement(_auctionId, msg.sender, msg.value);\n\n        return true;\n    }\n\n    function cancelAuction(uint256 _auctionId, uint256 _expirationTime) external onlySeller(_auctionId) returns (bool) {\n        Auction storage currentAuction = auctions[_auctionId];\n        uint256 bidCount = currentAuction.bidCount;\n\n        if (bidCount > 0) {\n            Bid memory highestBid = currentAuction.bids[bidCount - 1];\n            refunds[highestBid.bidder] += highestBid.amount;\n        }\n        currentAuction.expirationTime = _expirationTime;\n        currentAuction.status = false;\n\n        Asset storage currentAsset = assets[currentAuction.assetIdentifier];\n        currentAsset.status = false;\n\n        emit AuctionCancelation(_auctionId);\n\n        transferRefundNow(highestBid.bidder);\n        \n        return true;\n    }\n\n    function finishAuction(uint256 _auctionId, uint256 _timestamp) external returns (bool) {\n        Auction storage currentAuction = auctions[_auctionId];\n\n        require(currentAuction.status == true, \"Finish auction failed as auction needs to be active to be finished.\");\n        require(_timestamp > currentAuction.expirationTime, \"Finish auction failed as expiration time is not reached.\");\n\n        if (currentAuction.bidCount == 0) {\n            currentAuction.status = false;\n            return true;\n        } else {\n            Bid memory highestBid = currentAuction.bids[currentAuction.bidCount - 1];\n            \n            setAssetOwnerIdentifier(currentAuction.assetIdentifier, highestBid.ownerIdentifier);\n            setAssetTimestamp(currentAuction.assetIdentifier, _timestamp);\n            setOwner(currentAuction.assetIdentifier, highestBid.bidder);\n            setAssetOwnerFirstName(currentAuction.assetIdentifier, highestBid.ownerFirstName);\n            setAssetOwnerLastName(currentAuction.assetIdentifier, highestBid.ownerLastName);\n            setAssetStatus(currentAuction.assetIdentifier, false);\n\n            refunds[currentAuction.seller] += currentAuction.currentBidAmount;\n            currentAuction.status = false;\n\n            emit AuctionFinish(_auctionId, highestBid.bidder, currentAuction.currentBidAmount);\n            \n            transferRefundNow(currentAuction.seller);\n\n            return true;\n        }\n    }\n\n    //Refund related methods\n    function getRefundValue() external view returns (uint256) {\n        return refunds[msg.sender];\n    }\n\n    function transferRefund() external {\n        uint256 refundAmount = refunds[msg.sender];\n        if (refundAmount > 0) {\n            refunds[msg.sender] = 0;\n            msg.sender.transfer(refundAmount);\n        }\n    }\n\n    function transferRefundNow(address _highestBidder) public {\n        uint256 refundAmount = refunds[_highestBidder];\n        if (refundAmount > 0) {\n            refunds[_highestBidder] = 0;\n            _highestBidder.transfer(refundAmount);\n        }\n    }\n}\n",
  "sourcePath": "/Users/birkandenizer/conceptAuction/contracts/ConceptAuction.sol",
  "compiler": {
    "name": "solc",
    "version": "0.4.23+commit.124ca40d.Emscripten.clang"
  },
  "schemaVersion": "2.0.0",
  "updatedAt": "2018-08-18T21:15:50.697Z"
}